:1000000000000320D101000045090000FD080000A8
:10001000FD080000FD080000FD080000FD080000CC
:10002000FD080000FD080000FD0800004509000073
:1000300045090000FD0800004D1B0000511C000098
:100040004509000045090000450900004509000078
:100050004509000045090000450900004509000068
:100060004509000045090000450900004509000058
:100070004509000045090000450900004509000048
:100080004509000045090000450900004509000038
:100090004509000045090000450900004509000028
:1000A0004509000045090000450900004509000018
:1000B0004509000045090000450900003D1E0000FB
:1000C00045090000691F0000450900009520000057
:1000D000450900008D210000450900004509000088
:1000E00045090000450900004509000045090000D8
:1000F00045090000450900004509000045090000C8
:1001000045090000450900004509000045090000B7
:10011000450900005910000045090000450900008C
:100120004509000045090000450900004509000097
:100130004509000045090000450900004509000087
:1001400045090000450900003D0E0000450900007A
:100150004509000045090000450900004509000067
:100160004509000045090000450900004509000057
:100170004509000045090000450900004509000047
:100180004509000045090000450900004509000037
:1001900045090000450900008522000045090000CE
:1001A0004509000045090000450900004509000017
:1001B0004509000045090000450900004509000007
:1001C00045090000450900004509000045090000F7
:1001D0005C4B4CF2205210B51A804DF628121A8052
:1001E00000BF00BF00F0B2FB574B4FF030621A6007
:1001F000564A9A60564ADA60564B4FF470021A60BB
:10020000554B564A1A60564A136813F4807304D14A
:1002100054490B604FF4A8531360534B1A781107DD
:1002200003D51A7842F008021A70504B5049AA229E
:100230001A70504A504B8B4204D252F8040F43F8C4
:10024000040BF8E74D4B4E4900228B4202D243F893
:10025000042BFAE74B494C4A002352F8230041F89B
:1002600023000133742BF8D1484B494A802103F80D
:10027000011B9342FBD1474B424A1A60464B8A22EC
:100280001A70A3F5805324225A70A0221A709A790A
:100290009207FCD59A79D406FCD4404A937903F0AE
:1002A0000C03082BFAD13E4B60221A7002331A78E5
:1002B000802AFCD1394B01221A715D225A719A7938
:1002C0009006FCD59979354A4906FBD5354B364918
:1002D00019600021596020231370937903F00C03F7
:1002E0000C2BFAD1314B324A1A60324B324A1A6027
:1002F00000225A60072243F8042C304AC3F80C2D20
:1003000062B600F051FC174B1B68DA0705D52C4884
:1003100000F0DAFB2B4B2C4A1A602C4B1B785B0647
:1003200009D5284C284B22689A4204D1244800F071
:10033000CBFB0023236002F09FF800F00DFB01F0DF
:100340008FFCFEE70E20054030800440823F040011
:100350000100002B88ED00E0002008E0030000858C
:1003600010D0034014D0034002D0074000E0074003
:100370008410FF1FD43000003007FF1F8410FF1FC0
:100380002415FF1F0002FF1F0000000000E400E032
:1003900064E400E008ED00E0005006400040064044
:1003A00001E007404480044000000602048004404D
:1003B000C010070014E000E01FBF02000000202072
:1003C000C58C805B1CE00340A5C3945A00F0074035
:1003D000FFFFFFFFFFFFFFFFFFFFFFFFFFFFFFFF2D
:1003E000FFFFFFFFFFFFFFFFFFFFFFFFFFFFFFFF1D
:1003F000FFFFFFFFFFFFFFFFFFFFFFFFFFFFFFFF0D
:10040000FFFFFFFFFFFFFFFFFFFFFFFFDEF9FFFF23
:1004100010B5054C237833B9044B13B10448AFF33E
:1004200000800123237010BD8410FF1F0000000016
:10043000D8300000084B10B51BB108490848AFF38D
:1004400000800848036803B910BD074B002BFBD0A0
:10045000BDE81040184700BF000000008810FF1FD3
:10046000D83000008410FF1F0000000010B50446C3
:10047000006808B101F0FEFB204610BDF0B5012177
:100480008DB0202000F038FB0021202000F02EFB52
:1004900001210D2000F030FB40F6354000F03AFC21
:1004A000002000F085FC3D4E3D4B34681B68B2686F
:1004B0001B680193121B4FF0050E1427152502200F
:1004C00003930593079309930B930E2108232F2A77
:1004D0008DF800E08DF808708DF810508DF8180038
:1004E0008DF820108DF828302ED97068021BD3109B
:1004F000052B16D80DEB0205002B49D103460CAA9B
:10050000541BE2083DD1234435687360002400E0A9
:1005100035682819083400F02FF9302CF8D10DB0C7
:10052000F0BDEE4627460DF1300C75460FCD654502
:1005300038607960BA60FB60AE4607F11007F4D10D
:10054000303474603568E1E7302001F091FBEE460D
:10055000054607460DF1300C74460FCC64453860F3
:100560007960BA60FB60A64607F11007F4D13068E5
:1005700008B101F07FFB05F1300335607360B360B3
:10058000C4E718462946224600F01EF90346BAE79A
:100590006946204600F018F97368B0E7AC10FF1FF9
:1005A0003807FF1F2DE9F04F314D324EDFF8D4A050
:1005B000DFF8D490304FDFF8D48085B000244FF0BE
:1005C000000B2868326858441259426000F0D4F891
:1005D0000BF1080B0A2000F095FABBF1300FF0D1B7
:1005E000DAF80030DB0729D5D9F800300393039BF4
:1005F0003A887988A8FB0303C2EB93139BB2994214
:1006000013D8D9F800300293029B1C4A286812784C
:10061000A8FB03139B093B801AB300F0C3F8174AE9
:1006200000231370164B01221A7004340A2000F0C4
:1006300069FA182CC3D105B0BDE8F08F114800F05D
:10064000A3F90028D0D0D9F800300193019B0D48C0
:10065000A8FB03239B093B801E237B8000F09AF9B3
:10066000C2E700F08DF8054A01231370DAE700BFF6
:10067000AC10FF1F3807FF1FA810FF1FA010FF1F9F
:100680003407FF1FA410FF1FC810FF1FD34D6210B7
:10069000064B074A074910B400241C605C609C604C
:1006A00018465DF8044B01F0D5BE00BFAC10FF1F2B
:1006B0003007FF1F6D04000000207047044B00222C
:1006C000FF204FF0FF31187099605A80DA60704750
:1006D000B810FF1F10B5044671B1002100F006FAF2
:1006E00047F69063013BFDD10121204600F0FEF961
:1006F000094B013BFDD110BD00F0F8F948F6482345
:10070000013BFDD10121204600F0F0F947F6E0134E
:10071000013BFDD110BD00BF708E010070B50E46CB
:100720000021054600F0E2F9114B013BFDD101210A
:10073000284600F0DBF90F4B013BFDD11F2426FAC0
:1007400004F101F00101013C2846FFF7C3FF631CDF
:10075000F5D10021284600F0C9F948F2B833013B31
:10076000FDD101212846BDE8704000F0BFB900BFAF
:10077000603D0800B01E040041680078FFF7CEBF5E
:1007800010B50649416004460078FFF7C7FF0449E9
:1007900061602078BDE81040FFF7C0BFDF20F700A0
:1007A0000FF0F70010B50649416004460078FFF7E6
:1007B000B5FF044961602078BDE81040FFF7AEBF87
:1007C000DF20F70017E8F700844641EA000313F042
:1007D00003036DD1403A41D351F8043B40F8043B48
:1007E00051F8043B40F8043B51F8043B40F8043B0B
:1007F00051F8043B40F8043B51F8043B40F8043BFB
:1008000051F8043B40F8043B51F8043B40F8043BEA
:1008100051F8043B40F8043B51F8043B40F8043BDA
:1008200051F8043B40F8043B51F8043B40F8043BCA
:1008300051F8043B40F8043B51F8043B40F8043BBA
:1008400051F8043B40F8043B51F8043B40F8043BAA
:1008500051F8043B40F8043B403ABDD2303211D34A
:1008600051F8043B40F8043B51F8043B40F8043B8A
:1008700051F8043B40F8043B51F8043B40F8043B7A
:10088000103AEDD20C3205D351F8043B40F8043B4A
:10089000043AF9D2043208D0D2071CBF11F8013B48
:1008A00000F8013B01D30B8803806046704700BF0E
:1008B000082A13D38B078DD010F003038AD0C3F11D
:1008C0000403D21ADB071CBF11F8013B00F8013BFF
:1008D00080D331F8023B20F8023B7BE7043AD9D3BE
:1008E000013A11F8013B00F8013BF9D20B78037093
:1008F0004B7843708B7883706046704708B5104C16
:1009000008E0236859050DD423681A050FD423681D
:10091000DB0411D423685803F3D500F09DFB236852
:100920005905F1D501F08AFA23681A05EFD501F0CF
:100930001BFB2368DB04EDD501F0ACFBEAE700BF4D
:100940003480044008B5FFF7D9FF00BF014B1022E7
:100950001A80704700200540704700BF094908B55C
:100960000B6830B16A461844A2F50052904202D298
:100970000860184608BD01F079FD0C2303604FF0B4
:10098000FF3008BD3C07FF1F0078B0FA80F0400937
:10099000704700BF01230370704700BF084A1378F7
:1009A000802B01D0002070470649074B074808609C
:1009B000002119701378802BFCD00120704700BFF4
:1009C00003E007404480044001E007400000282283
:1009D000094A1378012B01D00020704703F18043AE
:1009E00003F5FC23602119701378802BFCD1034B95
:1009F000034A1A600120704703E007404480044026
:100A00000000060210B4114B53F8302092F88042D7
:100A100034B1012379B182F880305DF8044B70471E
:100A200003EBC0035B681A6851B922F002021A6036
:100A30005DF8044B704782F800315DF8044B704755
:100A400042F003021A605DF8044B70472C2E000040
:100A50001C4A02EBC00301295B6811D004291BD09A
:100A600052F83000002280F8802229B1022920D0DB
:100A7000032922D01A6070474FF480721A607047C1
:100A800052F830004FF4A27280F880121A601A688F
:100A900022F020021A60704752F830104FF4A27210
:100AA000012081F880021A601A6842F020021A6060
:100AB000704740F203121A6070474FF481721A6057
:100AC000704700BF2C2E000030B4054B054D064C7E
:100AD000002210211A602A602060196030BC704723
:100AE00014D0034004D0034000D003403F2801D875
:100AF000FFF788BF704700BF3F2801D8FFF7A8BFA6
:100B0000704700BF2DE9F843054672B6224F234BCC
:100B1000234A1B683C68126862B6520102D5322B28
:100B200088BF0134B5B3C3F52F3303F21F331D4E15
:100B3000DFF86890DFF868809B084FF47A72A6FBB4
:100B4000031302FB04F404EB930472B6D9F800100B
:100B50003A68D8F800E062B6C1F52F3303F21F33CC
:100B60009B08A6FB03031EF0806FC4EB93034FF4B6
:100B70007A7002D0322988BF013200FB0233B3F50C
:100B80007A7F04D3013D05D004F57A74DDE701F0E6
:100B900073F8DAE7BDE8F883C810FF1F18E000E03B
:100BA00004ED00E0176CC116F8B54E4B4E48DFF867
:100BB0005CC14E4C4E49DFF858E14E4E4E4D4F4F02
:100BC0004FF000621A604FF080521A604FF00052EE
:100BD0001A604FF080421A604FF000421A60002203
:100BE000026028234EF6FF70CCF80000CEF80030EB
:100BF00023600EF5012E0B6033602B6006F5002696
:100C00003B6005F50025A36207F500278B6204F51C
:100C1000012401F5012106F6E87605F6E87507F5E9
:100C20007F6710310EF1100E203433602B60CEF848
:100C300000303B600B602360314CBB618B6109214C
:100C40002160A7F5002704F58054203F08343A605E
:100C50002060BB60E36047F8041C04F5FD2407F541
:100C6000FE27043704F2FC7422603860A360FB6046
:100C700044F8041C083404F6FC74C7F8FC2F206008
:100C8000A4F5E124A4F2DC7433602B60C7F8F81FEC
:100C900021681C4841F40071216001681A4C0EF56E
:100CA0007F4E0EF1E80E07F5883706F5803605F51C
:100CB000803541F000710160CEF8002047F6FF71E9
:100CC0000822396033602B60226001F037F8192068
:100CD000FFF718FF00F0CAFD40F21310BDE8F8401E
:100CE000FFF710BF04E100E00480034014800340DC
:100CF0001C800340248003402C8003403480034048
:100D0000008003400480044000900C4008800340B1
:100D10000C8003401B4BDFF890C01A681A49F0B5ED
:100D200042F48062194D1A60DFF880E0184F194EC6
:100D3000194C00238CF800304FF451722B701F288F
:100D400040F213358EF800303B70337025600A6036
:100D500011D819460124114A114D117011485470CF
:100D600000212C2740269372042491701174D770AF
:100D70002E700460F0BDC0F34431C0F3471400F09E
:100D80001F03E8E72880044060D00440D110FF1F13
:100D90003D11FF1F3C11FF1F64D0044000A00E4016
:100DA00042E400E008E100E0D010FF1F4411FF1F03
:100DB000194B19499B7803F0EC0200F0030313432D
:100DC000420700F00F0248BF43F01003042A8B7063
:100DD0001CD0114B104A5B79C10603F0EF0348BFEA
:100DE00043F0100353719379820603F0EF030A4A2C
:100DF00048BF43F010039371C30506D553781178AB
:100E0000DBB241F020011170537070478B7943F0D1
:100E100040038B71DDE700BF00A00E40054A064B82
:100E200010781B78C0B2DBB2984238BF4030C01A8D
:100E3000704700BFD010FF1FD110FF1F30B42B4BE5
:100E40001A7994061FD52A48DA790378294901339B
:100E50003F2B0978C8BF00238B42D2B203D0264C67
:100E6000D9B2E2540170254A116861B1244A12785E
:100E7000D2B2934236BFC2F140029B1A9B18272B75
:100E8000C4BF01230B70194AD378DBB2180611D402
:100E90005A060DD5154B1B795B0609D5194B1A4916
:100EA0001B6800220A7003B11A70104B2C22DA70F2
:100EB00030BC704711790906EAD5144910480C78FE
:100EC0000178C9B28C420DD04A1C272A84BF002168
:100ED0000A460F4D054C98BFD1B2AA5CD2B2E2715E
:100EE0000170D5E76C21D170D2E700BF00A00E40A1
:100EF000D010FF1FD110FF1FFC10FF1FCC10FF1FD1
:100F00003D11FF1F4011FF1F3C11FF1F4411FF1F28
:100F1000D410FF1F431E032B14D872B60A4951F890
:100F2000230068B170B4094C058834F81320466872
:100F300041F82360521B24F8132062B670BC70473E
:100F400062B6704700207047A011FF1F1815FF1FE1
:100F5000F0B472B61A491B4E012311F8014B194F18
:100F60009A00240742F0010505D556F8324064B1D5
:100F700056F83520BAB10133052BEED162B6124BCB
:100F800000221A70F0BC00F0F9BC0F4C0F4D217814
:100F900047F8325007EB431308304A1E586022705E
:100FA00062B6F0BC70470849094B0A7847F83530FB
:100FB00007EBC5030830013A58600A7062B6F0E7E3
:100FC0002C3000000000FF1F1D12FF1F8800400092
:100FD000C8004000431E032B1DD81B4A400140F0AF
:100FE000100030B4104472B6184CE25C032A1BD8CF
:100FF000DFE802F00212151703220D88E25410F008
:10100000080F14BFC823882343EA0543083103604F
:10101000416062B630BC704708300222EDE705221D
:10102000EBE708300422E8E7094A52F8230038B118
:10103000084A52F82300416042F8231062B6E9E7FB
:1010400042F82310034AF7E70000FF1F2C12FF1F8E
:10105000F411FF1F0412FF1F2DE9F04FDFF810A35A
:10106000DFF810B387B044E0AB4F4FEA930807EBCB
:10107000C809013ED9F8042003F00803F6B2A2F132
:10108000080003F0FF04002B40F0FC8057F83830D4
:101090001B0C99B222F8081C002B00F0EA809F4B31
:1010A00022F8064C42F8044C53F82620002A00F09F
:1010B000CB819B4D55F8263058609A4C45F8260058
:1010C00034F81630194424F8161000F037FC0028C4
:1010D00000F0BE81944A954B19F0080F00F108000A
:1010E00018BF1346C9F8040047F8383008238AF8B7
:1010F00000309AF80040E4B261071AD58C4B1B7897
:10110000A3B18C490A7802F0FF0322B1013BDBB2A4
:101110000B7003B900BE88490A7802F0FF032AB1B8
:10112000013BDBB20B70002B00F0648104238AF8D2
:10113000003004F0080303F0FF02002B00F0C6802B
:101140009BF80030DBB21E098ED19A08724F57F817
:10115000321007EBC200C1F38301013940680C294A
:1011600000F28380DFE801F07878818181818181DC
:101170004281818107000168704D714B4068019385
:10118000694B47F832306F4E686040F2816288B236
:101190006B4B29600024012190421C603C61BC61C2
:1011A000317000F2E980B0F5D06F80F00F82B0F5B9
:1011B000817F00F0DA8100F26B81802800F00182EB
:1011C000822840F0D881A8885F4B00F07F00042877
:1011D00000F2D2815D4A8000034414705470187884
:1011E000840740F102831170022174E1544B019392
:1011F0001A6832B3564B534E5648198834780578DE
:1012000040298E4645F0020828BF4FF0400E002CC2
:1012100084F001043470CEEB01010CBF8824C82493
:1012200007EBC80689B285F0010544EA0E447260F6
:10123000198047F8384072440570002966D0019B38
:101240001A603E4B1A88B2F5A06F0ED100219A7831
:101250005970414B1A7008E03849404C0D68A5425E
:1012600000F09980304947F832103D4A012313704D
:101270003CE72D4A2D4B19F0080F18BF134647F8CD
:10128000383033E700F07AFB364A374952F82630D7
:10129000002B00F0E48058688C5D42F8260003F1D2
:1012A0000802C9F80420032C05D8DFE804F02C025A
:1012B000292602228A551A8819F0080F0CBF8823A4
:1012C000C82343EA024347F838300FE7E00700F14C
:1012D0009480210600F1D280A20706D5234A244932
:1012E00013780220DBB213700870E30602D5204B9E
:1012F00010221A7007B0BDE8F08F04228A55DAE791
:1013000005228A55D7E703228A55D4E7BEF1400F5C
:1013100018BF002293E700BF0000FF1FA011FF1FAE
:101320004C11FF1F1815FF1FC80040008800400027
:101330002812FF1FB111FF1F3C12FF1F1412FF1FC5
:101340004811FF1FB011FF1FC02007402012FF1FD0
:101350005C11FF1F1C12FF1F98200740210900038A
:1013600094200740F411FF1F2C12FF1F8820074014
:101370008020074090200740B0F5106F00F03E81BC
:1013800040F2A28040F62112904240F01C82A44A12
:101390000123137069E74C68A2498C427FF462AF65
:1013A0000178A9297FF45EAF417845297FF45AAFCF
:1013B0008178C2297FF456AFC1786B297FF452AF90
:1013C00099489A4E0178347881F00105002C41F05B
:1013D000020105700CBF8820C82084F0010447F882
:1013E000310007EBC10192483470002505244D609F
:1013F000047037E700F01AFB98E68E4B88488A495C
:101400001A614FF0020E80F800E08B4F0A708B4992
:10141000196099608A4E8B4D8B4C9A610D21397001
:10142000FF213170DFF848E229702270874D884A29
:101430008EF800109F27012406F8047C5D6004707C
:10144000DA6007B0BDE8F08F43F82600814D34E63E
:10145000814A47F8380013780133137046E68B5DF4
:10146000032B00F2A78001A252F823F0ED10000038
:10147000ED100000C3140000BD1400006E49714B54
:1014800080220D2008701A70A2077FF52EAF25E785
:1014900040F20232904240F08E81AA8802F07F0230
:1014A000042A68D86D88002D65D1634802919200A6
:1014B0001044027842F00202027048E101238B5589
:1014C00014E600238B5511E6B0F5086F53D163483D
:1014D000634A00781070ED888D4280F09B815248FD
:1014E000047844F0020C07EBCC01402DAE464FF0DF
:1014F000010328BF4FF0400E4A6002EB0E09CEEB0D
:1015000005014FEA0E4802930025C82242EA08036B
:1015100084F0010247F83C3035700270DFF814C1E6
:10152000424BDFF8048151BBBEF1400F7FF42FAF77
:1015300042F0020207EBC203DFF8F8E0C3F80490C0
:1015400095BB0D0445F088059DF80830337040299F
:10155000047009EB01034EF832507FF418AF0021FC
:10156000404A01981180036011E7AA8802F07F02C7
:10157000042A40F22D81304B0F221A7007E74029D0
:10158000D6D942F002020CEBC200C0F804907DB143
:1015900035489DF808501D70403988F8004009F121
:1015A00040034CF83200DBE70D0445F0C805CBE7FB
:1015B0002248EEE719F0080F0CBF022303238B55D6
:1015C00094E5274A02211470547084E727494A6839
:1015D000002AD0D06C88B5F804E003E00C314A68EA
:1015E000002AC8D00B88A342F8D14B887345F5D1A7
:1015F000240A032C0CBF117809896CE7174A0D4C9B
:10160000A978117004F1800502E00834AC4231D0B1
:10161000236A1A06F9D5606A083800F0AFF9F4E7D2
:1016200094200740010004001C12FF1FB011FF1F8F
:10163000B111FF1F0000FF1FC020074088004000BD
:101640008820074080200740982007406011FF1F36
:10165000B411FF1F4C11FF1F1D12FF1F2812FF1F87
:101660002012FF1F5C11FF1FC80040003030000037
:101670008C2007406F49704B704A02917049714D40
:10168000714C059603954FF00009884616461D4695
:101690000494286828B1446800F070F92046002CB2
:1016A000F9D100232B60039B30681A46002342F8CF
:1016B000293028B1446800F061F92046002CF9D1A6
:1016C00000223260029A98F800301146002241F858
:1016D000042B049A0291023B4FF0000122F81910EA
:1016E000032B07D8DFE803F0470247024FF001035E
:1016F00088F8003009F10109B9F1040F05F104057A
:1017000006F1040608F10108C3D1504B059EDFF82D
:101710005491DFF8548100211970012518F8013B1C
:1017200009F8043B1B072BD4AC0044F0020244F040
:101730000304002347F8323047F83430444B9945CE
:1017400005F10105EAD13378029383F00105002108
:10175000894688468E460A463E48047844F0020C84
:1017600007EBCC030393029B002B039B5A600CBF37
:101770008822C822CAE64FF0000388F80030B9E793
:1017800000F0DCF8AC0007EB451300F1080200287C
:1017900037D05A60304B47F8343000F0CFF844F07F
:1017A000010307EBC30200F1080100B351602B4AAB
:1017B00047F83320B9E7B0F5A06F7FF4DCAE012322
:1017C00000250293C3E740F621229042F7D0D2E6EB
:1017D0006D88002D7FF4CFAE214802919200104415
:1017E000027822F002020270B1E7022173E6174B81
:1017F00044F001021B7847F83200144A0133137099
:1018000093E7124B114A1B78AC00013347F83400C0
:101810001370C2E740298E464FF0010328BF4FF0F6
:10182000400ECEEB01014FEA0E4802EB0E090025F7
:10183000029391E70412FF1FA011FF1FF411FF1F75
:101840002C12FF1F4C11FF1F1815FF1F1D12FF1F29
:10185000D42007401C12FF1F88004000C800400031
:10186000C0200740C42007402C3000002DE9F04183
:10187000274C00F079FD002204F1880023461A600D
:101880005A60083383424FF00001F8D12148224AC0
:101890000368DFF89CE0214E214D224FDFF894C011
:1018A000DFF8948043F480230360136843F04073AF
:1018B000136003238EF80030A023337002F5C92291
:1018C000C4F3072300F528302B708030C4F307439E
:1018D00010323B70240EFF230470134D8CF800303F
:1018E000124888F800301370012306F8AC3C4FF41E
:1018F00000140EF8441C7026102107F82C3C2E70A2
:10190000046082F8F810AEF1440EBDE8F08100BF2B
:101910000000FF1F3480044000D8004040210740F1
:101920009C200740B020074035E400E004E100E0DF
:1019300044210740802007408820074072B60D48A8
:101940000268B2FA82F30B2B10DC4FF00041D94051
:1019500022EA0102026062B6074803EBC303DB0020
:10196000C2180021C15010465160704762B6002075
:10197000704700BF4007FF1FD003FF1F0D4B0E4AEB
:10198000C31AA2FB03231B090B2B0CD80B4A12789A
:1019900052B972B60A484FF00041026821FA03F3C7
:1019A0001A43026062B67047064A1278002AF0D0E5
:1019B000FFF7CEBAD003FF1F398EE3381D12FF1F89
:1019C0004007FF1F2812FF1F38B5164D2868E0B1E9
:1019D00001884488A14213DD03191B7A83B104F105
:1019E0000803C2180C1B002302E012F8011F21B1EA
:1019F0000133A342F9D1204638BD1C46204638BDEC
:101A0000FFF7BCFF0020286038BD074B1B780BB9DF
:101A1000002038BD0220FFF77DFA28600028D7D1CA
:101A2000F6E700BF3812FF1F2812FF1F0D4B1B786F
:101A3000BBB910B50C4C216803F0FF024B883F2B5B
:101A400007DC07330B4401F1470003F8012F834201
:101A5000FBD140230B800120FFF7BCFA0023236059
:101A600010BD70473012FF1F3412FF1F10B4EFF388
:101A7000108272B6437F33B9017F012908D0032950
:101A800010D00123437702B962B65DF8044B70476A
:101A9000114C2168A1B1114943610B688361086051
:101AA0005861EEE70E4C216881B10E4943610B6825
:101AB0008361086058610C4B4FF080511960E0E77A
:101AC000064B4161816120601860DAE7054B416196
:101AD000816120601860EEE75012FF1F4C12FF1F5B
:101AE0004012FF1F4412FF1F04ED00E010B4047FFA
:101AF0004160022CC26003D05DF8044BFFF7B6BF13
:101B000083685DF8044B184770B5EFF3108272B626
:101B10000C4C206880B10C4E00254369236073B1E2
:101B20009D6102B962B6457783689847EFF31082EA
:101B300072B620680028F0D102B962B670BD336079
:101B4000EFE700BF4012FF1F4412FF1FFFF7DCBF8B
:101B5000184A30B41468002C27D0036821688B42DF
:101B60000ED2CB1A00218460C1602360E060106057
:101B70000223037530BC704711688B42144608D3AA
:101B8000A2685B1A0360002AF6D18260C460A0607C
:101B9000EEE7D268C2608460E060C568CB1A0222BA
:101BA000A8602360027530BC70478460C460106018
:101BB000DEE700BF4812FF1FF8B5224E34682CB391
:101BC0002368002B3AD1204F1D4604E03468ECB165
:101BD0002368002B32D1A36803B1DD602069336034
:101BE000036825751B68BB4221D1037F4560022B2A
:101BF000C46020D0FFF73AFF6368002BE6D0236073
:101C00002046FFF7A5FF3468002CE1D1EFF31083E5
:101C100072B60E4A00211068116003B962B628B18D
:101C20008468FFF795FF20460028F9D1F8BD2246C9
:101C300000219847E0E783689847DDE7013B236090
:101C4000E4E700BF4812FF1FED1A00005812FF1F03
:101C5000024A136801331360FFF7AEBFC810FF1FBD
:101C600008B5FEF70BFCFEF79DFC00F005F8FAE75F
:101C700000F02ABC00F030BC38B52C4C237803B1FE
:101C800038BD01232370FFF79FFE002842D100F0EA
:101C9000C5F800283BD100F057F9002834D100F0F6
:101CA000E9F970BB00F062FA40BBFFF7B7F810BB70
:101CB00000F0D8FAE0B900232370EFF30583002B7E
:101CC000DED1EFF3108172B6194B186828B3194CA6
:101CD000227812BB45691D60012323700DB3AA61F0
:101CE00001B962B600254577836898472570C7E734
:101CF00000F086FBDFE700F081FBD9E700F07CFB1A
:101D0000D3E700F077FBCDE700F072FBC7E700F008
:101D10006DFBC0E700F076FBB9E70029B0D162B6F1
:101D200038BD054B1D600029DCD1DAE75C12FF1FCE
:101D30005012FF1F5412FF1F4C12FF1F30B42948CE
:101D4000294A2A4B2A4D6024E121047011701B7826
:101D5000284C082B30D00A2B2748284937D00C2B89
:101D60000CBF35225D2212232A60236002600B60C3
:101D7000234B24491B78244ABBB101230B60136019
:101D8000224B23491B78234A012B26D9042B0FD938
:101D9000082B1ED9102B94BF862387230B6013605A
:101DA0001D4B01221A7030BC70470B601360E7E7CF
:101DB00084230B601360F3E700F58E200F49083091
:101DC000212213232A60236002600B60D0E73922AE
:101DD000F7E785230B601360E2E780230B60136055
:101DE000DEE700BF00400740014007404407FF1FF7
:101DF00008B003400CB0034008B00B400CB00B40DF
:101E00005E12FF1F20B0034020B00B404507FF1FAC
:101E100024B0034024B00B405D12FF1F054A064B5F
:101E200010781B78C0B2DBB2984238BF4030C01A7D
:101E3000704700BF6412FF1F6512FF1FF0B4384BDC
:101E40001A7912F0300F2CD072B6997D01F0FF0292
:101E500000293DD062B6334F334938780D78334E80
:101E60001C46C0B2EDB2431C402BE17928BF0023D1
:101E7000AB4202F1FF32C9B21CBFF154184612F056
:101E8000FF02F0D12A4B1B68C2B23A704BB1A84294
:101E900036BFC5F14005401B40192728C4BF0122A9
:101EA0001A701F49CA78D2B2150616D452060DD53B
:101EB0001B4B1B795B0609D51E4B1F491B68002273
:101EC0000A7003B11A70164B3C22DA70F0BC7047EE
:101ED0004022D9795A7462B6E3E70B791C06E5D53E
:101EE000164B174E1C783378E4B2DBB29C420ED00E
:101EF000144D01E0A3420AD00133402B28BF002338
:101F00000879E85CC0B2C871087D0728F2D9DBB255
:101F1000034933700B79180644BF7C23CB70C5E7A7
:101F200000A006406412FF1F6512FF1FA812FF1FCA
:101F30006012FF1FEC12FF1FE812FF1FF012FF1FBD
:101F4000E912FF1F6812FF1F054A064B10781B7825
:101F5000C0B2DBB2984238BF4030C01A704700BFF1
:101F60006413FF1FF912FF1FF0B4384B1A7912F0F7
:101F7000300F2CD072B6997D01F0FF0200293DD0C0
:101F800062B6334F334938780D78334E1C46C0B2B1
:101F9000EDB2431C402BE17928BF0023AB4202F194
:101FA000FF32C9B21CBFF154184612F0FF02F0D143
:101FB0002A4B1B68C2B23A704BB1A84236BFC5F17A
:101FC0004005401B40192728C4BF01221A701F4931
:101FD000CA78D2B2150616D452060DD51B4B1B7902
:101FE0005B0609D51E4B1F491B6800220A7003B10E
:101FF0001A70164B3C22DA70F0BC70474022D97937
:102000005A7462B6E3E70B791C06E5D5164B174EFA
:102010001C783378E4B2DBB29C420ED0144D01E060
:10202000A3420AD00133282B28BF00230879E85C9B
:10203000C0B2C871087D0728F2D9DBB203493370FA
:102040000B79180644BF7C23CB70C5E700B006406F
:102050006413FF1FF912FF1F2413FF1FF412FF1F49
:102060006813FF1FF812FF1F6C13FF1F6513FF1F7C
:10207000FC12FF1F054A064B10781B78C0B2DBB27A
:10208000984238BF4030C01A704700BF7413FF1F1A
:102090007513FF1F30B42B4B1A7994061FD52A48AD
:1020A000DA790378294901333F2B0978C8BF002327
:1020B0008B42D2B203D0264CD9B2E2540170254AE9
:1020C000116861B1244A1278D2B2934236BFC2F18C
:1020D00040029B1A9B18272BC4BF01230B70194A7F
:1020E000D378DBB2180611D45A060DD5154B1B79DF
:1020F0005B0609D5194B1A491B6800220A7003B107
:102100001A70104B2C22DA7030BC70471179090616
:10211000EAD5144910480C780178C9B28C420DD028
:102120004A1C272A84BF00210A460F4D054C98BF40
:10213000D1B2AA5CD2B2E2710170D5E76C21D17044
:10214000D2E700BF00C006407413FF1F7513FF1FC6
:10215000A013FF1F7013FF1FE113FF1FE413FF1FE6
:10216000E013FF1FE813FF1F7813FF1F054A064BFC
:1021700010781B78C0B2DBB2984238BF4030C01A2A
:10218000704700BFF013FF1FF113FF1F30B42B4B3C
:102190001A7994061FD52A48DA7903782949013338
:1021A0003F2B0978C8BF00238B42D2B203D0264C04
:1021B000D9B2E2540170254A116861B1244A1278FB
:1021C000D2B2934236BFC2F140029B1A9B18272B12
:1021D000C4BF01230B70194AD378DBB2180611D49F
:1021E0005A060DD5154B1B795B0609D5194B1A49B3
:1021F0001B6800220A7003B11A70104B2C22DA708F
:1022000030BC704711790906EAD5144910480C789A
:102210000178C9B28C420DD04A1C272A84BF002104
:102220000A460F4D054C98BFD1B2AA5CD2B2E271FA
:102230000170D5E76C21D170D2E700BF00D0064015
:10224000F013FF1FF113FF1F1C14FF1FEC13FF1FE0
:102250005D14FF1F6014FF1F5C14FF1F6414FF1F39
:10226000F413FF1F054A064B10781B78C0B2DBB28F
:10227000984238BF4030C01A704700BF6C14FF1F2F
:102280006D14FF1F30B42C4B5A6894021FD52B4895
:10229000DA6803782A4901333F2B0978C8BF002345
:1022A0008B4204D0274CD2B2D9B2E2540170264AF4
:1022B000116861B1254A1278D2B2934236BFC2F199
:1022C00040029B1A9B18272BC4BF01230B701A4A8C
:1022D0009368180202D55268110211D45A020DD522
:1022E000154B5B685B0209D5194B1A491B68002224
:1022F0000A7003B11A70184B00221A6030BC704784
:10230000164A124910780A78D2B290420DD00132A2
:10231000272A84BF00200246114D074C98BFD0B237
:10232000AA5CD2B2E2600870D8E70E480A4A0024DC
:10233000012104601160D1E700400C406C14FF1FC4
:102340006D14FF1F9814FF1F6814FF1FD914FF1F7F
:10235000DC14FF1FD814FF1F58018843E014FF1F2F
:102360007014FF1F5C01884310B584B072B6FEF78D
:1023700015FB184A184B19491160702280211A70F8
:102380001A46197013781B06FCD5154B1C68FEF70E
:102390001FFB62B6134B9C429CBF04EB8404640099
:1023A0002046114C01A90A2200F02EF801A920466E
:1023B000002311F8012B01333AB10A2B20F8022F28
:1023C000F7D11623237004B010BD5B00DBB223707D
:1023D00004B010BD040002400000024000000741AC
:1023E0000C0002407F9698002C08FF1F704700BF2A
:1023F000704700BF704700BF704700BF704700BF05
:10240000704700BF704700BFF0B44D1E2E46002439
:1024100000E00134B0FBF2F302FB1300092800F1E5
:1024200030078ABF3730F8B2C0B206F8010F18463D
:10243000002BEED10A1953704CB1107815F8016FCA
:1024400028700133E01A834202F80169F5DB08467F
:10245000F0BC70470B460146184600F001B800BFBB
:1024600013460A460146022000F00CBB014B1868D7
:10247000704700BF700CFF1F70B50F4E0F4D761BDD
:10248000B61018BF002405D0013455F8043B984716
:10249000A642F9D10A4E0B4D761B00F00DFEB61088
:1024A00018BF002406D0013455F8043B9847A642D3
:1024B000F9D170BD70BD00BFC4300000C430000051
:1024C000D4300000C4300000024B0146186800F010
:1024D0000BB800BF700CFF1F024B0146186800F0DC
:1024E0008FBB00BF700CFF1F2DE9F04F01F10B05F2
:1024F000162D83B0064640F29F8035F0070500F1A7
:10250000BF80A94200F2BC8000F0A6FAB5F5FC7FBE
:10251000C0F09C826B0A00F0BA80042B00F2838129
:10252000A80900F1390E4FEA4E033830C44F07EBCB
:102530008303A3F108015C68A14207D1ACE0002A43
:1025400080F2AC80E468A14200F0A680636823F0CA
:1025500003035A1B0F2AF2DDB9493C6901F1080E49
:10256000744500F0B381636823F003035A1B0F2AFC
:1025700000F39981002AC1F814E0C1F810E080F25C
:102580009E80B3F5007F80F06781DB0803F1010CCA
:1025900001229B1002FA03F34A6851F83C80C4F808
:1025A000088001EBCC091A43A9F10803E3604A60F3
:1025B00041F83C40C8F80C40831001249C409442F0
:1025C00000F28A80144206D120F003006400144215
:1025D00000F10400FAD007EBC009CC468046DCF8D5
:1025E0000C108C4507D173E1002A80F28181C96803
:1025F0008C4500F06D814B6823F003035A1B0F2AB2
:10260000F2DD0C46D1F80CC054F8088F4B1945F098
:1026100001054D6042F00101C8F80CC03046CCF80D
:1026200008807B613B61C3F80CE0C3F808E05960A7
:102630009A5000F013FA1FE0102921D800F00CFA8C
:102640001025062302207E4F07EB8303A3F1080227
:102650005C68944200F045816368E168A56823F0F6
:102660000303234430465A68E96042F001028D605A
:102670005A6000F0F3F90834204603B0BDE8F08F4B
:1026800000240C232046336003B0BDE8F08F802384
:102690004FF0400E3F2049E770465DE72344E16874
:1026A0005A68A56842F00102E96030468D605A60C0
:1026B00000F0D4F90834204603B0BDE8F08F23447D
:1026C00030465A6842F001025A6000F0C7F90834F7
:1026D000204603B0BDE8F08FBC68636823F00308B0
:1026E000A84504D3C5EB08030F2B00F38C80554B92
:1026F000DFF860911A68D9F8003001332A4404EBFE
:10270000080A00F0608102F580520F3222F47F62E5
:1027100022F00F0211463046019200F0A1F9B0F10B
:10272000FF3F8346019A00F05881824500F2FC8009
:10273000454B1968DA451144196000F05381D9F806
:102740000000DFF810E101301BBFCAEB0B0A514457
:10275000CEF800B019601BF0070100F01781C1F13D
:102760000800C1F58051834408315A44C2F30B027A
:10277000C2EB010949463046019300F071F9431C50
:10278000019B00F03F81CBEB00024A4442F0010282
:102790001968C7F808B04944BC42CBF80420196056
:1027A000DFF8A49016D0B8F10F0F40F2FD806268F8
:1027B000A8F10C0323F00703E01802F001024FF028
:1027C000050E1A430F2B6260C0F804E0C0F808E061
:1027D00000F21C811D4BBC681A68914288BF1960C9
:1027E0001B4B1A689142626888BF196022F003028D
:1027F0009542A2EB050301D80F2B04DC304600F014
:102800002DF9002438E7621943F0010345F0010572
:1028100065603046BA60536000F020F90834204605
:1028200003B0BDE8F08F142B71D9542B00F2A480B3
:10283000280B00F16F0E4FEA4E036E3076E600BFB4
:10284000740CFF1FEC14FF1FF014FF1FE814FF1F90
:10285000E414FF1F8010FF1F5A0A042A5ED9142AAD
:1028600000F2B38002F15C0149005B3207EB810C9E
:1028700057F82110DFF8DC81ACF1080C8C4500F032
:1028800088804A6822F00302934202D289688C450C
:10289000F7D1D1F80CC07A68C4F80CC0A160CCF8AC
:1028A0000840CC6088E6631942F0010745F0010555
:1028B000656030464B610B61C3F80CE0C3F808E07B
:1028C0005F609A50083400F0C9F8D5E64A6873E6AC
:1028D00008F1010818F0030F0CF1080C7FF47FAE2B
:1028E00030E0DC68A34208BF02303FF435AEB3E607
:1028F0000B440C465A68C96854F8085F42F001025C
:102900005A603046E9608D6000F0A8F8B4E603F143
:102910005C0E03F15B004FEA4E0307E69A0902F1F1
:10292000390149003832A1E7BC424A4B3FF400AFBD
:102930009C68626822F003025AE759F80839994501
:1029400040F0828010F0030F00F1FF30F5D17B687A
:1029500023EA04037B6064009C423FF6BDAE002C7A
:102960003FF4BAAE1C4240467FF435AE64001C42D0
:1029700000F10400FAD02EE6B3F5AA7F18D8E80BD0
:1029800000F1780E4FEA4E037730CFE54FF48051D7
:10299000EBE60121D8F80430921001FA02F21A4352
:1029A000C8F80420614677E70123CBF8043025E717
:1029B00040F25452934220D8A80C00F17D0E4FEA09
:1029C0004E037C30B2E51032A4E6542A26D81A0B06
:1029D00002F16F0149006E3248E7BC68626822F07C
:1029E000030205E7CAF30B0000287FF4A8AE4244B7
:1029F000BB6842F001025A60ECE6FE234FF07F0E06
:102A00007E2093E501224FF00009C1E604F10801A0
:102A1000304600F0F5F8D9F80010DBE6B2F5AA7FF1
:102A200005D8DA0B02F17801490077321EE740F24F
:102A300054518A4205D89A0C02F17D0149007C323A
:102A400014E7FE217E2211E77B6884E7E808431C37
:102A50005B00F8E5740CFF1F704700BF704700BFB4
:102A600038B5074C0023054608462360FDF776FF7E
:102A7000431C00D038BD2368002BFBD02B6038BD31
:102A80002015FF1F2DE9F047254C2568D5F8484152
:102A90000646884692469946C4B360681F2817DCEC
:102AA000431C76B104EB80050122C5F888A0D4F858
:102AB000881182401143022EC4F88811C5F808918C
:102AC0001ED00230636044F820800020BDE8F0870B
:102AD000144B03B34FF4C870FFF7F6FC0446D0B1B3
:102AE000D5F84831002780E88800C5F848413846C5
:102AF0000123C4F88871C4F88C71002EE1D0D1E7AD
:102B0000D4F88C110A43C4F88C21DAE705F5A674D1
:102B1000C5F84841C1E74FF0FF30BDE8F08700BF7E
:102B2000B4300000C9240000024B13B10248FDF785
:102B3000C3BD7047000000003D2B000038B5074DB5
:102B4000074C2C1BA41005D0013C55F8043D9847B8
:102B5000002CF9D1BDE8384000F0BCBA00000000FC
:102B600000000000F8B5234F0C460646FFF774FF3F
:102B7000BB685D6825F00305291B01F6EF7121F4A0
:102B80007F6121F00F01A1F58054B4F5805F07DB70
:102B900000213046FFF764FFBB682B44984204D005
:102BA0003046FFF75BFF0020F8BD61423046FFF77B
:102BB00057FF01300DD0104BBA6819682D1B45F036
:102BC00001053046091B55601960FFF747FF0120DA
:102BD000F8BD00213046FFF743FFBA68831A0F2B78
:102BE000DEDD064C0449246843F00103001B5360FA
:102BF0000860D5E7740CFF1FF014FF1F8010FF1F43
:102C0000002945D02DE9F0410D468046FFF724FF0D
:102C100055F8047C6A4927F00103A5F10804E2187D
:102C20008E685068B24220F0030062D0FE07506008
:102C30000BD455F8087CE41B01F1080EA568754516
:102C40003B446FD0E768EF60BD6015186D68ED0715
:102C500042D543F001026260E350B3F5007F18D221
:102C6000DB085A1C4D6851F83270A76001209B1098
:102C700000FA03F301EBC2001D430838E0604D6029
:102C800041F83240FC604046BDE8F041FFF7E6BE47
:102C900070475A0A042A53D89A0902F139077F006B
:102CA00002F1380501EB870051F827204449083824
:102CB00090424DD0516821F003018B4202D29268BC
:102CC0009042F7D1D068E060A2608460D460404652
:102CD000BDE8F041FFF7C2BE95683A4FBD420344DC
:102CE0003FD0D068E86043F0010285606260E35045
:102CF000B3E7FF07034407D455F8082CA41A13447C
:102D0000A068E268C26090602F4A126843F0010038
:102D1000934260608C60B6D32C4B40461968FFF735
:102D200021FFB0E711184968C90744D49168D268F7
:102D3000CA60034443F0010091606060E350A2E781
:102D4000142A17D802F15C077F0002F15B05A9E79E
:102D5000AA104B68012505FA02F213434B600246A4
:102D6000B1E743F001024C610C61E560A56062606F
:102D7000E35088E7542A06D81A0B02F16F077F0048
:102D800002F16E058EE7B2F5AA7F06D8DA0B02F1E2
:102D900078077F0002F1770584E740F254508242C1
:102DA00006D89A0C02F17D077F0002F17C0579E7D5
:102DB000FE277E2576E743F001026260E35062E77A
:102DC000740CFF1F7C0CFF1F7C10FF1FEC14FF1FF7
:102DD000BF40F7003FC0F700DF20F7005FA0F7001B
:102DE0009F60F7001FE0F700FF00F7007F80F7000B
:102DF000EF10F700CF30F700F708F7006F90F700FB
:102E00004FB0F7007788F70057A8F700AF50F700EA
:102E10008F70F700A758F7009768F7002FD0F700DA
:102E20000FF0F70037C8F70017E8F7004008FE4337
:102E300040A004404408FE4344A004400018FE4360
:102E400000C004403000FE43309004403400FE4394
:102E5000349004401C18FE431CC004401018FE436C
:102E600010C004400818FE4308C004400C18FE437C
:102E70000CC004400C10FE430CB004401010FE4384
:102E800010B004401810FE4318B004401C10FE435C
:102E90001CB004401410FE4314B004400418FE4358
:102EA00004C004400010FE4300B004400008FE438C
:102EB00000A004400408FE4304A004400C08FE43A4
:102EC0000CA004400808FE4308A004401418FE4368
:102ED00014C004401818FE4318C004400410FE43F8
:102EE00004B004400810FE4308B004406820FE43CC
:102EF00068D004401400FE43149004403800FE43A0
:102F0000389004403C00FE433C9004404000FE43A7
:102F1000409004404808FE4348A004404C08FE434B
:102F20004CA004402808FE4328A004402C08FE437F
:102F30002CA004406020FE4360D004406420FE4387
:102F400064D004402010FE4320B004402410FE430F
:102F500024B004402810FE4328B004402C10FE4347
:102F60002CB004404400FE43449004407000FE43F3
:102F7000709004407400FE43749004406800FE4367
:102F8000689004405008FE4350A004405808FE4397
:102F900058A004405C08FE435CA004405408FE4373
:102FA00054A004402018FE4320C004402418FE43CF
:102FB00024C004401008FE4310A004401408FE433F
:102FC00014A004403818FE4338C004403418FE43AF
:102FD00034C004403018FE4330C004403C18FE4367
:102FE0003CC004402C18FE432CC004402820FE4363
:102FF00028D004402C20FE432CD004400020FE4367
:1030000000D004400420FE4304D004400820FE43C6
:1030100008D004400C20FE430CD004401020FE4396
:1030200010D004401420FE4314D004401519151983
:10303000000100004807FF1F12000000000200000E
:103040007407FF1F4900000000220100C007FF1F96
:103050002100000000210100A607FF1F0900000059
:1030600000220000E407FF1F1C00000000210000F8
:103070008607FF1F09000000000300002808FF1F4B
:1030800000000000010309045C07FF1F00000000AE
:10309000020309040008FF1F0000000003030904E5
:1030A0002C08FF1F000000000000000000000000CE
:1030B000000000004808FF1FF8B500BFF8BC08BCBE
:1030C0009E467047292B0000350400009106000041
:0430D000BD06000039
:0430D400F8B500BF8C
:1030D8000000000001000000D02D00002415FF1F93
:1030E800FFFFFFFF0A04000012011001000000406A
:1030F800C016860477020102030100001803540079
:10310800650065006E007300790064007500690051
:103118006E006F0009024900020100C03209040074
:10312800000203000000092111010001221C000710
:103138000583034000010705040340000109040159
:1031480000020300000009211101000122210007EB
:10315800058103400001070502032000020000006A
:1031680006C9FF0904A15C7508150026FF009540F3
:103178000975810295200976910295040976B102B4
:10318800C000000006ABFF0A0002A1017508150087
:1031980026FF00954009018102954009029102C06D
:1031A80026035400650065006E0073007900640012
:1031B800750069006E006F00200052006100770002
:1031C8004800490044000000040309040C030000FF
:1031D80000000000000000000000000000000000E7
:1031E800000000000000000000000000340BFF1F7A
:1031F8009C0BFF1F040CFF1F0000000000000000D4
:1032080000000000000000000000000000000000B6
:1032180000000000000000000000000000000000A6
:103228000000000000000000000000000000000096
:103238000000000000000000000000000000000086
:103248000000000000000000000000000000000076
:103258000000000000000000000000000000000066
:103268000000000000000000000000000000000056
:103278000000000000000000000000000000000046
:103288000000000000000000000000000000000036
:1032980001000000000000000E33CDAB34126DE6D3
:1032A800ECDE05000B00000000000000000000003C
:1032B8000000000000000000000000000000000006
:1032C80000000000000000000000000000000000F6
:1032D80000000000000000000000000000000000E6
:1032E80000000000000000000000000000000000D6
:103618004808FF1F0000000000000000740CFF1F96
:10362800740CFF1F7C0CFF1F7C0CFF1F840CFF1FFA
:10363800840CFF1F8C0CFF1F8C0CFF1F940CFF1FAA
:10364800940CFF1F9C0CFF1F9C0CFF1FA40CFF1F5A
:10365800A40CFF1FAC0CFF1FAC0CFF1FB40CFF1F0A
:10366800B40CFF1FBC0CFF1FBC0CFF1FC40CFF1FBA
:10367800C40CFF1FCC0CFF1FCC0CFF1FD40CFF1F6A
:10368800D40CFF1FDC0CFF1FDC0CFF1FE40CFF1F1A
:10369800E40CFF1FEC0CFF1FEC0CFF1FF40CFF1FCA
:1036A800F40CFF1FFC0CFF1FFC0CFF1F040DFF1F79
:1036B800040DFF1F0C0DFF1F0C0DFF1F140DFF1F26
:1036C800140DFF1F1C0DFF1F1C0DFF1F240DFF1FD6
:1036D800240DFF1F2C0DFF1F2C0DFF1F340DFF1F86
:1036E800340DFF1F3C0DFF1F3C0DFF1F440DFF1F36
:1036F800440DFF1F4C0DFF1F4C0DFF1F540DFF1FE6
:10370800540DFF1F5C0DFF1F5C0DFF1F640DFF1F95
:10371800640DFF1F6C0DFF1F6C0DFF1F740DFF1F45
:10372800740DFF1F7C0DFF1F7C0DFF1F840DFF1FF5
:10373800840DFF1F8C0DFF1F8C0DFF1F940DFF1FA5
:10374800940DFF1F9C0DFF1F9C0DFF1FA40DFF1F55
:10375800A40DFF1FAC0DFF1FAC0DFF1FB40DFF1F05
:10376800B40DFF1FBC0DFF1FBC0DFF1FC40DFF1FB5
:10377800C40DFF1FCC0DFF1FCC0DFF1FD40DFF1F65
:10378800D40DFF1FDC0DFF1FDC0DFF1FE40DFF1F15
:10379800E40DFF1FEC0DFF1FEC0DFF1FF40DFF1FC5
:1037A800F40DFF1FFC0DFF1FFC0DFF1F040EFF1F74
:1037B800040EFF1F0C0EFF1F0C0EFF1F140EFF1F21
:1037C800140EFF1F1C0EFF1F1C0EFF1F240EFF1FD1
:1037D800240EFF1F2C0EFF1F2C0EFF1F340EFF1F81
:1037E800340EFF1F3C0EFF1F3C0EFF1F440EFF1F31
:1037F800440EFF1F4C0EFF1F4C0EFF1F540EFF1FE1
:10380800540EFF1F5C0EFF1F5C0EFF1F640EFF1F90
:10381800640EFF1F6C0EFF1F6C0EFF1F740EFF1F40
:10382800740EFF1F7C0EFF1F7C0EFF1F840EFF1FF0
:10383800840EFF1F8C0EFF1F8C0EFF1F940EFF1FA0
:10384800940EFF1F9C0EFF1F9C0EFF1FA40EFF1F50
:10385800A40EFF1FAC0EFF1FAC0EFF1FB40EFF1F00
:10386800B40EFF1FBC0EFF1FBC0EFF1FC40EFF1FB0
:10387800C40EFF1FCC0EFF1FCC0EFF1FD40EFF1F60
:10388800D40EFF1FDC0EFF1FDC0EFF1FE40EFF1F10
:10389800E40EFF1FEC0EFF1FEC0EFF1FF40EFF1FC0
:1038A800F40EFF1FFC0EFF1FFC0EFF1F040FFF1F6F
:1038B800040FFF1F0C0FFF1F0C0FFF1F140FFF1F1C
:1038C800140FFF1F1C0FFF1F1C0FFF1F240FFF1FCC
:1038D800240FFF1F2C0FFF1F2C0FFF1F340FFF1F7C
:1038E800340FFF1F3C0FFF1F3C0FFF1F440FFF1F2C
:1038F800440FFF1F4C0FFF1F4C0FFF1F540FFF1FDC
:10390800540FFF1F5C0FFF1F5C0FFF1F640FFF1F8B
:10391800640FFF1F6C0FFF1F6C0FFF1F740FFF1F3B
:10392800740FFF1F7C0FFF1F7C0FFF1F840FFF1FEB
:10393800840FFF1F8C0FFF1F8C0FFF1F940FFF1F9B
:10394800940FFF1F9C0FFF1F9C0FFF1FA40FFF1F4B
:10395800A40FFF1FAC0FFF1FAC0FFF1FB40FFF1FFB
:10396800B40FFF1FBC0FFF1FBC0FFF1FC40FFF1FAB
:10397800C40FFF1FCC0FFF1FCC0FFF1FD40FFF1F5B
:10398800D40FFF1FDC0FFF1FDC0FFF1FE40FFF1F0B
:10399800E40FFF1FEC0FFF1FEC0FFF1FF40FFF1FBB
:1039A800F40FFF1FFC0FFF1FFC0FFF1F0410FF1F6A
:1039B8000410FF1F0C10FF1F0C10FF1F1410FF1F17
:1039C8001410FF1F1C10FF1F1C10FF1F2410FF1FC7
:1039D8002410FF1F2C10FF1F2C10FF1F3410FF1F77
:1039E8003410FF1F3C10FF1F3C10FF1F4410FF1F27
:1039F8004410FF1F4C10FF1F4C10FF1F5410FF1FD7
:103A08005410FF1F5C10FF1F5C10FF1F6410FF1F86
:103A18006410FF1F6C10FF1F6C10FF1F00000200D6
:043A2800FFFFFFFF9E
:00000001FF
