:1000000000000320D1010000852000003D200000F9
:100010003D2000003D2000003D2000003D2000006C
:100020003D2000003D2000003D2000008520000014
:10003000852000003D200000D1310000D5320000B5
:10004000852000008520000085200000852000001C
:10005000852000008520000085200000852000000C
:1000600085200000852000008520000085200000FC
:1000700085200000852000008520000085200000EC
:1000800085200000852000008520000085200000DC
:1000900085200000852000008520000085200000CC
:1000A00085200000852000008520000085200000BC
:1000B000852000008520000085200000C13400005C
:1000C00085200000ED350000852000001937000074
:1000D00085200000113800008520000085200000E8
:1000E000852000008520000085200000852000007C
:1000F000852000008520000085200000852000006C
:10010000852000008520000085200000852000005B
:1001100085200000DD2600008520000085200000ED
:10012000852000008520000085200000852000003B
:10013000852000008520000085200000852000002B
:100140008520000085200000C124000085200000DB
:10015000852000008520000085200000852000000B
:1001600085200000852000008520000085200000FB
:1001700085200000852000008520000085200000EB
:1001800085200000852000008520000085200000DB
:10019000852000008520000009390000852000002E
:1001A00085200000852000008520000085200000BB
:1001B00085200000852000008520000085200000AB
:1001C000852000008520000085200000852000009B
:1001D0005C4B4CF2205210B51A804DF628121A8052
:1001E00000BF00BF01F052FF574B4FF030621A6062
:1001F000564A9A60564ADA60564B4FF470021A60BB
:10020000554B564A1A60564A136813F4807304D14A
:1002100054490B604FF4A8531360534B1A781107DD
:1002200003D51A7842F008021A70504B5049AA229E
:100230001A70504A504B8B4204D252F8040F43F8C4
:10024000040BF8E74D4B4E4900228B4202D243F893
:10025000042BFAE74B494C4A002352F8230041F89B
:1002600023000133742BF8D1484B494A802103F80D
:10027000011B9342FBD1474B424A1A60464B8A22EC
:100280001A70A3F5805324225A70A0221A709A790A
:100290009207FCD59A79D406FCD4404A937903F0AE
:1002A0000C03082BFAD13E4B60221A7002331A78E5
:1002B000802AFCD1394B01221A715D225A719A7938
:1002C0009006FCD59979354A4906FBD5354B364918
:1002D00019600021596020231370937903F00C03F7
:1002E0000C2BFAD1314B324A1A60324B324A1A6027
:1002F00000225A60072243F8042C304AC3F80C2D20
:1003000062B602F017F8174B1B68DA0705D52C48C0
:1003100001F07CFF2B4B2C4A1A602C4B1B785B06A0
:1003200009D5284C284B22689A4204D1244801F070
:100330006DFF0023236003F0E1FB01F0ADFE02F04E
:10034000D1FFFEE70E20054030800440823F0400CC
:100350000100002B88ED00E0002008E0030000858C
:1003600010D0034014D0034002D0074000E0074003
:10037000E410FF1F584A00003007FF1FE410FF1F62
:10038000B42EFF1F0002FF1F0000000000E400E089
:1003900064E400E008ED00E0005006400040064044
:1003A00001E007404480044000000602048004404D
:1003B000C010070014E000E01FBF02000000202072
:1003C000658C805B1CE00340A5C3945A00F0074095
:1003D000FFFFFFFFFFFFFFFFFFFFFFFFFFFFFFFF2D
:1003E000FFFFFFFFFFFFFFFFFFFFFFFFFFFFFFFF1D
:1003F000FFFFFFFFFFFFFFFFFFFFFFFFFFFFFFFF0D
:10040000FFFFFFFFFFFFFFFFFFFFFFFFDEF9FFFF23
:1004100010B5054C237833B9044B13B10448AFF33E
:1004200000800123237010BDE410FF1F00000000B6
:100430005C4A0000084B10B51BB108490848AFF3EF
:1004400000800848036803B910BD074B002BFBD0A0
:10045000BDE81040184700BF00000000E810FF1F73
:100460005C4A0000E410FF1F000000004069704774
:10047000002070474069C000704700BF4FF4C8704B
:10048000704700BF10B501210446052001F0D6FEDB
:100490000121152001F0D2FE0121142001F0CEFE31
:1004A0000121062001F0CAFE0121082001F0C6FE4C
:1004B0000121072001F0C2FE01210E2001F0BEFE45
:1004C0000121022001F0BAFE0122024BA261E36188
:1004D00010BD00BFC0F00F402DE9F04F91B088462D
:1004E0000990044601F0B0FE238CC01A83B2272B7A
:1004F000F8D9BE49BE4A0B68D8F80040BD4843F061
:1005000080730B601368002143F0010313604546BC
:1005100001602B4698F8135098F80D601433079338
:1005200001351A460DF1270108F1340052F8043F55
:1005300023445B7833B183FA56F3DBB205FB03F354
:10054000C3F30723824201F8013FEFD172B6A94BF2
:10055000D8F808201968002A01F1E80A40F33A8225
:10056000DFF898E21F469B46FF26C14672B63B68FD
:10057000A04A534507D93B6841F69C01CAEB0303E7
:100580008B4200F2308299F80D4003940A9B99F84F
:100590000E400B9A069499F81000D9F8004002908A
:1005A000019482EAD21083EAD31404F0AA1400F072
:1005B000AA106340424083EAC41382EAC01299F849
:1005C000115099F812C004954CF6CC4482EA923549
:1005D000CDF820C0204683EA933C0CEA040428406E
:1005E0006340424083EA843382EA803299F80C8087
:1005F00099F80F1002984FEA131C15010CF00F3CEC
:1006000003F00F3305F0F03502F0F0324CEA02024D
:10061000C8EB010143EA050C039B049D0E92C9B28D
:100620000C460591C11A069BCDF834C0E81A89F82A
:100630000E00089889F80C40421C0DF12B0509F1B9
:1006400024030692079802950AAA04929046AC46A3
:10065000039389F80D101D460FAC00223B685345EB
:10066000FCD3DBF80030644903F1E50A0E603B6817
:10067000C3EB0A03BC2BFAD814F8013DDB43DBB211
:10068000CEF800303B68C3EB0A03742BFAD850F85D
:10069000043F0199CEF80060CB5C4BB19DF814107B
:1006A00083FA51F30699DBB201FB03F3C3F307238B
:1006B00055F8041F08F8013B019B5B5C4BB19DF8AA
:1006C000141083FA51F30699DBB201FB03F3C3F371
:1006D00007230132042A0CF8013FBFD10EAA3B6860
:1006E0005345FCD3DBF80030434903F1E50A0E60C3
:1006F0003B68C3EB0A03BC2BFAD812F8013DDB437D
:10070000DBB2CEF800303B68C3EB0A03742BFAD897
:100710000DAB9342CEF80060E1D10A9B0B9A99F899
:100720000E10059183EAD31082EAD21100F0AA10CC
:1007300001F0AA1143404A4083EAC01382EAC11281
:100740004CF6CC4082EA92340146214083EA93354C
:1007500028404A4082EA8132434083EA80331401D0
:1007600099F814C01D0904F0F03403F00F3323434B
:1007700005F00F3502F0F0322A430D93039D029CE1
:100780000E920CF10103DDF81CC006930AA80DF1CE
:100790003C0800213B685345FCD3DBF80030164A87
:1007A00003F1E50A16603B68C3EB0A03BC2BFAD8D9
:1007B00018F8013DDB43DBB2CEF800303B68C3EBF9
:1007C0000A03742BFAD85CF8043F019ACEF8006053
:1007D00013449B78A3B19DF8142083FA52F3069A30
:1007E000DBB202FB03F3C3F3072309E0FCED00E0F7
:1007F000001000E0041000E0C4F00F40C8F00F400B
:1008000055F8042F00F8013B019B13449B784BB132
:100810009DF8142083FA52F3069ADBB202FB03F32D
:10082000C3F307230131042904F8013FB2D10EAA12
:100830003B685345FCD3DBF800306C4903F1E50A13
:100840000E603B68C3EB0A03BC2BFAD812F8013DDB
:10085000DB43DBB2CEF800303B68C3EB0A03742BFA
:10086000FAD80DAB9342CEF80060E1D10A9A0B9B07
:1008700099F91500DDF81C8082EAD21483EAD311BD
:1008800004F0AA1C01F0AA1582EA0C0282EACC1438
:100890006B4083EAC51184EA94334CF6CC451D4085
:1008A00081EA91324CF6CC431340594084EA050268
:1008B00081EA833382EA85321D014FEA121C05F07A
:1008C000F03502F00F322A43019DD9F8081099F84B
:1008D00013400D920CF00F3C054403F0F0334CEA4A
:1008E000030328460139013499F80DC0C9F80810EE
:1008F0000E930FADC9F80000002101943B685345E9
:10090000FCD3DBF80030394A019C166003F1E50A9C
:100910003B68C3EB0A03BC2BFAD815F8013D0194E0
:10092000DB43DBB2019CCEF800303B68C3EB0A032B
:10093000742BFAD858F8043F01940344CEF80060B1
:100940005B783BB183FA5CF3019ADBB202FB03F301
:10095000C3F30723039A52F8044F0392049A02F850
:10096000013B2346034404925B783BB183FA5CF37A
:10097000019ADBB202FB03F3C3F30723029A0131AE
:1009800002F8013F04290292B8D10EAA3B685345F0
:10099000FCD3DBF80030154903F1E50A0E603B6833
:1009A000C3EB0A03BC2BFAD812F8013DDB43DBB2E0
:1009B000CEF800303B68C3EB0A03742BFAD80DABBA
:1009C0009342CEF80060E1D162B6D9F80830002B2E
:1009D0003FF7CCAD064B1B6801F036FC099B188431
:1009E00011B0BDE8F08F62B61368F5E7C4F00F40B0
:1009F000041000E02DE9F043002983B020DD01EB75
:100A00004101104F0546461800244FF0C0094FF031
:100A1000FF083B788DF805902344294601A803354B
:100A20008DF806808DF80430203401F0FBF9B542D2
:100A3000E4B2EED13B7801333B7003B0BDE8F08304
:100A4000004FF7E7D829FF1F2DE9F047CB1D82B0F3
:100A500023F00703002900AFADEB030D6E4601F153
:100A6000FF34DFF8408140F3998040F2262EB8F839
:100A700000309EFBF1FE0EF1020E5FFA8EFE6D4617
:100A80000DEB010C03EB432203EB820303F55853F8
:100A900019339BB203EB132295F80090D2B212FBEC
:100AA0000EF2A9EB122222EAE27205F8012B65454B
:100AB000E8D1A8F80030012C0FDD8A1EDFF8E8E04D
:100AC0003244157812F801CD05EB4C058EFB059CE0
:100AD000ACEBE57596429570F3D103EB432203EB43
:100AE000820303F5585319339BB203EB1325EDB280
:100AF000772DA8F800302B4A28D803EB432503EBC9
:100B0000850303F5585319339BB203EB432E03EBD4
:100B10008E0E0EF5585E0EF1190E03EB13231FFA1D
:100B20008EFEDBB20EEB1E25C3EBC303EDB21B1230
:100B300005EB450CC5EB4C1516F803C0A2F800E018
:100B40002A12603A654685FA52F5F554002921DDEE
:100B500082468946DFF85480013E00250FE0631B82
:100B600003EB43030AEB0302013597F804E07879BD
:100B7000B9790AF803E0A945507091700AD016F8C7
:100B8000011F381D01F0CCF898F80030002BE6D199
:100B90002B46E5E70837BD46BDE8F087B8F80030DA
:100BA00089E700BF9407FF1F56555555ED29FF1FD4
:100BB000024A0723127801F06DB800BFEE29FF1F2B
:100BC000F0B58CB283B021460A22054601F0A6F8A2
:100BD0001F4A20491388087803EB432143F2196622
:100BE00003EB8101314489B201EB412301EB830323
:100BF00033449BB201FB04F403EB1326240C04EBF7
:100C00004404C6F3850606444FF0C80E01A9FF2729
:100C1000684613808DF800608DF801E08DF8027051
:100C200001F000F92B5D9DF80420291983FA52F395
:100C30002B559DF805304A7882FA53F24A708B782A
:100C40009DF8062083FA52F38B7003B0F0BD00BF0D
:100C50009407FF1FEE29FF1F10B50446006808B176
:100C600002F04AFB204610BD2DE9F043324C91B012
:100C700004AB10AD54F8042F9A70160C120A1E70B3
:100C80005A700333AB42F5D12C4A2D4B12680392B4
:100C9000039C03FB04F4240EE3B25D0647D5DB435B
:100CA000DAB202F00F03013302F03F02254D1211B8
:100CB0005200AE18AA5C757815FB03F302EB231300
:100CC000DBB2220648BF5B425BB2803BDBB203EB88
:100CD0004306B61040360029F6B225DD01EB41018E
:100CE000DFF864900546471800244FF0010899F892
:100CF0000020CDF80080B11A04EB840322440B4499
:100D0000D2B2DBB204A902A801F02CF89DF80810B9
:100D10009DF809209DF80A3029706A70AB70033580
:100D20000234AF42E4B2E2D111B0BDE8F08303F087
:100D30003F0203F00F03B9E750460000582AFF1F97
:100D400000D0430074450000EE29FF1F70B58CB23F
:100D500084B021461422054600F0E0FF264B1B68B4
:100D600003930398C0EBC00000EB8010013CC0F37C
:100D70004F10A1B24404C0F3CA0303D5C3F5FF6307
:100D800007339BB21A0A1D4E1D4CB65C34F8124054
:100D9000C3F3460206FB02439BB2020448BF5B4218
:100DA0001BB2A3F500439CB201FB0444154B240C79
:100DB00004EB44041B788DF80430FF22C02302A901
:100DC00001A88DF805208DF8063001F02BF82B5D79
:100DD0009DF80820291983FA52F32B559DF8093004
:100DE0004A7882FA53F24A708B789DF80A2083FA87
:100DF00052F38B7004B070BD582AFF1F8C45000061
:100E00007C450000EE29FF1F2DE9F04F8CB22146F2
:100E100085B014228346013C00F080FFA4B2DFF8C5
:100E2000CCA001344FF000084FF48C77C826FF2582
:100E3000DAF800300393039908F10700000207FB7A
:100E400001F381B203FB01F1090C4FEA481E48048B
:100E5000C1F3CA035FFA8EFE03D5C3F5FF63073300
:100E60009BB24FEA132CC3F346001E4A1E4B8DF86B
:100E700004E013F80C3032F81CC08DF8056003FB59
:100E800000C30A049BB248BF5B421BB2A3F50043F8
:100E90009BB204FB03F31B0C03EB430902A901A85B
:100EA0008DF8065000F0BEFF1BF809E09DF8080021
:100EB0009DF80930864538BF0BF809000BEB090196
:100EC00008F101084878984238BF4B7088789DF83F
:100ED0000A30984238BF8B70B8F1080FA8D105B01E
:100EE000BDE8F08F7C4500008C450000582AFF1FAC
:100EF000F0B591B0002305688DF800308DF8013011
:100F00008DF802302E683A4A8DF8043096428DF8FA
:100F100005308DF8063064D1827C0391012A0446A5
:100F200004918DF81A308DF81B308DF81C30CDF8F7
:100F300008D01AD08DF819308DF818308DF8173088
:100F40008DF816308DF815308DF8143000228DF89C
:100F50001D2007AB0FA943F8042F9942FBD1AB69C1
:100F6000204602A9984711B0F0BD224A13780133F8
:100F700003F0070313F0010F14BF80210021137049
:100F80009A0744BF41F04001C9B25B0748BF41F036
:100F9000200110310022C9B20DF117030DF11A071B
:100FA0004FF4807EAAB19EFBF2F2D2B2501CC0B2C6
:100FB00000FB01152D121870EEB205B1013E03F8C9
:100FC000036C00B11A7001339F4208D0DA78002A0E
:100FD000E9D11A7003F8032C01339F42F6D125683A
:100FE000B4E70A4601AB6946B04711B0F0BD00BF97
:100FF000D11000000011FF1FF0B5857C1C785E78D1
:101000009B788FB0012D8DE8060002928DF812407A
:101010008DF813608DF8143020D000238DF8113036
:101020008DF810308DF80F308DF80E308DF80D30B2
:101030008DF80C30032100238DF8151002EB4202CD
:10104000194605AC0131082944F8043F1344F9D18D
:10105000036869469B6998470FB0F0BD1B490B7840
:10106000013303F0070313F0010F0B7014BF80214D
:1010700000219D0744BF41F04001C9B25B0748BF52
:1010800041F020011031C9B20DF10F030DF1120E24
:101090004FF4807CACB19CFBF4F4E4B2651CEDB27F
:1010A00005FB011636121D70F7B206B1013F03F8B9
:1010B000037C05B11C7001337345BBD0DC78002C78
:1010C000E9D11C7003F8034CF5E700BF0011FF1FC6
:1010D000F0B5857C1C785E789B788FB0012D8DE80B
:1010E000060002928DF812408DF813608DF81430CE
:1010F0001BD000238DF811308DF810308DF80F3093
:101100008DF80E308DF80D308DF80C3000228DF8F2
:10111000152005AB0DA943F8042F8B42FBD10368C2
:1011200069469B6998470FB0F0BD1B4A137801339D
:1011300003F0070313F0010F137014BF8022002285
:10114000990744BF42F04002D2B25B0748BF42F069
:1011500020021032D2B20DF10F030DF112074FF43D
:10116000807EACB19EFBF4F4E4B2611CC9B201FB19
:1011700002252D121970EEB205B1013E03F8036C81
:1011800001B11C7001339F42C0D0DC78002CE9D142
:101190001C7003F8034CF5E70011FF1F70B5012127
:1011A000202001F04BF80021202001F041F82420FC
:1011B00002F0A0F824220021044602F08FFF1C4A0E
:1011C0001C4B116823600120FF23A07423736373F9
:1011D000A373E3732374637439B3174A136803B1B9
:1011E0009C600025154E14602B462584144926600A
:1011F00020464FF4847200F063FC124B1249B02475
:10120000FF25F02244730573827303F1300451F813
:10121000042F9A70100C120A18705A700333A342EC
:10122000F5D10A4B01221A7070BD1460D5E700BFDA
:10123000442AFF1FF8440000542AFF1F18450000ED
:101240000811FF1FF029FF1F90450000EC29FF1F28
:1012500000291FDDF0B501EB41010F4F85B01546A8
:10126000044646183B7800932A46FF230B4903A8FF
:1012700000F078FD9DF80C109DF80D209DF80E30C3
:1012800021706270A37003340335B442EDB2E9D12A
:1012900005B0F0BD704700BFEC29FF1FF029FF1F0C
:1012A000F0B5154E154F83B006F13005FF243B888D
:1012B0008DF8054003EB432203EB820303F55853FB
:1012C00019339BB203EB432203EB820202F558521F
:1012D000193292B202EB122E03EB1323314601A80E
:1012E00003363A808DF806E08DF8043000F09AFD60
:1012F000B542DCD103B0F0BDF029FF1F9407FF1FFA
:1013000010B5104C82B00023204601AA10218DF8A0
:1013100004308DF805308DF8063000F0ABFCFF236B
:1013200023706370A37023736373A3732376637650
:10133000A37684F8243084F8253084F8263002B06F
:1013400010BD00BFF029FF1FF0B58FB0FF2402A829
:10135000C02369468DF808308DF809408DF80A40A1
:1013600000F060FD02A8602301A98DF809408DF806
:101370000A408DF8083000F055FD00239DF800006C
:101380009DF801109DF802209DF804709DF80560FD
:101390009DF806508DF80A508DF80D508DF80E30DE
:1013A0008DF80F308DF810308DF811308DF8123027
:1013B0008DF813308DF81A308DF81B308DF81C30F5
:1013C0008DF81D308DF81E308DF81F308DF814000B
:1013D0008DF817008DF815108DF818108DF816205F
:1013E0008DF819208DF8087002AC8DF80B708DF80F
:1013F00020708DF809608DF80C608DF821608DF8F3
:1014000022508DF825508DF823708DF824608DF8CA
:1014100026308DF827308DF828308DF829308DF85A
:101420002A308DF82B308DF82C008DF82D108DF88A
:101430002E208DF82F008DF830108DF831208DF88A
:1014400032308DF833308DF834308DF835308DF8FA
:1014500036308DF837300FCC044D0FC50FCC0FC58B
:1014600094E80F0085E80F000FB0F0BDF029FF1FD2
:10147000083838B50D2808D8DFE800F01A293847B1
:101480004D50565C6B7A8EA2B10838BD5B4B5C49FF
:1014900003F1300451F8042F9A70100C120A1870DE
:1014A0005A7003339C42F5D1564B01221A7038BD55
:1014B000524B554903F1300451F8042F9A70100C27
:1014C000120A18705A7003339C42F5D1ECE74B4B6B
:1014D0004E4903F1300451F8042F9A70100C120A8F
:1014E00018705A700333A342F5D119E0434B4749B2
:1014F00003F1300451F8042F9A70100C120A18707E
:101500005A700333A342F5D1CEE7FFF71DFF3D4BE1
:1015100001221A7038BDFFF7C3FEC5E7FFF7F0FEE2
:10152000384B00221A7038BDFFF7EAFE354B012216
:101530001A7038BD314B364903F1300451F8042F8D
:101540009A70100C120A18705A700333A342F5D126
:10155000AAE72A4B2F4903F1300451F8042F9A705F
:10156000100C120A18705A700333A342F5D19BE78E
:101570002248294D024600234FF47F0101E055F82F
:10158000041F0C0CC45403330C0A302B917054709C
:1015900002F10302F3D1C3E718481F4D02460023AE
:1015A0004FF47F0101E055F8041F0C0CC4540333C1
:1015B0000C0A302B9170547002F10302F3D173E7DF
:1015C0000E4B164903F1300451F8042F9A70100C99
:1015D000120A18705A7003339C42F5D164E7074B26
:1015E0000F4903F1300451F8042F9A70100C120ABD
:1015F00018705A7003339C42F5D155E7F029FF1F4C
:1016000010470000EC29FF1F904500001046000025
:10161000D0460000504600003445000090460000CF
:10162000D04500002DE9F04FDFF81C83DFF81C9354
:101630008DB00027072F67DDB54B1B68DA0740F137
:10164000F580D8F80030B34C0893089B2288618855
:10165000A9FB0303C2EB93139BB2994240F2D780DC
:10166000DFF8ECA2AC4DAD4C2A78DFF8E8B20132DD
:10167000D2B22A7004F1200600E02A7854F8040F50
:101680005BF8041FFFF7E4FDA642F6D1A44C9AF8DC
:1016900000302278A349A34809780132013322702F
:1016A0008AF8003000F05EFA0A219E4800F0BCFA89
:1016B0009D4B1B68DB0740F19580D8F800300B93F9
:1016C0009A4A0B9B12889949A9FB03034988C2EBEC
:1016D00093139BB2994211D8D8F800300A930A9B11
:1016E000A9FB0323914A9B091380BE000824FD1E19
:1016F000142D40F245810834302CF9D10137162FD2
:1017000098D10DB0BDE8F08F01250024DFF848B274
:10171000DFF848A2864E01E0013401353378002C11
:1017200000F0CE80012C00F02381022C00F0188103
:10173000032C00F0E580042C00F0DA80052C00F08A
:10174000CF80062C00F0C480DBF81C005AF8233050
:101750004FF484719847082DDED1724B19781846E2
:1017600000F000FA6F480A2100F05EFA7148036841
:10177000DC076DD5704CD8F80030029394E8060071
:10178000029B5B1A9A4208D86C4AD8F8001013786A
:1017900001910133019913702160694D2B68D907BC
:1017A0004DD5D8F80030674C0593059B2288618899
:1017B000A9FB0303C2EB93139BB299423FF678AFA8
:1017C000D8F8003004933378049A013303F0070308
:1017D0003370554B1B68A9FB02129209DB0722806C
:1017E0003FF56BAF504800F071FC00283FF465AF47
:1017F000D8F800300993099B4B48A9FB03234B4AB7
:101800009B0913801E23538000F066FC55E7D8F82F
:1018100000300793079BDFF838A1A9FB03239B093E
:101820009AF800002380FFF723FE1BE7384800F0FA
:101830004DFCD8B9374CD8F80030089305E7284656
:1018400000F044FC08BB3F4CD8F800300593ACE7EF
:1018500000F03CFC40BB384CD8F80030029394E8D0
:101860000600029B5B1A934297D38DE7D8F80030AD
:101870000693069B274C2648A9FB03239B0923803C
:101880000A23638000F028FCD5E7D8F800300393E2
:10189000039B2C4CA9FB03239B091E222846238073
:1018A000628000F019FCCFE7D8F80030224C00939A
:1018B000009B236014231F48636000F00DFCCBE7FE
:1018C000DBF800005AF823304FF48471984723E77F
:1018D000DBF818005AF823304FF4847198471BE75F
:1018E000DBF814005AF823304FF48471984713E75B
:1018F000DBF810005AF823304FF4847198470BE757
:10190000DBF80C005AF823304FF48471984703E752
:10191000E429FF1F302AFF1F212AFF1F5007FF1F46
:10192000202AFF1F342AFF1FE829FF1F0411FF1F71
:10193000C829FF1FDC29FF1F242AFF1FEE29FF1FD4
:10194000E029FF1F2C2AFF1F582AFF1FD34D6210CA
:10195000EF29FF1F7007FF1F5407FF1F3407FF1FEA
:10196000DBF808005AF823304FF484719847D3E627
:10197000DBF804005AF823304FF484719847CBE623
:10198000044B1868044B1B6820449B59436000F0CB
:1019900051FBB0E6CC29FF1F9807FF1F30B4184C4D
:1019A000238803EB432503EB850303F558531933D1
:1019B0009BB203EB1325EDB2AA421ED903EB4322DF
:1019C00003EB820303F5585319339BB289B203FB2F
:1019D00001F1090C01EB41012380435C4418FF2510
:1019E00083FA55F34354627882FA55F2A378627011
:1019F00083FA55F3A37030BC7047238030BC704726
:101A00009407FF1F38B5074B04461A780D46072385
:101A100000F040F9294620465022BDE83840FFF743
:101A2000BDBF00BFEE29FF1FF0B5214B214E1B6843
:101A30008DB05B68019300224FF0020E0E27082440
:101A4000062103930593079309930B93072514230A
:101A500030208DF800E08DF808708DF81840326065
:101A60007260B2608DF810508DF820108DF828301B
:101A700001F040FC00F1300E3060C6F808E004468A
:101A80006F460DF1300C3D460FCD6545206061601D
:101A9000A260E3602F4604F11004F4D1064A07491E
:101AA0000448C6F804E00DB0BDE8F04002F014B8F8
:101AB0009807FF1FCC29FF1F3007FF1F590C00009C
:101AC000F8B51E1E03680446CCBF02EB4205002594
:101AD0000F469B68D8BF164698477A1923686260FC
:101AE0005B690A4A6661934201D12046F8BD2046EF
:101AF00098470028F9D0064A064B516893FBF0F04E
:101B0000884238BF084650602046F8BD7104000086
:101B1000342AFF1F40420F0070B40F4C2268531C40
:101B20008A4283B0236013DB0C4D0D4A2968019172
:101B300001992D6800951668009D15604FF47A7222
:101B40000025891B02FB03F32560B3FBF1F34380FF
:101B500003B070BC704700BF482AFF1F582AFF1F00
:101B6000502AFF1F2DE9F04F43682D4C83B00646E5
:101B70008946002B4BD100F067FBF36820601BB156
:101B80004846B16898478146264B1C680025002CC2
:101B900036D07388A77C61686269632B236898BF1D
:101BA000A574D3F804808DF804508DF805508DF895
:101BB0000650B9F1000F1CD004F10B030DF1040E17
:101BC00004F10E0C13F801BFBBF1000F0DD093F818
:101BD00003A00AF101000BFB0000BAF1000F04D0D2
:101BE00009FB00F0000C8EF8000063450EF1010EB9
:101BF000E8D1204601ABC047A774A468002CC8D127
:101C000030461921FFF788FF03B0BDE8F08F00F0E0
:101C10001BFB22687368801A9842AAD3ABE700BF07
:101C20004C2AFF1F442AFF1FF0B50A4D83B02B68D2
:101C30000093009F04460E4621782046FFF792FF4E
:101C400001F05CFB2B680193019BDB1BB342F3D3D8
:101C500003B0F0BD582AFF1F00207047044B00223C
:101C6000FF204FF0FF31187099605A80DA6070479A
:101C7000342AFF1F00290BDD01EB410101441378D9
:101C80000370537843709378837003308842F6D1A1
:101C9000704700BF70B582B0FF25F02400298DF891
:101CA00004208DF806508DF8054010DD01EB410150
:101CB0001E4604464518214601A800F0B3F89DF8D9
:101CC000042003343244AC428DF80420F3D102B036
:101CD00070BD00BF09B330B44D1EADB2D243013563
:101CE000D2B205EB450505440132441C14F8013C11
:101CF00002FB03F31B1204F8013C4178837802FBDA
:101D000001F102FB03F309121B12417083700330CF
:101D1000854204F10304E9D130BC7047FFF7DABF14
:101D200001EB4103C1EB8313003118BF012101EB2B
:101D30002321C9B28B000A06DBB20ED401F04001A8
:101D400001F0FF0219B90370427082707047FF21E1
:101D500000224370017082707047FF22837002700E
:101D6000427070472DE9F043141104EB440512F062
:101D70000F020D449DF81C6000D0E6B92C786978FC
:101D8000AA78FF2B12D0002B43D00133DBB21CB159
:101D900003FB0444C4F3072419B103FB0111C1F38D
:101DA00007211AB103FB0222C2F30722047041701B
:101DB0008270BDE8F0830F2C2E7895F80190AF78F3
:101DC00000D0E91C120182F0FF056C1C91F800C0E4
:101DD00091F801E091F8028004FB06F6511C04FB27
:101DE00009F504FB07F4C4F30724C6F3072701FB36
:101DF00008F201FB0CF6C5F3072501FB0EFE04EB10
:101E0000222207EB262605EB2E21F4B2C9B2D2B26C
:101E1000B7E71A4619461C46047041708270BDE847
:101E2000F08300BFF0B4047846788278E00000F0D8
:101E3000F80000EB800303EB031303442506C3F310
:101E400007235FD404F0400505F0FF0704F02004E9
:101E5000002D46D104F0FF00002C6CD05533DDB2CC
:101E6000AB243B46FF2E1CD0002E79D01CB106FBC4
:101E70000444C4F307241DB106FB0555C5F307252B
:101E80001BB106FB0333C3F30723F043C0B200FBCF
:101E90000000C0F30720044405440344E4B2EDB25B
:101EA000DBB2FF2A18D012FB02F0003218BF012269
:101EB00002EB102212F0FF0256D01CB102FB0444C8
:101EC000C4F307241DB102FB0555C5F307251BB15B
:101ED00002FB0333C3F307230C704D708B70F0BC0F
:101EE000704704F0FF075CBB00EBC00400EB44004C
:101EF00000EBC0000412563BC4F1AB04DDB2E4B207
:101F00003B46AFE704F0400707F0FF05E7B904F0F0
:101F1000200707F0FF04002F36D100EBC00300EBD1
:101F2000430000EBC000C0F30720C0F1AB05553003
:101F3000EDB2C3B296E7DC43E4B21D46034691E737
:101F40000024DD43EDB28DE704F0200404F0FF052A
:101F500094B903F15504E4B2C3F1AB03DBB281E7FA
:101F6000FF231D461C469CE71546144613460C707D
:101F70004D708B70F0BC7047A3F15604E4B200259D
:101F8000C3F15503DBB26DE7D8431C46C3B269E722
:101F900010B5044671B1002100F04AF947F690638C
:101FA000013BFDD10121204600F042F9094B013BE4
:101FB000FDD110BD00F03CF948F64823013BFDD1AE
:101FC0000121204600F034F947F6E013013BFDD132
:101FD00010BD00BF708E010070B50E460021054691
:101FE00000F026F9114B013BFDD10121284600F0FC
:101FF0001FF90F4B013BFDD11F2426FA04F101F01C
:102000000101013C2846FFF7C3FF631CF5D1002105
:10201000284600F00DF948F2B833013BFDD101210B
:102020002846BDE8704000F003B900BF603D0800DD
:10203000B01E040041680078FFF7CEBF08B5104C11
:1020400008E0236859050DD423681A050FD42368C6
:10205000DB0411D423685803F3D500F03FFB236859
:102060005905F1D501F02CFA23681A05EFD501F0D6
:10207000BDFA2368DB04EDD501F04EFBEAE700BFB3
:102080003480044008B5FFF7D9FF00BF014B102290
:102090001A80704700200540704700BF094908B505
:1020A0000B6830B16A461844A2F50052904202D241
:1020B0000860184608BD01F01BFD0C2303604FF0BB
:1020C000FF3008BD9C07FF1FFEE700BF0078B0FA95
:1020D00080F04009704700BF01230370704700BFC4
:1020E000084A1378802B01D0002070470649074B1F
:1020F00007480860002119701378802BFCD001205C
:10210000704700BF03E007404480044001E00740FF
:1021100000002822094A1378012B01D000207047C3
:1021200003F1804303F5FC23602119701378802BA1
:10213000FCD1034B034A1A600120704703E00740BB
:10214000448004400000060210B4114B53F83020C4
:1021500092F8804234B1012379B182F880305DF881
:10216000044B704703EBC0035B681A6851B922F057
:1021700002021A605DF8044B704782F800315DF886
:10218000044B704742F003021A605DF8044B70473D
:10219000B04700001C4A02EBC00301295B6811D064
:1021A00004291BD052F83000002280F8802229B187
:1021B000022920D0032922D01A6070474FF4807280
:1021C0001A60704752F830004FF4A27280F8801203
:1021D0001A601A6822F020021A60704752F8301014
:1021E0004FF4A272012081F880021A601A6842F04E
:1021F00020021A60704740F203121A6070474FF4D1
:1022000081721A60704700BFB047000030B4054BC0
:10221000054D064C002210211A602A6020601960CA
:1022200030BC704714D0034004D0034000D00340BA
:102230003F2801D8FFF788BF704700BF3F2801D86B
:10224000FFF7A8BF704700BF72B60D490D4B0E4A8D
:102250001B680868126862B6520102D5322B88BF2B
:102260000130C3F52F33094903F21F334FF47A725B
:102270009B08A1FB031302FB00F000EB93007047E7
:10228000582AFF1F18E000E004ED00E0176CC116AB
:102290002DE9F843054672B6224F234B234A1B68AB
:1022A0003C68126862B6520102D5322B88BF0134F5
:1022B000B5B3C3F52F3303F21F331D4EDFF868901B
:1022C000DFF868809B084FF47A72A6FB031302FBC9
:1022D00004F404EB930472B6D9F800103A68D8F805
:1022E00000E062B6C1F52F3303F21F339B08A6FB53
:1022F00003031EF0806FC4EB93034FF47A7002D097
:10230000322988BF013200FB0233B3F57A7F04D350
:10231000013D05D004F57A74DDE700F0EFFFDAE760
:10232000BDE8F883582AFF1F18E000E004ED00E044
:10233000176CC116F8B54E4B4E48DFF85CC14E4CD9
:102340004E49DFF858E14E4E4E4D4F4F4FF0006270
:102350001A604FF080521A604FF000521A604FF02E
:1023600080421A604FF000421A6000220260282367
:102370004EF6FF70CCF80000CEF8003023600EF56A
:10238000012E0B6033602B6006F500263B6005F5DF
:102390000025A36207F500278B6204F5012401F5EF
:1023A000012106F6E87605F6E87507F57F67103136
:1023B0000EF1100E203433602B60CEF800303B60FD
:1023C0000B602360314CBB618B6109212160A7F553
:1023D000002704F58054203F08343A602060BB6039
:1023E000E36047F8041C04F5FD2407F5FE270437D5
:1023F00004F2FC7422603860A360FB6044F8041CA3
:10240000083404F6FC74C7F8FC2F2060A4F5E1241E
:10241000A4F2DC7433602B60C7F8F81F21681C48F5
:1024200041F40071216001681A4C0EF57F4E0EF1E7
:10243000E80E07F5883706F5803605F5803541F05A
:1024400000710160CEF8002047F6FF710822396064
:1024500033602B60226000F0B3FF1920FFF718FFF4
:1024600000F046FD40F21310BDE8F840FFF710BF42
:1024700004E100E004800340148003401C8003401A
:10248000248003402C8003403480034000800340BC
:102490000480044000900C40088003400C800340FE
:1024A000054A064B10781B78C0B2DBB2984238BFA1
:1024B0004030C01A704700BF602AFF1F612AFF1F0B
:1024C00030B42B4B1A7994061FD52A48DA79037851
:1024D000294901333F2B0978C8BF00238B42D2B270
:1024E00003D0264CD9B2E2540170254A116861B17B
:1024F000244A1278D2B2934236BFC2F140029B1AEC
:102500009B18272BC4BF01230B70194AD378DBB269
:10251000180611D45A060DD5154B1B795B0609D543
:10252000194B1A491B6800220A7003B11A70104B2C
:102530002C22DA7030BC704711790906EAD51449AB
:1025400010480C780178C9B28C420DD04A1C272A59
:1025500084BF00210A460F4D054C98BFD1B2AA5C3A
:10256000D2B2E2710170D5E76C21D170D2E700BF21
:1025700000A00E40602AFF1F612AFF1F8C2AFF1F48
:102580005C2AFF1FCD2AFF1FD02AFF1FCC2AFF1F66
:10259000D42AFF1F642AFF1F431E032B14D872B6D0
:1025A0000A4951F8230068B170B4094C058834F821
:1025B0001320466841F82360521B24F8132062B6AA
:1025C00070BC704762B6704700207047302BFF1F09
:1025D000A82EFF1FF0B472B61A491B4E012311F842
:1025E000014B194F9A00240742F0010505D556F812
:1025F000324064B156F83520BAB10133052BEED123
:1026000062B6124B00221A70F0BC00F0F9BC0F4CFD
:102610000F4D217847F8325007EB431308304A1E1C
:102620005860227062B6F0BC70470849094B0A78BE
:1026300047F8353007EBC5030830013A58600A7097
:1026400062B6F0E7B04900000000FF1FAD2BFF1F8E
:1026500088004000C8004000431E032B1DD81B4AC1
:10266000400140F0100030B4104472B6184CE25CE7
:10267000032A1BD8DFE802F00212151703220D8887
:10268000E25410F0080F14BFC823882343EA05431F
:1026900008310360416062B630BC704708300222E6
:1026A000EDE70522EBE708300422E8E7094A52F893
:1026B000230038B1084A52F82300416042F8231041
:1026C00062B6E9E742F82310034AF7E70000FF1F6C
:1026D000BC2BFF1F842BFF1F942BFF1F2DE9F04FF6
:1026E000DFF810A3DFF810B387B044E0AB4F4FEA38
:1026F000930807EBC809013ED9F8042003F008034A
:10270000F6B2A2F1080003F0FF04002B40F0FC80B9
:1027100057F838301B0C99B222F8081C002B00F037
:10272000EA809F4B22F8064C42F8044C53F82620CE
:10273000002A00F0CB819B4D55F8263058609A4C0A
:1027400045F8260034F81630194424F8161000F025
:1027500037FC002800F0BE81944A954B19F0080F11
:1027600000F1080018BF1346C9F8040047F83830D4
:1027700008238AF800309AF80040E4B261071AD5BD
:102780008C4B1B78A3B18C490A7802F0FF0322B16D
:10279000013BDBB20B7003B900BE88490A7802F036
:1027A000FF032AB1013BDBB20B70002B00F0648108
:1027B00004238AF8003004F0080303F0FF02002B22
:1027C00000F0C6809BF80030DBB21E098ED19A085B
:1027D000724F57F8321007EBC200C1F38301013981
:1027E00040680C2900F28380DFE801F0787881816D
:1027F000818181814281818107000168704D714B27
:1028000040680193694B47F832306F4E686040F280
:10281000816288B26B4B29600024012190421C60C8
:102820003C61BC61317000F2E980B0F5D06F80F09E
:102830000F82B0F5817F00F0DA8100F26B81802891
:1028400000F00182822840F0D881A8885F4B00F018
:102850007F00042800F2D2815D4A80000344147096
:1028600054701878840740F102831170022174E1DA
:10287000544B01931A6832B3564B534E564819883D
:102880003478057840298E4645F0020828BF4FF07D
:10289000400E002C84F001043470CEEB01010CBF1B
:1028A0008824C82407EBC80689B285F0010544EAEC
:1028B0000E447260198047F8384072440570002950
:1028C00066D0019B1A603E4B1A88B2F5A06F0ED1FC
:1028D00000219A785970414B1A7008E03849404CF1
:1028E0000D68A54200F09980304947F832103D4A02
:1028F000012313703CE72D4A2D4B19F0080F18BF28
:10290000134647F8383033E700F07AFB364A374948
:1029100052F82630002B00F0E48058688C5D42F8B5
:10292000260003F10802C9F80420032C05D8DFE8CB
:1029300004F02C02292602228A551A8819F0080F61
:102940000CBF8823C82343EA024347F838300FE717
:10295000E00700F19480210600F1D280A20706D59D
:10296000234A244913780220DBB213700870E3066F
:1029700002D5204B10221A7007B0BDE8F08F042258
:102980008A55DAE705228A55D7E703228A55D4E724
:10299000BEF1400F18BF002293E700BF0000FF1FE9
:1029A000302BFF1FDC2AFF1FA82EFF1FC80040008E
:1029B00088004000B82BFF1F412BFF1FCC2BFF1FAF
:1029C000A42BFF1FD82AFF1F402BFF1FC02007404A
:1029D000B02BFF1FEC2AFF1FAC2BFF1F98200740D6
:1029E0002109000394200740842BFF1FBC2BFF1FED
:1029F000882007408020074090200740B0F5106FE6
:102A000000F03E8140F2A28040F62112904240F058
:102A10001C82A44A0123137069E74C68A2498C42C6
:102A20007FF462AF0178A9297FF45EAF4178452930
:102A30007FF45AAF8178C2297FF456AFC1786B29F1
:102A40007FF452AF99489A4E0178347881F00105AD
:102A5000002C41F0020105700CBF8820C82084F0D2
:102A6000010447F8310007EBC1019248347000259A
:102A700005244D60047037E700F01AFB98E68E4B92
:102A800088488A491A614FF0020E80F800E08B4FA7
:102A90000A708B49196099608A4E8B4D8B4C9A61F4
:102AA0000D213970FF213170DFF848E22970227062
:102AB000874D884A8EF800109F27012406F8047C71
:102AC0005D600470DA6007B0BDE8F08F43F826005F
:102AD000814D34E6814A47F838001378013313708A
:102AE00046E68B5D032B00F2A78001A252F823F08B
:102AF0007127000071270000472B0000412B0000C8
:102B00006E49714B80220D2008701A70A2077FF564
:102B10002EAF25E740F20232904240F08E81AA8823
:102B200002F07F02042A68D86D88002D65D16348C1
:102B3000029192001044027842F00202027048E1D1
:102B400001238B5514E600238B5511E6B0F5086F71
:102B500053D16348634A00781070ED888D4280F04D
:102B60009B815248047844F0020C07EBCC01402DC5
:102B7000AE464FF0010328BF4FF0400E4A6002EB13
:102B80000E09CEEB05014FEA0E4802930025C8223C
:102B900042EA080384F0010247F83C3035700270C5
:102BA000DFF814C1424BDFF8048151BBBEF1400F86
:102BB0007FF42FAF42F0020207EBC203DFF8F8E028
:102BC000C3F8049095BB0D0445F088059DF80830C6
:102BD00033704029047009EB01034EF832507FF442
:102BE00018AF0021404A01981180036011E7AA88BC
:102BF00002F07F02042A40F22D81304B0F221A701E
:102C000007E74029D6D942F002020CEBC200C0F817
:102C100004907DB135489DF808501D70403988F802
:102C2000004009F140034CF83200DBE70D0445F0A9
:102C3000C805CBE72248EEE719F0080F0CBF0223C6
:102C400003238B5594E5274A02211470547084E7BE
:102C500027494A68002AD0D06C88B5F804E003E020
:102C60000C314A68002AC8D00B88A342F8D14B889F
:102C70007345F5D1240A032C0CBF117809896CE740
:102C8000174A0D4CA978117004F1800502E0083450
:102C9000AC4231D0236A1A06F9D5606A083800F0D0
:102CA000AFF9F4E79420074001000400AC2BFF1FAC
:102CB000402BFF1F412BFF1F0000FF1FC0200740BC
:102CC0008800400088200740802007409820074067
:102CD000F02AFF1F442BFF1FDC2AFF1FAD2BFF1F15
:102CE000B82BFF1FB02BFF1FEC2AFF1FC8004000AE
:102CF000B44900008C2007406F49704B704A029124
:102D00007049714D714C059603954FF00009884646
:102D100016461D460494286828B1446800F070F9EE
:102D20002046002CF9D100232B60039B30681A4603
:102D3000002342F8293028B1446800F061F92046A8
:102D4000002CF9D100223260029A98F80030114626
:102D5000002241F8042B049A0291023B4FF000013B
:102D600022F81910032B07D8DFE803F047024702C7
:102D70004FF0010388F8003009F10109B9F1040F9F
:102D800005F1040506F1040608F10108C3D1504B12
:102D9000059EDFF85491DFF8548100211970012558
:102DA00018F8013B09F8043B1B072BD4AC0044F096
:102DB000020244F00304002347F8323047F834306D
:102DC000444B994505F10105EAD13378029383F02C
:102DD00001050021894688468E460A463E48047809
:102DE00044F0020C07EBCC030393029B002B039BE4
:102DF0005A600CBF8822C822CAE64FF0000388F848
:102E00000030B9E700F0DCF8AC0007EB451300F147
:102E10000802002837D05A60304B47F8343000F0B1
:102E2000CFF844F0010307EBC30200F1080100B33F
:102E300051602B4A47F83320B9E7B0F5A06F7FF413
:102E4000DCAE012300250293C3E740F62122904225
:102E5000F7D0D2E66D88002D7FF4CFAE21480291E5
:102E600092001044027822F002020270B1E70221BF
:102E700073E6174B44F001021B7847F83200144AFE
:102E80000133137093E7124B114A1B78AC000133E6
:102E900047F834001370C2E740298E464FF0010313
:102EA00028BF4FF0400ECEEB01014FEA0E4802EB77
:102EB0000E090025029391E7942BFF1F302BFF1F73
:102EC000842BFF1FBC2BFF1FDC2AFF1FA82EFF1F18
:102ED000AD2BFF1FD4200740AC2BFF1F8800400004
:102EE000C8004000C0200740C4200740B04900008F
:102EF0002DE9F041274C00F079FD002204F1880013
:102F000023461A605A60083383424FF00001F8D11B
:102F10002148224A0368DFF89CE0214E214D224FD0
:102F2000DFF894C0DFF8948043F4802303601368D3
:102F300043F04073136003238EF80030A0233370F6
:102F400002F5C922C4F3072300F528302B70803026
:102F5000C4F3074310323B70240EFF230470134D5B
:102F60008CF80030124888F800301370012306F8FE
:102F7000AC3C4FF400140EF8441C7026102107F8E6
:102F80002C3C2E70046082F8F810AEF1440EBDE8BF
:102F9000F08100BF0000FF1F3480044000D80040D3
:102FA000402107409C200740B020074035E400E066
:102FB00004E100E0442107408020074088200740CA
:102FC00072B60D480268B2FA82F30B2B10DC4FF098
:102FD0000041D94022EA0102026062B6074803EBD1
:102FE000C303DB00C2180021C15010465160704776
:102FF00062B60020704700BFA007FF1FD003FF1F6D
:103000000D4B0E4AC31AA2FB03231B090B2B0CD832
:103010000B4A127852B972B60A484FF00041026862
:1030200021FA03F31A43026062B67047064A127827
:10303000002AF0D0FFF7CEBAD003FF1F398EE33855
:10304000AD2BFF1FA007FF1FB82BFF1F38B5164D74
:103050002868E0B101884488A14213DD03191B7A76
:1030600083B104F10803C2180C1B002302E012F81C
:10307000011F21B10133A342F9D1204638BD1C46BE
:10308000204638BDFFF7BCFF0020286038BD074B45
:103090001B780BB9002038BD0220FFF77DFA2860AD
:1030A0000028D7D1F6E700BFC82BFF1FB82BFF1FA2
:1030B0000D4B1B78BBB910B50C4C216803F0FF0217
:1030C0004B883F2B07DC07330B4401F1470003F823
:1030D000012F8342FBD140230B800120FFF7BCFA74
:1030E0000023236010BD7047C02BFF1FC42BFF1FA0
:1030F00010B4EFF3108272B6437F33B9017F012918
:1031000008D0032910D00123437702B962B65DF8D5
:10311000044B7047114C2168A1B1114943610B6800
:10312000836108605861EEE70E4C216881B10E4959
:1031300043610B688361086058610C4B4FF080510C
:103140001960E0E7064B4161816120601860DAE7B1
:10315000054B4161816120601860EEE7E02BFF1FA5
:10316000DC2BFF1FD02BFF1FD42BFF1F04ED00E033
:1031700010B4047F4160022CC26003D05DF8044BA0
:10318000FFF7B6BF83685DF8044B184770B5EFF3DF
:10319000108272B60C4C206880B10C4E0025436939
:1031A000236073B19D6102B962B645778368984721
:1031B000EFF3108272B620680028F0D102B962B62F
:1031C00070BD3360EFE700BFD02BFF1FD42BFF1F74
:1031D000FFF7DCBF184A30B41468002C27D003680E
:1031E00021688B420ED2CB1A00218460C16023601B
:1031F000E06010600223037530BC704711688B4299
:10320000144608D3A2685B1A0360002AF6D18260D4
:10321000C460A060EEE7D268C2608460E060C56808
:10322000CB1A0222A8602360027530BC704784600C
:10323000C4601060DEE700BFD82BFF1FF8B5224E38
:1032400034682CB32368002B3AD1204F1D4604E08C
:103250003468ECB12368002B32D1A36803B1DD6080
:1032600020693360036825751B68BB4221D1037F49
:103270004560022BC46020D0FFF73AFF6368002B43
:10328000E6D023602046FFF7A5FF3468002CE1D18B
:10329000EFF3108372B60E4A00211068116003B973
:1032A00062B628B18468FFF795FF20460028F9D15F
:1032B000F8BD224600219847E0E783689847DDE79C
:1032C000013B2360E4E700BFD82BFF1F71310000F2
:1032D000E82BFF1F024A136801331360FFF7AEBFEC
:1032E000582AFF1F08B5FDF759FFFEF79BF900F0BC
:1032F00005F8FAE700F02ABC00F030BC38B52C4CD9
:10330000237803B138BD01232370FFF79FFE002807
:1033100042D100F0C5F800283BD100F057F9002851
:1033200034D100F0E9F970BB00F062FA40BBFFF75E
:10333000B7F810BB00F0D8FAE0B900232370EFF320
:103340000583002BDED1EFF3108172B6194B18689C
:1033500028B3194C227812BB45691D6001232370E4
:103360000DB3AA6101B962B6002545778368984715
:103370002570C7E700F086FBDFE700F081FBD9E7A7
:1033800000F07CFBD3E700F077FBCDE700F072FBA9
:10339000C7E700F06DFBC0E700F076FBB9E7002956
:1033A000B0D162B638BD054B1D600029DCD1DAE72B
:1033B000EC2BFF1FE02BFF1FE42BFF1FDC2BFF1F5D
:1033C00030B42948294A2A4B2A4D6024E12104704F
:1033D00011701B78284C082B30D00A2B274828491D
:1033E00037D00C2B0CBF35225D2212232A602360BC
:1033F00002600B60234B24491B78244ABBB1012394
:103400000B601360224B23491B78234A012B26D9DA
:10341000042B0FD9082B1ED9102B94BF862387238A
:103420000B6013601D4B01221A7030BC70470B609B
:103430001360E7E784230B601360F3E700F58E2049
:103440000F490830212213232A60236002600B6099
:10345000D0E73922F7E785230B601360E2E780238A
:103460000B601360DEE700BF0040074001400740EB
:10347000A407FF1F08B003400CB0034008B00B4086
:103480000CB00B40EE2BFF1F20B0034020B00B40D0
:10349000A507FF1F24B0034024B00B40ED2BFF1FF6
:1034A000054A064B10781B78C0B2DBB2984238BF91
:1034B0004030C01A704700BFF42BFF1FF52BFF1FD1
:1034C000F0B4384B1A7912F0300F2CD072B6997DC7
:1034D00001F0FF0200293DD062B6334F33493878FE
:1034E0000D78334E1C46C0B2EDB2431C402BE1793F
:1034F00028BF0023AB4202F1FF32C9B21CBFF15416
:10350000184612F0FF02F0D12A4B1B68C2B23A7083
:103510004BB1A84236BFC5F14005401B40192728D2
:10352000C4BF01221A701F49CA78D2B2150616D438
:1035300052060DD51B4B1B795B0609D51E4B1F4947
:103540001B6800220A7003B11A70164B3C22DA7015
:10355000F0BC70474022D9795A7462B6E3E70B7920
:103560001C06E5D5164B174E1C783378E4B2DBB257
:103570009C420ED0144D01E0A3420AD00133402BEF
:1035800028BF00230879E85CC0B2C871087D07280D
:10359000F2D9DBB2034933700B79180644BF7C23A0
:1035A000CB70C5E700A00640F42BFF1FF52BFF1FD3
:1035B000382CFF1FF02BFF1F7C2CFF1F782CFF1FC8
:1035C000802CFF1F792CFF1FF82BFF1F054A064B8D
:1035D00010781B78C0B2DBB2984238BF4030C01AB6
:1035E000704700BFF42CFF1F892CFF1FF0B4384B2D
:1035F0001A7912F0300F2CD072B6997D01F0FF02CB
:1036000000293DD062B6334F334938780D78334EB8
:103610001C46C0B2EDB2431C402BE17928BF002309
:10362000AB4202F1FF32C9B21CBFF154184612F08E
:10363000FF02F0D12A4B1B68C2B23A704BB1A842CC
:1036400036BFC5F14005401B40192728C4BF0122E1
:103650001A701F49CA78D2B2150616D452060DD573
:103660001B4B1B795B0609D51E4B1F491B680022AB
:103670000A7003B11A70164B3C22DA70F0BC704726
:103680004022D9795A7462B6E3E70B791C06E5D576
:10369000164B174E1C783378E4B2DBB29C420ED046
:1036A000144D01E0A3420AD00133282B28BF002388
:1036B0000879E85CC0B2C871087D0728F2D9DBB28E
:1036C000034933700B79180644BF7C23CB70C5E7E0
:1036D00000B00640F42CFF1F892CFF1FB42CFF1FE5
:1036E000842CFF1FF82CFF1F882CFF1FFC2CFF1FB2
:1036F000F52CFF1F8C2CFF1F054A064B10781B78FA
:10370000C0B2DBB2984238BF4030C01A704700BF29
:10371000042DFF1F052DFF1F30B42B4B1A79940683
:103720001FD52A48DA790378294901333F2B0978D4
:10373000C8BF00238B42D2B203D0264CD9B2E25488
:103740000170254A116861B1244A1278D2B29342BD
:1037500036BFC2F140029B1A9B18272BC4BF01231E
:103760000B70194AD378DBB2180611D45A060DD55E
:10377000154B1B795B0609D5194B1A491B680022AA
:103780000A7003B11A70104B2C22DA7030BC7047EB
:1037900011790906EAD5144910480C780178C9B2A4
:1037A0008C420DD04A1C272A84BF00210A460F4DA7
:1037B000054C98BFD1B2AA5CD2B2E2710170D5E7D4
:1037C0006C21D170D2E700BF00C00640042DFF1F5E
:1037D000052DFF1F302DFF1F002DFF1F712DFF1F17
:1037E000742DFF1F702DFF1F782DFF1F082DFF1F49
:1037F000054A064B10781B78C0B2DBB2984238BF3E
:103800004030C01A704700BF802DFF1F812DFF1F61
:1038100030B42B4B1A7994061FD52A48DA790378ED
:10382000294901333F2B0978C8BF00238B42D2B20C
:1038300003D0264CD9B2E2540170254A116861B117
:10384000244A1278D2B2934236BFC2F140029B1A88
:103850009B18272BC4BF01230B70194AD378DBB206
:10386000180611D45A060DD5154B1B795B0609D5E0
:10387000194B1A491B6800220A7003B11A70104BC9
:103880002C22DA7030BC704711790906EAD5144948
:1038900010480C780178C9B28C420DD04A1C272AF6
:1038A00084BF00210A460F4D054C98BFD1B2AA5CD7
:1038B000D2B2E2710170D5E76C21D170D2E700BFBE
:1038C00000D00640802DFF1F812DFF1FAC2DFF1F54
:1038D0007C2DFF1FED2DFF1FF02DFF1FEC2DFF1F77
:1038E000F42DFF1F842DFF1F054A064B10781B780F
:1038F000C0B2DBB2984238BF4030C01A704700BF38
:10390000FC2DFF1FFD2DFF1F30B42C4B5A68940275
:103910001FD52B48DA6803782A4901333F2B0978F1
:10392000C8BF00238B4204D0274CD2B2D9B2E25494
:103930000170264A116861B1254A1278D2B29342C9
:1039400036BFC2F140029B1A9B18272BC4BF01232C
:103950000B701A4A9368180202D55268110211D4EA
:103960005A020DD5154B5B685B0209D5194B1A49F4
:103970001B6800220A7003B11A70184B00221A60EB
:1039800030BC7047164A124910780A78D2B2904279
:103990000DD00132272A84BF00200246114D074C6A
:1039A00098BFD0B2AA5CD2B2E2600870D8E70E48E5
:1039B0000A4A0024012104601160D1E700400C4054
:1039C000FC2DFF1FFD2DFF1F282EFF1FF82DFF1FB1
:1039D000692EFF1F6C2EFF1F682EFF1F58018843A2
:1039E000702EFF1F002EFF1F5C01884310B584B0AE
:1039F00072B6FEF775FB184A184B19491160702210
:103A000080211A701A46197013781B06FCD5154BC5
:103A10001C68FEF77FFB62B6134B9C429CBF04EB15
:103A2000840464002046114C01A90A2200F02EF8FB
:103A300001A92046002311F8012B01333AB10A2BCA
:103A400020F8022FF7D11623237004B010BD5B00BD
:103A5000DBB2237004B010BD04000240000002403D
:103A6000000007410C0002407F9698008C08FF1F61
:103A7000704700BF704700BF704700BF704700BF6E
:103A8000704700BF704700BF704700BFF0B44D1EC5
:103A90002E46002400E00134B0FBF2F302FB1300D9
:103AA000092800F130078ABF3730F8B2C0B206F8F3
:103AB000010F1846002BEED10A1953704CB1107843
:103AC00015F8016F28700133E01A834202F801698A
:103AD000F5DB0846F0BC70470B460146184600F07F
:103AE00001B800BF13460A460146022000F05ABB47
:103AF000014B1868704700BFD00CFF1F70B50F4E08
:103B00000F4D761BB61018BF002405D0013455F8B0
:103B1000043B9847A642F9D10A4E0B4D761B00F0A4
:103B20008DFFB61018BF002406D0013455F8043BB1
:103B30009847A642F9D170BD70BD00BF484A000049
:103B4000484A0000584A0000484A0000024B01461B
:103B5000186800F00BB800BFD00CFF1F024B0146E5
:103B6000186800F0DDBB00BFD00CFF1F2DE9F04F3F
:103B700001F10B05162D83B0064640F29F8035F00B
:103B8000070500F1BF80A94200F2BC8000F0F4FA02
:103B9000B5F5FC7FC0F09C826B0A00F0BA80042B64
:103BA00000F28381A80900F1390E4FEA4E03383044
:103BB000C44F07EB8303A3F108015C68A14207D15E
:103BC000ACE0002A80F2AC80E468A14200F0A6805C
:103BD000636823F003035A1B0F2AF2DDB9493C69DD
:103BE00001F1080E744500F0B381636823F003030C
:103BF0005A1B0F2A00F39981002AC1F814E0C1F87A
:103C000010E080F29E80B3F5007F80F06781DB08D2
:103C100003F1010C01229B1002FA03F34A6851F8E8
:103C20003C80C4F8088001EBCC091A43A9F10803D1
:103C3000E3604A6041F83C40C8F80C40831001241E
:103C40009C40944200F28A80144206D120F0030086
:103C50006400144200F10400FAD007EBC009CC461E
:103C60008046DCF80C108C4507D173E1002A80F205
:103C70008181C9688C4500F06D814B6823F0030396
:103C80005A1B0F2AF2DD0C46D1F80CC054F8088FED
:103C90004B1945F001054D6042F00101C8F80CC018
:103CA0003046CCF808807B613B61C3F80CE0C3F878
:103CB00008E059609A5000F061FA1FE0102921D8FD
:103CC00000F05AFA1025062302207E4F07EB8303EB
:103CD000A3F108025C68944200F045816368E168E2
:103CE000A56823F00303234430465A68E96042F094
:103CF00001028D605A6000F041FA0834204603B09A
:103D0000BDE8F08F00240C232046336003B0BDE8EB
:103D1000F08F80234FF0400E3F2049E770465DE76B
:103D20002344E1685A68A56842F00102E960304620
:103D30008D605A6000F022FA0834204603B0BDE8D6
:103D4000F08F234430465A6842F001025A6000F076
:103D500015FA0834204603B0BDE8F08FBC686368EC
:103D600023F00308A84504D3C5EB08030F2B00F389
:103D70008C80554BDFF860911A68D9F80030013318
:103D80002A4404EB080A00F0608102F580520F32E9
:103D900022F47F6222F00F0211463046019200F0B9
:103DA000EFF9B0F1FF3F8346019A00F05881824558
:103DB00000F2FC80454B1968DA451144196000F0A7
:103DC0005381D9F80000DFF810E101301BBFCAEBC6
:103DD0000B0A5144CEF800B019601BF0070100F047
:103DE0001781C1F10800C1F58051834408315A445C
:103DF000C2F30B02C2EB010949463046019300F0C1
:103E0000BFF9431C019B00F03F81CBEB00024A4409
:103E100042F001021968C7F808B04944BC42CBF827
:103E200004201960DFF8A49016D0B8F10F0F40F20B
:103E3000FD806268A8F10C0323F00703E01802F08C
:103E400001024FF0050E1A430F2B6260C0F804E028
:103E5000C0F808E000F21C811D4BBC681A68914252
:103E600088BF19601B4B1A689142626888BF19604D
:103E700022F003029542A2EB050301D80F2B04DCCC
:103E8000304600F07BF9002438E7621943F0010363
:103E900045F0010565603046BA60536000F06EF988
:103EA0000834204603B0BDE8F08F142B71D9542B91
:103EB00000F2A480280B00F16F0E4FEA4E036E3023
:103EC00076E600BFD40CFF1F7C2EFF1F802EFF1F45
:103ED000782EFF1F742EFF1FE010FF1F5A0A042ABE
:103EE0005ED9142A00F2B38002F15C0149005B3212
:103EF00007EB810C57F82110DFF8DC81ACF1080CDE
:103F00008C4500F088804A6822F00302934202D276
:103F100089688C45F7D1D1F80CC07A68C4F80CC018
:103F2000A160CCF80840CC6088E6631942F0010734
:103F300045F00105656030464B610B61C3F80CE04C
:103F4000C3F808E05F609A50083400F017F9D5E62E
:103F50004A6873E608F1010818F0030F0CF1080C29
:103F60007FF47FAE30E0DC68A34208BF02303FF44C
:103F700035AEB3E60B440C465A68C96854F8085F7E
:103F800042F001025A603046E9608D6000F0F6F8B8
:103F9000B4E603F15C0E03F15B004FEA4E0307E663
:103FA0009A0902F1390149003832A1E7BC424A4B73
:103FB0003FF400AF9C68626822F003025AE759F8A8
:103FC0000839994540F0828010F0030F00F1FF306E
:103FD000F5D17B6823EA04037B6064009C423FF6D2
:103FE000BDAE002C3FF4BAAE1C4240467FF435AE65
:103FF00064001C4200F10400FAD02EE6B3F5AA7F5B
:1040000018D8E80B00F1780E4FEA4E037730CFE571
:104010004FF48051EBE60121D8F80430921001FAF8
:1040200002F21A43C8F80420614677E70123CBF86F
:10403000043025E740F25452934220D8A80C00F1F6
:104040007D0E4FEA4E037C30B2E51032A4E6542ACE
:1040500026D81A0B02F16F0149006E3248E7BC689E
:10406000626822F0030205E7CAF30B0000287FF420
:10407000A8AE4244BB6842F001025A60ECE6FE235F
:104080004FF07F0E7E2093E501224FF00009C1E63C
:1040900004F10801304600F043F9D9F80010DBE6DE
:1040A000B2F5AA7F05D8DA0B02F178014900773220
:1040B0001EE740F254518A4205D89A0C02F17D0164
:1040C00049007C3214E7FE217E2211E77B6884E7F9
:1040D000E808431C5B00F8E5D40CFF1F70B48407AC
:1040E00046D0541E002A41D0CDB2034602E0621EE3
:1040F000E4B3144603F8015B9A07F8D1032C2ED9D8
:10410000CDB245EA05250F2C45EA054519D903F13D
:1041100010022646103E0F2E42F8105C42F80C5C4E
:1041200042F8085C42F8045C02F11002F2D8A4F1F3
:10413000100222F00F0204F00F041032032C13447B
:104140000DD91E462246043A032A46F8045BFAD8E3
:10415000221F22F003020432134404F003042CB1A2
:10416000C9B21C4403F8011BA342FBD170BC7047C9
:1041700014460346C2E700BF704700BF704700BF48
:1041800038B5074C0023054608462360FDF786FF37
:10419000431C00D038BD2368002BFBD02B6038BDFA
:1041A000B02EFF1F2DE9F047254C2568D5F8484172
:1041B0000646884692469946C4B360681F2817DCB5
:1041C000431C76B104EB80050122C5F888A0D4F821
:1041D000881182401143022EC4F88811C5F8089155
:1041E0001ED00230636044F820800020BDE8F087D4
:1041F000144B03B34FF4C870FFF7A8FC0446D0B1CA
:10420000D5F84831002780E88800C5F8484138468D
:104210000123C4F88871C4F88C71002EE1D0D1E775
:10422000D4F88C110A43C4F88C21DAE705F5A6749A
:10423000C5F84841C1E74FF0FF30BDE8F08700BF47
:10424000384A00004D3B0000024B13B10248FDF715
:1042500003BD7047000000005D42000038B5074D07
:10426000074C2C1BA41005D0013C55F8043D984781
:10427000002CF9D1BDE8384000F0EEBB0000000092
:1042800000000000F8B5234F0C460646FFF774FF08
:10429000BB685D6825F00305291B01F6EF7121F469
:1042A0007F6121F00F01A1F58054B4F5805F07DB39
:1042B00000213046FFF764FFBB682B44984204D0CE
:1042C0003046FFF75BFF0020F8BD61423046FFF744
:1042D00057FF01300DD0104BBA6819682D1B45F0FF
:1042E00001053046091B55601960FFF747FF0120A3
:1042F000F8BD00213046FFF743FFBA68831A0F2B41
:10430000DEDD064C0449246843F00103001B5360C2
:104310000860D5E7D40CFF1F802EFF1FE010FF1FA1
:10432000002945D02DE9F0410D468046FFF724FFD6
:1043300055F8047C6A4927F00103A5F10804E21846
:104340008E685068B24220F0030062D0FE075060D1
:104350000BD455F8087CE41B01F1080EA5687545DF
:104360003B446FD0E768EF60BD6015186D68ED07DE
:1043700042D543F001026260E350B3F5007F18D2EA
:10438000DB085A1C4D6851F83270A76001209B1061
:1043900000FA03F301EBC2001D430838E0604D60F2
:1043A00041F83240FC604046BDE8F041FFF7E6BE10
:1043B00070475A0A042A53D89A0902F139077F0034
:1043C00002F1380501EB870051F8272044490838ED
:1043D00090424DD0516821F003018B4202D2926885
:1043E0009042F7D1D068E060A2608460D46040461B
:1043F000BDE8F041FFF7C2BE95683A4FBD420344A5
:104400003FD0D068E86043F0010285606260E3500D
:10441000B3E7FF07034407D455F8082CA41A134444
:10442000A068E268C26090602F4A126843F0010001
:10443000934260608C60B6D32C4B40461968FFF7FE
:1044400021FFB0E711184968C90744D49168D268C0
:10445000CA60034443F0010091606060E350A2E74A
:10446000142A17D802F15C077F0002F15B05A9E767
:10447000AA104B68012505FA02F213434B6002466D
:10448000B1E743F001024C610C61E560A560626038
:10449000E35088E7542A06D81A0B02F16F077F0011
:1044A00002F16E058EE7B2F5AA7F06D8DA0B02F1AB
:1044B00078077F0002F1770584E740F2545082428A
:1044C00006D89A0C02F17D077F0002F17C0579E79E
:1044D000FE277E2576E743F001026260E35062E743
:1044E000D40CFF1FDC0CFF1FDC10FF1F7C2EFF1FF6
:1044F0000000000000000000C9200000C9200000EA
:10450000C9200000F10E00006D04000071040000DD
:104510000000000000000000D1100000F90F0000B2
:1045200085040000F10E0000750400007D04000009
:10453000D90400000000FF0080808000FF00000020
:10454000000000000000FF0080808000FF000000ED
:10455000000000000000FF000000FF0080808000DD
:1045600080808000FF000000FF00000000000000CD
:1045700000000000003131295A1B750A0000F918AB
:10458000FB301C47825A6D6A4176897D31302C267A
:104590001F170E040000FF00002AD5000055AB00D5
:1045A000007FAB0000ABAB0000D5560000FF000061
:1045B0002AD5000055AB0000AA560000FF000000FD
:1045C000D5002A00AB00550081007F005500AB00EC
:1045D0002B00D5000000000000008000000000005B
:1045E0000000800000008B000000800000008B00B5
:1045F00000008B0000008B000000FF0000A5FF0002
:10460000FFFFFF0000A5FF000000FF0000008B007F
:10461000000000000000FF00000000000055AB009B
:104620000000000000ABAB000000000000FF000035
:104630000000000055AB000000000000FF0000007B
:1046400000000000AB005500000000005500AB006A
:1046500000000000AB0055007C0084004B00B5005A
:104660001B00E5000017E8000047B8000077AB002A
:1046700000ABAB000055AB000022DD000E00F200E5
:104680003E00C20071008F00A1005F00D0002F002B
:10469000F9070000701919008B000000701919004B
:1046A000800000008B000000CD000000578B2E0022
:1046B00080800000A09E5F00FF0000008B8B000048
:1046C000ED956400D4FF7F00578B2E00FFFF0000A4
:1046D000FACE8700FF0000008B0000008B00000076
:1046E0008B0000008B0000008B0000008B0000009E
:1046F0008B000000FF0000008B000000EBCE870065
:10470000EBCE8700E6D8AD00FFFFFF00E6D8AD0096
:10471000EBCE870000640000006400002F6B5500A2
:104720000064000000800000228B2200238E6B00BA
:1047300000800000578B2E00AACD660032CD3200DB
:1047400032CD9A0090EE900000FC7C00AACD66006D
:10475000228B2200BF40F7003FC0F700DF20F700A8
:104760005FA0F7009F60F7001FE0F700FF00F70071
:104770007F80F700EF10F700CF30F700F708F70061
:104780006F90F7004FB0F7007788F70057A8F70051
:10479000AF50F7008F70F700A758F7009768F70041
:1047A0002FD0F7000FF0F70037C8F70017E8F70031
:1047B0004008FE4340A004404408FE4344A0044097
:1047C0000018FE4300C004403000FE433090044017
:1047D0003400FE43349004401C18FE431CC00440C7
:1047E0001018FE4310C004400818FE4308C00440DF
:1047F0000C18FE430CC004400C10FE430CB00440E7
:104800001010FE4310B004401810FE4318B00440CE
:104810001C10FE431CB004401410FE4314B00440AE
:104820000418FE4304C004400010FE4300B00440DE
:104830000008FE4300A004400408FE4304A0044016
:104840000C08FE430CA004400808FE4308A00440E6
:104850001418FE4314C004401818FE4318C0044046
:104860000410FE4304B004400810FE4308B00440A6
:104870006820FE4368D004401400FE4314900440B6
:104880003800FE43389004403C00FE433C90044016
:104890004000FE43409004404808FE4348A00440C6
:1048A0004C08FE434CA004402808FE4328A00440C6
:1048B0002C08FE432CA004406020FE4360D004403E
:1048C0006420FE4364D004402010FE4320B0044026
:1048D0002410FE4324B004402810FE4328B00440B6
:1048E0002C10FE432CB004404400FE43449004408E
:1048F0007000FE43709004407400FE4374900440C6
:104900006800FE43689004405008FE4350A00440F5
:104910005808FE4358A004405C08FE435CA00440D5
:104920005408FE4354A004402018FE4320C0044015
:104930002418FE4324C004401008FE4310A0044085
:104940001408FE4314A004403818FE4338C0044045
:104950003418FE4334C004403018FE4330C00440D5
:104960003C18FE433CC004402C18FE432CC00440BD
:104970002820FE4328D004402C20FE432CD00440A5
:104980000020FE4300D004400420FE4304D0044035
:104990000820FE4308D004400C20FE430CD0044005
:1049A0001020FE4310D004401420FE4314D00440D5
:1049B0001519151900010000A807FF1F12000000BB
:1049C00000020000D407FF1F490000000022010080
:1049D0002008FF1F21000000002101000608FF1F22
:1049E00009000000002200004408FF1F1C00000016
:1049F00000210000E607FF1F09000000000300007F
:104A00008808FF1F0000000001030904BC07FF1F06
:104A100000000000020309046008FF1F00000000FE
:104A2000030309048C08FF1F0000000000000000C1
:104A30000000000000000000A808FF1FF8B500BF3C
:104A4000F8BC08BC9E46704749420000350400008F
:084A5000291A00005D1C0000A2
:044A5800F8B500BFEE
:104A5C0000000000F5090000B10B0000051A000071
:104A6C00C10B00004D0D0000090E0000690C000088
:104A7C00490A0000681DFF1F501AFF1F0811FF1F75
:104A8C008020FF1F2014FF1F9823FF1FB026FF1F3D
:104A9C003817FF1F08010000080100000801000082
:104AAC0008010000080100000801000008010000D6
:104ABC00080100003905000054470000B42EFF1F08
:104ACC00FFFFFFFF0A04000012011001000000406C
:104ADC00C01686047702010203010000180354007B
:104AEC00650065006E007300790064007500690054
:104AFC006E006F0009024900020100C03209040077
:104B0C00000203000000092111010001221C000712
:104B1C00058303400001070504034000010904015B
:104B2C0000020300000009211101000122210007ED
:104B3C00058103400001070502032000020000006C
:104B4C0006C9FF0904A15C7508150026FF009540F5
:104B5C000975810295200976910295040976B102B6
:104B6C00C000000006ABFF0A0002A1017508150089
:104B7C0026FF00954009018102954009029102C06F
:104B8C0026035400650065006E0073007900640014
:104B9C00750069006E006F00200052006100770004
:104BAC004800490044000000040309040C03000001
:104BBC0000000000000000000000000000000000E9
:104BCC00000000000000000000000000940BFF1F1C
:104BDC00FC0BFF1F640CFF1F000000000000000016
:104BEC0000000000000000000000000000000000B9
:104BFC0000000000000000000000000000000000A9
:104C0C000000000000000000000000000000000098
:104C1C000000000000000000000000000000000088
:104C2C000000000000000000000000000000000078
:104C3C000000000000000000000000000000000068
:104C4C000000000000000000000000000000000058
:104C5C000000000000000000000000000000000048
:104C6C000000000000000000000000000000000038
:104C7C0001000000000000000E33CDAB34126DE6D5
:104C8C00ECDE05000B00000000000000000000003E
:104C9C000000000000000000000000000000000008
:104CAC0000000000000000000000000000000000F8
:104CBC0000000000000000000000000000000000E8
:104CCC0000000000000000000000000000000000D8
:104FFC00A808FF1F0000000000000000D40CFF1FD9
:10500C00D40CFF1FDC0CFF1FDC0CFF1FE40CFF1F7C
:10501C00E40CFF1FEC0CFF1FEC0CFF1FF40CFF1F2C
:10502C00F40CFF1FFC0CFF1FFC0CFF1F040DFF1FDB
:10503C00040DFF1F0C0DFF1F0C0DFF1F140DFF1F88
:10504C00140DFF1F1C0DFF1F1C0DFF1F240DFF1F38
:10505C00240DFF1F2C0DFF1F2C0DFF1F340DFF1FE8
:10506C00340DFF1F3C0DFF1F3C0DFF1F440DFF1F98
:10507C00440DFF1F4C0DFF1F4C0DFF1F540DFF1F48
:10508C00540DFF1F5C0DFF1F5C0DFF1F640DFF1FF8
:10509C00640DFF1F6C0DFF1F6C0DFF1F740DFF1FA8
:1050AC00740DFF1F7C0DFF1F7C0DFF1F840DFF1F58
:1050BC00840DFF1F8C0DFF1F8C0DFF1F940DFF1F08
:1050CC00940DFF1F9C0DFF1F9C0DFF1FA40DFF1FB8
:1050DC00A40DFF1FAC0DFF1FAC0DFF1FB40DFF1F68
:1050EC00B40DFF1FBC0DFF1FBC0DFF1FC40DFF1F18
:1050FC00C40DFF1FCC0DFF1FCC0DFF1FD40DFF1FC8
:10510C00D40DFF1FDC0DFF1FDC0DFF1FE40DFF1F77
:10511C00E40DFF1FEC0DFF1FEC0DFF1FF40DFF1F27
:10512C00F40DFF1FFC0DFF1FFC0DFF1F040EFF1FD6
:10513C00040EFF1F0C0EFF1F0C0EFF1F140EFF1F83
:10514C00140EFF1F1C0EFF1F1C0EFF1F240EFF1F33
:10515C00240EFF1F2C0EFF1F2C0EFF1F340EFF1FE3
:10516C00340EFF1F3C0EFF1F3C0EFF1F440EFF1F93
:10517C00440EFF1F4C0EFF1F4C0EFF1F540EFF1F43
:10518C00540EFF1F5C0EFF1F5C0EFF1F640EFF1FF3
:10519C00640EFF1F6C0EFF1F6C0EFF1F740EFF1FA3
:1051AC00740EFF1F7C0EFF1F7C0EFF1F840EFF1F53
:1051BC00840EFF1F8C0EFF1F8C0EFF1F940EFF1F03
:1051CC00940EFF1F9C0EFF1F9C0EFF1FA40EFF1FB3
:1051DC00A40EFF1FAC0EFF1FAC0EFF1FB40EFF1F63
:1051EC00B40EFF1FBC0EFF1FBC0EFF1FC40EFF1F13
:1051FC00C40EFF1FCC0EFF1FCC0EFF1FD40EFF1FC3
:10520C00D40EFF1FDC0EFF1FDC0EFF1FE40EFF1F72
:10521C00E40EFF1FEC0EFF1FEC0EFF1FF40EFF1F22
:10522C00F40EFF1FFC0EFF1FFC0EFF1F040FFF1FD1
:10523C00040FFF1F0C0FFF1F0C0FFF1F140FFF1F7E
:10524C00140FFF1F1C0FFF1F1C0FFF1F240FFF1F2E
:10525C00240FFF1F2C0FFF1F2C0FFF1F340FFF1FDE
:10526C00340FFF1F3C0FFF1F3C0FFF1F440FFF1F8E
:10527C00440FFF1F4C0FFF1F4C0FFF1F540FFF1F3E
:10528C00540FFF1F5C0FFF1F5C0FFF1F640FFF1FEE
:10529C00640FFF1F6C0FFF1F6C0FFF1F740FFF1F9E
:1052AC00740FFF1F7C0FFF1F7C0FFF1F840FFF1F4E
:1052BC00840FFF1F8C0FFF1F8C0FFF1F940FFF1FFE
:1052CC00940FFF1F9C0FFF1F9C0FFF1FA40FFF1FAE
:1052DC00A40FFF1FAC0FFF1FAC0FFF1FB40FFF1F5E
:1052EC00B40FFF1FBC0FFF1FBC0FFF1FC40FFF1F0E
:1052FC00C40FFF1FCC0FFF1FCC0FFF1FD40FFF1FBE
:10530C00D40FFF1FDC0FFF1FDC0FFF1FE40FFF1F6D
:10531C00E40FFF1FEC0FFF1FEC0FFF1FF40FFF1F1D
:10532C00F40FFF1FFC0FFF1FFC0FFF1F0410FF1FCC
:10533C000410FF1F0C10FF1F0C10FF1F1410FF1F79
:10534C001410FF1F1C10FF1F1C10FF1F2410FF1F29
:10535C002410FF1F2C10FF1F2C10FF1F3410FF1FD9
:10536C003410FF1F3C10FF1F3C10FF1F4410FF1F89
:10537C004410FF1F4C10FF1F4C10FF1F5410FF1F39
:10538C005410FF1F5C10FF1F5C10FF1F6410FF1FE9
:10539C006410FF1F6C10FF1F6C10FF1F7410FF1F99
:1053AC007410FF1F7C10FF1F7C10FF1F8410FF1F49
:1053BC008410FF1F8C10FF1F8C10FF1F9410FF1FF9
:1053CC009410FF1F9C10FF1F9C10FF1FA410FF1FA9
:1053DC00A410FF1FAC10FF1FAC10FF1FB410FF1F59
:1053EC00B410FF1FBC10FF1FBC10FF1FC410FF1F09
:1053FC00C410FF1FCC10FF1FCC10FF1F00000200B9
:04540C00FFFFFFFFA0
:00000001FF
