:1000000000000320D1010000A52100005D210000B7
:100010005D2100005D2100005D2100005D210000E8
:100020005D2100005D2100005D210000A521000090
:10003000A52100005D210000E1320000E533000051
:10004000A5210000A5210000A5210000A521000098
:10005000A5210000A5210000A5210000A521000088
:10006000A5210000A5210000A5210000A521000078
:10007000A5210000A5210000A5210000A521000068
:10008000A5210000A5210000A5210000A521000058
:10009000A5210000A5210000A5210000A521000048
:1000A000A5210000A5210000A5210000A521000038
:1000B000A5210000A5210000A52100000D370000AA
:1000C000A521000039380000A52100006539000095
:1000D000A52100005D3A0000A5210000A521000037
:1000E000A5210000A5210000A5210000A5210000F8
:1000F000A5210000A5210000A5210000A5210000E8
:10010000A5210000A5210000A5210000A5210000D7
:10011000A5210000E9270000A5210000A52100007D
:10012000A5210000A5210000A5210000A5210000B7
:10013000A5210000A5210000A5210000A5210000A7
:10014000A5210000A521000009260000A52100002E
:10015000A5210000A5210000A5210000A521000087
:10016000A5210000A5210000A5210000A521000077
:10017000A5210000A5210000A5210000A521000067
:10018000A5210000A5210000A5210000A521000057
:10019000A5210000A5210000553B0000A52100007D
:1001A000A5210000A5210000A5210000A521000037
:1001B000A5210000A5210000A5210000A521000027
:1001C000A5210000A5210000A5210000A521000017
:1001D0005C4B4CF2205210B51A804DF628121A8052
:1001E00000BF00BF01F0E2FF574B4FF030621A60D2
:1001F000564A9A60564ADA60564B4FF470021A60BB
:10020000554B564A1A60564A136813F4807304D14A
:1002100054490B604FF4A8531360534B1A781107DD
:1002200003D51A7842F008021A70504B5049AA229E
:100230001A70504A504B8B4204D252F8040F43F8C4
:10024000040BF8E74D4B4E4900228B4202D243F893
:10025000042BFAE74B494C4A002352F8230041F89B
:1002600023000133742BF8D1484B494A802103F80D
:10027000011B9342FBD1474B424A1A60464B8A22EC
:100280001A70A3F5805324225A70A0221A709A790A
:100290009207FCD59A79D406FCD4404A937903F0AE
:1002A0000C03082BFAD13E4B60221A7002331A78E5
:1002B000802AFCD1394B01221A715D225A719A7938
:1002C0009006FCD59979354A4906FBD5354B364918
:1002D00019600021596020231370937903F00C03F7
:1002E0000C2BFAD1314B324A1A60324B324A1A6027
:1002F00000225A60072243F8042C304AC3F80C2D20
:1003000062B602F0BBF8174B1B68DA0705D52C481C
:1003100002F020F82B4B2C4A1A602C4B1B785B0602
:1003200009D5284C284B22689A4204D1244802F06F
:1003300011F80023236031F041FC01F03DFF03F090
:1003400059F8FEE70E20054030800440823F04004B
:100350000100002B88ED00E0002008E0030000858C
:1003600010D0034014D0034002D0074000E0074003
:10037000D412FF1F1C8704003007FF1FD412FF1F79
:100380001447FF1F0002FF1F0000000000E400E010
:1003900064E400E008ED00E0005006400040064044
:1003A00001E007404480044000000602048004404D
:1003B000C010070014E000E01FBF02000000202072
:1003C0008269815B1CE00340A5C3945A00F007409A
:1003D000FFFFFFFFFFFFFFFFFFFFFFFFFFFFFFFF2D
:1003E000FFFFFFFFFFFFFFFFFFFFFFFFFFFFFFFF1D
:1003F000FFFFFFFFFFFFFFFFFFFFFFFFFFFFFFFF0D
:10040000FFFFFFFFFFFFFFFFFFFFFFFFDEF9FFFF23
:1004100010B5054C237833B9044B13B10448AFF33E
:1004200000800123237010BDD412FF1F00000000C4
:1004300004550400084B10B51BB108490848AFF338
:1004400000800848036803B910BD074B002BFBD0A0
:10045000BDE81040184700BF00000000D812FF1F81
:1004600004550400D412FF1F0000000040697047CB
:10047000002070474069C000704700BF4FF4C8704B
:10048000704700BF10B501210446052001F07AFF36
:100490000121152001F076FF0121142001F072FFE7
:1004A0000121062001F06EFF0121082001F06AFF02
:1004B0000121072001F066FF01210E2001F062FFFB
:1004C0000121022001F05EFF0122024BA261E361E3
:1004D00010BD00BFC0F00F402DE9F04F91B088462D
:1004E0000990044601F054FF238CC01A83B2272BD5
:1004F000F8D9BE49BE4A0B68D8F80040BD4843F061
:1005000080730B601368002143F0010313604546BC
:1005100001602B4698F8135098F80D601433079338
:1005200001351A460DF1270108F1340052F8043F55
:1005300023445B7833B183FA56F3DBB205FB03F354
:10054000C3F30723824201F8013FEFD172B6A94BF2
:10055000D8F808201968002A01F1E80A40F33A8225
:10056000DFF898E21F469B46FF26C14672B63B68FD
:10057000A04A534507D93B6841F69C01CAEB0303E7
:100580008B4200F2308299F80D4003940A9B99F84F
:100590000E400B9A069499F81000D9F8004002908A
:1005A000019482EAD21083EAD31404F0AA1400F072
:1005B000AA106340424083EAC41382EAC01299F849
:1005C000115099F812C004954CF6CC4482EA923549
:1005D000CDF820C0204683EA933C0CEA040428406E
:1005E0006340424083EA843382EA803299F80C8087
:1005F00099F80F1002984FEA131C15010CF00F3CEC
:1006000003F00F3305F0F03502F0F0324CEA02024D
:10061000C8EB010143EA050C039B049D0E92C9B28D
:100620000C460591C11A069BCDF834C0E81A89F82A
:100630000E00089889F80C40421C0DF12B0509F1B9
:1006400024030692079802950AAA04929046AC46A3
:10065000039389F80D101D460FAC00223B685345EB
:10066000FCD3DBF80030644903F1E50A0E603B6817
:10067000C3EB0A03BC2BFAD814F8013DDB43DBB211
:10068000CEF800303B68C3EB0A03742BFAD850F85D
:10069000043F0199CEF80060CB5C4BB19DF814107B
:1006A00083FA51F30699DBB201FB03F3C3F307238B
:1006B00055F8041F08F8013B019B5B5C4BB19DF8AA
:1006C000141083FA51F30699DBB201FB03F3C3F371
:1006D00007230132042A0CF8013FBFD10EAA3B6860
:1006E0005345FCD3DBF80030434903F1E50A0E60C3
:1006F0003B68C3EB0A03BC2BFAD812F8013DDB437D
:10070000DBB2CEF800303B68C3EB0A03742BFAD897
:100710000DAB9342CEF80060E1D10A9B0B9A99F899
:100720000E10059183EAD31082EAD21100F0AA10CC
:1007300001F0AA1143404A4083EAC01382EAC11281
:100740004CF6CC4082EA92340146214083EA93354C
:1007500028404A4082EA8132434083EA80331401D0
:1007600099F814C01D0904F0F03403F00F3323434B
:1007700005F00F3502F0F0322A430D93039D029CE1
:100780000E920CF10103DDF81CC006930AA80DF1CE
:100790003C0800213B685345FCD3DBF80030164A87
:1007A00003F1E50A16603B68C3EB0A03BC2BFAD8D9
:1007B00018F8013DDB43DBB2CEF800303B68C3EBF9
:1007C0000A03742BFAD85CF8043F019ACEF8006053
:1007D00013449B78A3B19DF8142083FA52F3069A30
:1007E000DBB202FB03F3C3F3072309E0FCED00E0F7
:1007F000001000E0041000E0C4F00F40C8F00F400B
:1008000055F8042F00F8013B019B13449B784BB132
:100810009DF8142083FA52F3069ADBB202FB03F32D
:10082000C3F307230131042904F8013FB2D10EAA12
:100830003B685345FCD3DBF800306C4903F1E50A13
:100840000E603B68C3EB0A03BC2BFAD812F8013DDB
:10085000DB43DBB2CEF800303B68C3EB0A03742BFA
:10086000FAD80DAB9342CEF80060E1D10A9A0B9B07
:1008700099F91500DDF81C8082EAD21483EAD311BD
:1008800004F0AA1C01F0AA1582EA0C0282EACC1438
:100890006B4083EAC51184EA94334CF6CC451D4085
:1008A00081EA91324CF6CC431340594084EA050268
:1008B00081EA833382EA85321D014FEA121C05F07A
:1008C000F03502F00F322A43019DD9F8081099F84B
:1008D00013400D920CF00F3C054403F0F0334CEA4A
:1008E000030328460139013499F80DC0C9F80810EE
:1008F0000E930FADC9F80000002101943B685345E9
:10090000FCD3DBF80030394A019C166003F1E50A9C
:100910003B68C3EB0A03BC2BFAD815F8013D0194E0
:10092000DB43DBB2019CCEF800303B68C3EB0A032B
:10093000742BFAD858F8043F01940344CEF80060B1
:100940005B783BB183FA5CF3019ADBB202FB03F301
:10095000C3F30723039A52F8044F0392049A02F850
:10096000013B2346034404925B783BB183FA5CF37A
:10097000019ADBB202FB03F3C3F30723029A0131AE
:1009800002F8013F04290292B8D10EAA3B685345F0
:10099000FCD3DBF80030154903F1E50A0E603B6833
:1009A000C3EB0A03BC2BFAD812F8013DDB43DBB2E0
:1009B000CEF800303B68C3EB0A03742BFAD80DABBA
:1009C0009342CEF80060E1D162B6D9F80830002B2E
:1009D0003FF7CCAD064B1B6801F0DAFC099B18848D
:1009E00011B0BDE8F08F62B61368F5E7C4F00F40B0
:1009F000041000E010B50446006808B102F006FDDE
:100A0000204610BD10B50446006808B102F0FEFC97
:100A1000204610BD2DE9F043002983B020DD01EB15
:100A20004101104F0546461800244FF0C0094FF011
:100A3000FF083B788DF805902344294601A803352B
:100A40008DF806808DF80430203401F07BFAB54231
:100A5000E4B2EED13B7801333B7003B0BDE8F083E4
:100A6000004FF7E7C82BFF1F2DE9F047CB1D82B0E1
:100A700023F00703002900AFADEB030D6E4601F133
:100A8000FF34DFF8408140F3998040F2262EB8F819
:100A900000309EFBF1FE0EF1020E5FFA8EFE6D46F7
:100AA0000DEB010C03EB432203EB820303F55853D8
:100AB00019339BB203EB132295F80090D2B212FBCC
:100AC0000EF2A9EB122222EAE27205F8012B65452B
:100AD000E8D1A8F80030012C0FDD8A1EDFF8E8E02D
:100AE0003244157812F801CD05EB4C058EFB059CC0
:100AF000ACEBE57596429570F3D103EB432203EB23
:100B0000820303F5585319339BB203EB1325EDB25F
:100B1000772DA8F800302B4A28D803EB432503EBA8
:100B2000850303F5585319339BB203EB432E03EBB4
:100B30008E0E0EF5585E0EF1190E03EB13231FFAFD
:100B40008EFEDBB20EEB1E25C3EBC303EDB21B1210
:100B500005EB450CC5EB4C1516F803C0A2F800E0F8
:100B60002A12603A654685FA52F5F554002921DDCE
:100B700082468946DFF85480013E00250FE0631B62
:100B800003EB43030AEB0302013597F804E078799D
:100B9000B9790AF803E0A945507091700AD016F8A7
:100BA000011F381D01F04CF998F80030002BE6D1F8
:100BB0002B46E5E70837BD46BDE8F087B8F80030BA
:100BC00089E700BF9407FF1F56555555DD2BFF1FC2
:100BD000024A0723127801F0EDB800BFDE2BFF1F99
:100BE000F0B58CB283B021460A22054601F026F901
:100BF0001F4A20491388087803EB432143F2196602
:100C000003EB8101314489B201EB412301EB830302
:100C100033449BB201FB04F403EB1326240C04EBD6
:100C20004404C6F3850606444FF0C80E01A9FF2709
:100C3000684613808DF800608DF801E08DF8027031
:100C400001F080F92B5D9DF80420291983FA52F3F5
:100C50002B559DF805304A7882FA53F24A708B780A
:100C60009DF8062083FA52F38B7003B0F0BD00BFED
:100C70009407FF1FDE2BFF1F2DE9F043324C91B08C
:100C800004AB10AD54F8042F9A70160C120A1E70A3
:100C90005A700333AB42F5D12C4A2D4B12680392A4
:100CA000039C03FB04F4240EE3B25D0647D5DB434B
:100CB000DAB202F00F03013302F03F02254D1211A8
:100CC0005200AE18AA5C757815FB03F302EB2313F0
:100CD000DBB2220648BF5B425BB2803BDBB203EB78
:100CE0004306B61040360029F6B225DD01EB41017E
:100CF000DFF864900546471800244FF0010899F882
:100D00000020CDF80080B11A04EB840322440B4488
:100D1000D2B2DBB204A902A801F0B4F89DF8081021
:100D20009DF809209DF80A3029706A70AB70033570
:100D30000234AF42E4B2E2D111B0BDE8F08303F077
:100D40003F0203F00F03B9E720F70300582CFF1F01
:100D500000D0430044F60300DE2BFF1F70B58CB2B9
:100D600084B021461422054601F068F8264B1B6822
:100D700003930398C0EBC00000EB8010013CC0F36C
:100D80004F10A1B24404C0F3CA0303D5C3F5FF63F7
:100D900007339BB21A0A1D4E1D4CB65C34F8124044
:100DA000C3F3460206FB02439BB2020448BF5B4208
:100DB0001BB2A3F500439CB201FB0444154B240C69
:100DC00004EB44041B788DF80430FF22C02302A9F1
:100DD00001A88DF805208DF8063001F0B3F82B5DE1
:100DE0009DF80820291983FA52F32B559DF80930F4
:100DF0004A7882FA53F24A708B789DF80A2083FA77
:100E000052F38B7004B070BD582CFF1F5CF60300CA
:100E10004CF60300DE2BFF1F2DE9F04F8CB221466C
:100E200085B014228346013C01F008F8A4B2DFF833
:100E3000CCA001344FF000084FF48C77C826FF2572
:100E4000DAF800300393039908F10700000207FB6A
:100E500001F381B203FB01F1090C4FEA481E48047B
:100E6000C1F3CA035FFA8EFE03D5C3F5FF630733F0
:100E70009BB24FEA132CC3F346001E4A1E4B8DF85B
:100E800004E013F80C3032F81CC08DF8056003FB49
:100E900000C30A049BB248BF5B421BB2A3F50043E8
:100EA0009BB204FB03F31B0C03EB430902A901A84B
:100EB0008DF8065001F046F81BF809E09DF808008F
:100EC0009DF80930864538BF0BF809000BEB090186
:100ED00008F101084878984238BF4B7088789DF82F
:100EE0000A30984238BF8B70B8F1080FA8D105B00E
:100EF000BDE8F08F4CF603005CF60300582CFF1F92
:100F0000F0B591B0002305688DF800308DF8013000
:100F10008DF802302E683A4A8DF8043096428DF8EA
:100F200005308DF8063064D1827C0391012A044695
:100F300004918DF81A308DF81B308DF81C30CDF8E7
:100F400008D01AD08DF819308DF818308DF8173078
:100F50008DF816308DF815308DF8143000228DF88C
:100F60001D2007AB0FA943F8042F9942FBD1AB69B1
:100F7000204602A9984711B0F0BD224A13780133E8
:100F800003F0070313F0010F14BF80210021137039
:100F90009A0744BF41F04001C9B25B0748BF41F026
:100FA000200110310022C9B20DF117030DF11A070B
:100FB0004FF4807EAAB19EFBF2F2D2B2501CC0B2B6
:100FC00000FB01152D121870EEB205B1013E03F8B9
:100FD000036C00B11A7001339F4208D0DA78002AFE
:100FE000E9D11A7003F8032C01339F42F6D125682A
:100FF000B4E70A4601AB6946B04711B0F0BD00BF87
:1010000009100000F012FF1FF0B5857C1C785E7897
:101010009B788FB0012D8DE8060002928DF812406A
:101020008DF813608DF814301BD000238DF811302B
:101030008DF810308DF80F308DF80E308DF80D30A2
:101040008DF80C3000228DF8152005AB0DA943F862
:10105000042F8B42FBD1036869469B6998470FB008
:10106000F0BD1B4A1378013303F0070313F0010F9F
:10107000137014BF80220022990744BF42F040023F
:10108000D2B25B0748BF42F020021032D2B20DF15B
:101090000F030DF112074FF4807EACB19EFBF4F408
:1010A000E4B2611CC9B201FB02252D121970EEB227
:1010B00005B1013E03F8036C01B11C7001339F427E
:1010C000C0D0DC78002CE9D11C7003F8034CF5E7A4
:1010D000F012FF1FF0B5857C1C785E789B788FB08E
:1010E000012D8DE8060002928DF812408DF81360F4
:1010F0008DF8143020D000238DF811308DF8103089
:101100008DF80F308DF80E308DF80D308DF80C30D5
:10111000032100238DF8151002EB4202194605AC9D
:101120000131082944F8043F1344F9D103686946A2
:101130009B6998470FB0F0BD1B490B78013303F052
:10114000070313F0010F0B7014BF802100219D07CE
:1011500044BF41F04001C9B25B0748BF41F02001E4
:101160001031C9B20DF10F030DF1120E4FF4807C56
:10117000ACB19CFBF4F4E4B2651CEDB205FB0116C6
:1011800036121D70F7B206B1013F03F8037C05B1BA
:101190001C7001337345BBD0DC78002CE9D11C7086
:1011A00003F8034CF5E700BFF012FF1F00291FDD15
:1011B000F0B501EB41010F4F85B0154604464618C6
:1011C0003B7800932A4640230B4903A800F05AFEBF
:1011D0009DF80C109DF80D209DF80E302170627066
:1011E000A37003340335B442EDB2E9D105B0F0BDCC
:1011F000704700BFDC2BFF1FE02BFF1FF0B5154E23
:10120000154F83B006F13005FF243B888DF805406B
:1012100003EB432203EB820303F5585319339BB2CC
:1012200003EB432203EB820202F55852193292B2C9
:1012300002EB122E03EB1323314601A803363A804A
:101240008DF806E08DF8043000F07CFEB542DCD16C
:1012500003B0F0BDE02BFF1F9407FF1F10B5104C2B
:1012600082B00023204601AA10218DF804308DF8A9
:1012700005308DF8063000F08DFDFF23237063707C
:10128000A37023736373A37323766376A37684F8C2
:10129000243084F8253084F8263002B010BD00BF19
:1012A000E02BFF1FF0B58FB0FF2402A8C0236946D2
:1012B0008DF808308DF809408DF80A4000F042FEA4
:1012C00002A8602301A98DF809408DF80A408DF825
:1012D000083000F037FE00239DF800009DF8011053
:1012E0009DF802209DF804709DF805609DF8065059
:1012F0008DF80A508DF80D508DF80E308DF80F30A6
:101300008DF810308DF811308DF812308DF81330C3
:101310008DF81A308DF81B308DF81C308DF81D308B
:101320008DF81E308DF81F308DF814008DF81700E1
:101330008DF815108DF818108DF816208DF81920DD
:101340008DF8087002AC8DF80B708DF820708DF858
:1013500009608DF80C608DF821608DF822508DF8B1
:1013600025508DF823708DF824608DF826308DF887
:1013700027308DF828308DF829308DF82A308DF8F7
:101380002B308DF82C008DF82D108DF82E208DF837
:101390002F008DF830108DF831208DF832308DF817
:1013A00033308DF834308DF835308DF836308DF897
:1013B00037300FCC044D0FC50FCC0FC594E80F008C
:1013C00085E80F000FB0F0BDE02BFF1F083838B5DF
:1013D0000D2808D8DFE800F01A2938474D50565C30
:1013E0006B7A8EA2B10838BD5B4B5C4903F13004C7
:1013F00051F8042F9A70100C120A18705A700333A7
:101400009C42F5D1564B01221A7038BD524B5549BA
:1014100003F1300451F8042F9A70100C120A18705E
:101420005A7003339C42F5D1ECE74B4B4E4903F124
:10143000300451F8042F9A70100C120A18705A7068
:101440000333A342F5D119E0434B474903F130047C
:1014500051F8042F9A70100C120A18705A70033346
:10146000A342F5D1CEE7FFF71DFF3D4B01221A70D5
:1014700038BDFFF7C3FEC5E7FFF7F0FE384B00228B
:101480001A7038BDFFF7EAFE354B01221A7038BDDD
:10149000314B364903F1300451F8042F9A70100C87
:1014A000120A18705A700333A342F5D1AAE72A4BE7
:1014B0002F4903F1300451F8042F9A70100C120ACE
:1014C00018705A700333A342F5D19BE72248294D87
:1014D000024600234FF47F0101E055F8041F0C0C75
:1014E000C45403330C0A302B9170547002F1030280
:1014F000F3D1C3E718481F4D024600234FF47F0184
:1015000001E055F8041F0C0CC45403330C0A302BB3
:101510009170547002F10302F3D173E70E4B164938
:1015200003F1300451F8042F9A70100C120A18704D
:101530005A7003339C42F5D164E7074B0F4903F11E
:10154000300451F8042F9A70100C120A18705A7057
:1015500003339C42F5D155E7E02BFF1FE0F7030072
:10156000DC2BFF1F60F60300E0F60300A0F703008A
:1015700020F7030004F6030060F70300A0F6030061
:101580002DE9F04FAB4B1E685D68AE428DB000F0A8
:10159000C380341DA54200F0948131F03BF9A31BB8
:1015A0009B10013390FBF3F202FB130006EB800368
:1015B000A34205D0236856F82020226046F8203048
:1015C0000434A542E9D19B4B1D685B689D4200F045
:1015D000A380994FDFF8A492DFF8A48255F8040B9A
:1015E000072800F39C8001260024DFF898B2DFF87A
:1015F00098A203E055F8040C013401365AF8203063
:10160000002C00F06081012C00F07581022C00F0AC
:101610007E81032C00F07581042C00F06081052C84
:1016200000F05781062C00F06081DBF81C004FF4BD
:1016300084719847082EDDD1804B1978184600F048
:1016400021FB7E480A2100F07FFB7D480368DC0710
:1016500040F1DA803B687B4C029394E80600029BE1
:101660005B1A934207D3784A3968137801910133A2
:10167000019913702160754E3368D90740F1BB8022
:101680003B68734C0593059B22886188A8FB030384
:10169000C2EB93139BB299420CD83B686D490493FB
:1016A000049A0B78A8FB02020133920903F00703A6
:1016B00022800B70684B1B68DB0774D53B680B936B
:1016C0000B9BB9F80020B9F80210A8FB0303C2EB8A
:1016D00093139BB299421AD83B680A930A9BA8FBC2
:1016E00003239B09A9F80030082455F8043CDA1EAE
:1016F000142A09D8594A1068594A1268204452F8E5
:101700002330436000F026FD0834302CEDD1494BE6
:101710005B68AB427FF462AF0DB0BDE8F08F514B18
:101720001B68DA0753D53B684F4C0893089B228807
:101730006188A8FB0363C2EB93139BB2994209D85B
:101740003B680793079BA8FB03239B09C0B2238038
:10175000FFF73CFE454E464C3278DFF830B101329F
:10176000D2B2327004F1200A00E0327854F8040F4B
:101770005BF8041FFFF71AFDA245F6D13D493E482C
:101780000A78037801320A702C4A01330370117809
:10179000104600F077FA0A21284800F0D5FA2E4BBF
:1017A0001B68DB078AD42C4800F032FD002885D066
:1017B0003B680993099B2848A8FB03239B09A9F8C8
:1017C00000301E23A9F8023000F028FD76E72548F6
:1017D00000F01EFDF8B9244C3B680893089B228852
:1017E0006188A8FB0303C2EB93139BB29942B1D863
:1017F00055F8040CA4E7304600F00AFD002852D149
:10180000134C3B6805933EE700F002FD00283FD1F2
:101810000C4C3B6820E73B680693069B124C114832
:10182000A8FB03239B0923800A23638000F0F6FCB6
:10183000D2E700BF142CFF1F582CFF1F342CFF1FB2
:10184000CC2BFF1F242CFF1FDE2BFF1FD02BFF1FD5
:101850002C2CFF1FB82BFF1FD82BFF1FBC2BFF1FEB
:101860009807FF1FD42BFF1F302CFF1F112CFF1FC9
:101870005007FF1F102CFF1FDF2BFF1FF412FF1F4D
:10188000D34D62105407FF1F3407FF1F7007FF1F5F
:101890003B68224C0093009B236014232048636024
:1018A00000F0BCFCB5E73B680393039B1D4CA8FB11
:1018B00003239B091E2230462380628000F0AEFC89
:1018C0009FE7354685E6DBF800004FF484719847C2
:1018D00090E6DBF814004FF4847198478AE6DBF851
:1018E00010004FF48471984784E6DBF818004FF439
:1018F000847198477EE6DBF804004FF484719847C2
:1019000078E6DBF80C004FF48471984772E6DBF858
:1019100008004FF4847198476CE600BF242CFF1F29
:10192000CC2BFF1F2C2CFF1F30B4184C238803EB4B
:10193000432503EB850303F5585319339BB203EB9F
:101940001325EDB2AA421ED903EB432203EB820317
:1019500003F5585319339BB289B203FB01F1090C0B
:1019600001EB41012380435C4418FF2583FA55F3C2
:101970004354627882FA55F2A378627083FA55F381
:10198000A37030BC7047238030BC70479407FF1FA2
:1019900038B5074B04461A780D46072300F00AFABB
:1019A000294620465022BDE83840FFF7BDBF00BFA2
:1019B000DE2BFF1F2DE9F04142680768D31B9B1007
:1019C0000646884605D05D00AB4225D96FF0030579
:1019D00000E00425284601F015FD726837680446CA
:1019E000D21BD8F80010931014EB020818BFA150B6
:1019F0005BB908F1040817B1384601F007FD25442A
:101A0000B56086E81001BDE8F0813946204608F14E
:101A1000040830F0FFFDEFE7B5F1804FD6D22C4639
:101A2000002DDDD0DD00D5E770B5012182B020208A
:101A300000F0A8FC0021202000F09EFC242001F0F2
:101A4000E1FC24220021044630F048FE284A294BBC
:101A5000116823600120FF23A07423736373A373B1
:101A6000E37323746374002940D0234A136803B1DD
:101A70009C600025214E14602B4625842049266059
:101A800020464FF4847200F0ABF81E4B1E49B02480
:101A9000FF25F02244730573827303F1300451F87B
:101AA000042F9A70100C120A18705A700333A34254
:101AB000F5D102AD0023154A45F8043D0121144C2F
:101AC00011706268A1688A4202F1040109D002B172
:101AD00013606160019B0133152B0193F1DD02B0AE
:101AE00070BD29460A48FFF765FFF3E71460BCE7BD
:101AF000442CFF1FC8F50300542CFF1FE8F503001A
:101B0000F812FF1FE02BFF1F60F60300DC2BFF1F06
:101B1000142CFF1FF0B52A482A4E8DB002F040FC6D
:101B2000294A2A49264802F005F9294B1B685B68B7
:101B3000019300224FF0020E0E2708240621039382
:101B40000593079309930B930725142330208DF8F1
:101B500000E08DF808708DF8184032607260B26055
:101B60008DF810508DF820108DF8283001F04AFCC7
:101B700000F1300E3060C6F808E004466F460DF103
:101B8000300C3D460FCD654520606160A260E3608A
:101B90002F4604F11004F4D10B4A0E490948C6F847
:101BA00004E002F0C7F80C4B074A0C490024184621
:101BB0001C605C609C600DB0BDE8F04002F0BAB8FB
:101BC000202CFF1FBC2BFF1F3007FF1FBD43000051
:101BD0009807FF1FF5090000142CFF1F050A0000DD
:101BE000F8B51E1E03680446CCBF02EB4205002573
:101BF0000F469B68D8BF164698477A1923686260DB
:101C00005B690A4A6661934201D12046F8BD2046CD
:101C100098470028F9D0064A064B516893FBF0F02C
:101C2000884238BF084650602046F8BD7104000065
:101C3000342CFF1F40420F0070B40F4C2268531C1D
:101C40008A4283B0236013DB0C4D0D4A2968019151
:101C500001992D6800951668009D15604FF47A7201
:101C60000025891B02FB03F32560B3FBF1F34380DE
:101C700003B070BC704700BF482CFF1F582CFF1FDB
:101C8000502CFF1F2DE9F04F43682D4C83B00646C2
:101C90008946002B4BD100F07BFBF36820601BB121
:101CA0004846B16898478146264B1C680025002CA1
:101CB00036D07388A77C61686269632B236898BFFC
:101CC000A574D3F804808DF804508DF805508DF874
:101CD0000650B9F1000F1CD004F10B030DF1040EF6
:101CE00004F10E0C13F801BFBBF1000F0DD093F8F7
:101CF00003A00AF101000BFB0000BAF1000F04D0B1
:101D000009FB00F0000C8EF8000063450EF1010E97
:101D1000E8D1204601ABC047A774A468002CC8D105
:101D200030461921FFF788FF03B0BDE8F08F00F0BF
:101D30002FFB22687368801A9842AAD3ABE700BFD2
:101D40004C2CFF1F442CFF1FF0B50A4D83B02B68AD
:101D50000093009F04460E4621782046FFF792FF2D
:101D600001F058FB2B680193019BDB1BB342F3D3BB
:101D700003B0F0BD582CFF1F00207047044B002219
:101D8000FF204FF0FF31187099605A80DA60704779
:101D9000342CFF1F00290BDD01EB410101441378B6
:101DA0000370537843709378837003308842F6D180
:101DB000704700BF70B582B0FF25F02400298DF870
:101DC00004208DF806508DF8054010DD01EB41012F
:101DD0001E4604464518214601A800F0B3F89DF8B8
:101DE000042003343244AC428DF80420F3D102B015
:101DF00070BD00BF09B330B44D1EADB2D243013542
:101E0000D2B205EB450505440132441C14F8013CEF
:101E100002FB03F31B1204F8013C4178837802FBB8
:101E200001F102FB03F309121B12417083700330AE
:101E3000854204F10304E9D130BC7047FFF7DABFF3
:101E400001EB4103C1EB8313003118BF012101EB0A
:101E50002321C9B28B000A06DBB20ED401F0400187
:101E600001F0FF0219B90370427082707047FF21C0
:101E700000224370017082707047FF2283700270ED
:101E8000427070472DE9F043141104EB440512F041
:101E90000F020D449DF81C6000D0E6B92C786978DB
:101EA000AA78FF2B12D0002B43D00133DBB21CB138
:101EB00003FB0444C4F3072419B103FB0111C1F36C
:101EC00007211AB103FB0222C2F3072204704170FA
:101ED0008270BDE8F0830F2C2E7895F80190AF78D2
:101EE00000D0E91C120182F0FF056C1C91F800C0C3
:101EF00091F801E091F8028004FB06F6511C04FB06
:101F000009F504FB07F4C4F30724C6F3072701FB14
:101F100008F201FB0CF6C5F3072501FB0EFE04EBEE
:101F2000222207EB262605EB2E21F4B2C9B2D2B24B
:101F3000B7E71A4619461C46047041708270BDE826
:101F4000F08300BFF0B4047846788278E00000F0B7
:101F5000F80000EB800303EB031303442506C3F3EF
:101F600007235FD404F0400505F0FF0704F02004C8
:101F7000002D46D104F0FF00002C6CD05533DDB2AB
:101F8000AB243B46FF2E1CD0002E79D01CB106FBA3
:101F90000444C4F307241DB106FB0555C5F307250A
:101FA0001BB106FB0333C3F30723F043C0B200FBAE
:101FB0000000C0F30720044405440344E4B2EDB23A
:101FC000DBB2FF2A18D012FB02F0003218BF012248
:101FD00002EB102212F0FF0256D01CB102FB0444A7
:101FE000C4F307241DB102FB0555C5F307251BB13A
:101FF00002FB0333C3F307230C704D708B70F0BCEE
:10200000704704F0FF075CBB00EBC00400EB44002A
:1020100000EBC0000412563BC4F1AB04DDB2E4B2E5
:102020003B46AFE704F0400707F0FF05E7B904F0CF
:10203000200707F0FF04002F36D100EBC00300EBB0
:10204000430000EBC000C0F30720C0F1AB055530E2
:10205000EDB2C3B296E7DC43E4B21D46034691E716
:102060000024DD43EDB28DE704F0200404F0FF0509
:1020700094B903F15504E4B2C3F1AB03DBB281E7D9
:10208000FF231D461C469CE71546144613460C705C
:102090004D708B70F0BC7047A3F15604E4B200257C
:1020A000C3F15503DBB26DE7D8431C46C3B269E701
:1020B00010B5044671B1002100F05EF947F6906357
:1020C000013BFDD10121204600F056F9094B013BAF
:1020D000FDD110BD00F050F948F64823013BFDD179
:1020E0000121204600F048F947F6E013013BFDD1FD
:1020F00010BD00BF708E010070B50E460021054670
:1021000000F03AF9114B013BFDD10121284600F0C6
:1021100033F90F4B013BFDD11F2426FA04F101F0E6
:102120000101013C2846FFF7C3FF631CF5D10021E4
:10213000284600F021F948F2B833013BFDD10121D6
:102140002846BDE8704000F017B900BF603D0800A8
:10215000B01E040041680078FFF7CEBF08B5104CF0
:1021600008E0236859050DD423681A050FD42368A5
:10217000DB0411D423685803F3D500F035FB236842
:102180005905F1D501F0C2FA23681A05EFD501F01F
:1021900053FB2368DB04EDD501F0E4FBEAE700BF65
:1021A0003480044008B5FFF7D9FF00BF014B10226F
:1021B0001A80704700200540704700BF094908B5E4
:1021C0000B6830B16A461844A2F50052904202D220
:1021D0000860184608BD2EF009FD0C2303604FF07F
:1021E000FF3008BD9C07FF1F002070474FF0FF30F5
:1021F000704700BF4FF400534B600020704700BF92
:10220000012070474FF0FF30704700BFFEE700BF6E
:102210000078B0FA80F04009704700BF01230370D6
:10222000704700BFFEE700BF084A1378802B01D03B
:10223000002070470649074B0748086000211970C5
:102240001378802BFCD00120704700BF03E00740CB
:102250004480044001E0074000002822094A137826
:10226000012B01D00020704703F1804303F5FC23CC
:10227000602119701378802BFCD1034B034A1A603C
:102280000120704703E0074044800440000006023C
:1022900010B4114B53F8302092F8804234B101232E
:1022A00079B182F880305DF8044B704703EBC003CE
:1022B0005B681A6851B922F002021A605DF8044B9B
:1022C000704782F800315DF8044B704742F003021A
:1022D0001A605DF8044B704780F803001C4A02EB5B
:1022E000C00301295B6811D004291BD052F83000CB
:1022F000002280F8802229B1022920D0032922D08F
:102300001A6070474FF480721A60704752F83000BC
:102310004FF4A27280F880121A601A6822F020022C
:102320001A60704752F830104FF4A272012081F801
:1023300080021A601A6842F020021A60704740F268
:1023400003121A6070474FF481721A60704700BF21
:1023500080F8030030B4054B054D064C00221021D7
:102360001A602A602060196030BC704714D00340A6
:1023700004D0034000D003403F2801D8FFF788BFB6
:10238000704700BF3F2801D8FFF7A8BF704700BFC4
:1023900072B60D490D4B0E4A1B680868126862B68A
:1023A000520102D5322B88BF0130C3F52F330949C2
:1023B00003F21F334FF47A729B08A1FB031302FB55
:1023C00000F000EB93007047582CFF1F18E000E06E
:1023D00004ED00E0176CC1162DE9F843054672B60E
:1023E000224F234B234A1B683C68126862B6520195
:1023F00002D5322B88BF0134B5B3C3F52F3303F2B6
:102400001F331D4EDFF86890DFF868809B084FF49B
:102410007A72A6FB031302FB04F404EB930472B676
:10242000D9F800103A68D8F800E062B6C1F52F3349
:1024300003F21F339B08A6FB03031EF0806FC4EB5F
:1024400093034FF47A7002D0322988BF013200FB27
:102450000233B3F57A7F04D3013D05D004F57A74D5
:10246000DDE700F0D7FFDAE7BDE8F883582CFF1F5F
:1024700018E000E004ED00E0176CC116F8B54E4B13
:102480004E48DFF85CC14E4C4E49DFF858E14E4EE5
:102490004E4D4F4F4FF000621A604FF080521A605D
:1024A0004FF000521A604FF080421A604FF0004225
:1024B0001A600022026028234EF6FF70CCF800005C
:1024C000CEF8003023600EF5012E0B6033602B60D8
:1024D00006F500263B6005F50025A36207F50027F9
:1024E0008B6204F5012401F5012106F6E87605F674
:1024F000E87507F57F6710310EF1100E2034336058
:102500002B60CEF800303B600B602360314CBB6128
:102510008B6109212160A7F5002704F58054203F35
:1025200008343A602060BB60E36047F8041C04F59F
:10253000FD2407F5FE27043704F2FC74226038609E
:10254000A360FB6044F8041C083404F6FC74C7F86C
:10255000FC2F2060A4F5E124A4F2DC7433602B602E
:10256000C7F8F81F21681C4841F400712160016818
:102570001A4C0EF57F4E0EF1E80E07F5883706F57A
:10258000803605F5803541F000710160CEF80020FD
:1025900047F6FF710822396033602B60226001F03A
:1025A00035F81920FFF718FF00F04AFD40F213102C
:1025B000BDE8F840FFF710BF04E100E004800340ED
:1025C000148003401C800340248003402C8003407F
:1025D00034800340008003400480044000900C409D
:1025E000088003400C800340054A064B10781B7896
:1025F000C0B2DBB2984238BF4030C01A704700BF4B
:10260000602CFF1F612CFF1F30B42B4B1A799406EE
:102610001FD52A48DA790378294901333F2B0978F5
:10262000C8BF00238B42D2B203D0264CD9B2E254A9
:102630000170254A116861B1244A1278D2B29342DE
:1026400036BFC2F140029B1A9B18272BC4BF01233F
:102650000B70194AD378DBB2180611D45A060DD57F
:10266000154B1B795B0609D5194B1A491B680022CB
:102670000A7003B11A70104B2C22DA7030BC70470C
:1026800011790906EAD5144910480C780178C9B2C5
:102690008C420DD04A1C272A84BF00210A460F4DC8
:1026A000054C98BFD1B2AA5CD2B2E2710170D5E7F5
:1026B0006C21D170D2E700BF00A00E40602CFF1F3C
:1026C000612CFF1F8C2CFF1F5C2CFF1FCD2CFF1FCC
:1026D000D02CFF1FCC2CFF1FD42CFF1F642CFF1FFE
:1026E000F0B472B61A491B4E012311F8014B194F71
:1026F0009A00240742F0010505D556F8324064B12E
:1027000056F83520BAB10133052BEED162B6124B23
:1027100000221A70F0BC00F01BBD0F4C0F4D217849
:1027200047F8325007EB431308304A1E58602270B6
:1027300062B6F0BC70470849094B0A7847F8353053
:1027400007EBC5030830013A58600A7062B6F0E73B
:1027500080FA03000000FF1FAD2DFF1F880040001E
:10276000C8004000431E032B1DD81B4A400140F007
:10277000100030B4104472B6184CE25C032A1BD827
:10278000DFE802F00212151703220D88E25410F060
:10279000080F14BFC823882343EA054308310360A8
:1027A000416062B630BC704708300222EDE7052276
:1027B000EBE708300422E8E7094A52F8230038B171
:1027C000084A52F82300416042F8231062B6E9E754
:1027D00042F82310034AF7E70000FF1FBC2DFF1F3C
:1027E000842DFF1F942DFF1F2DE9F04FDFF804A368
:1027F000DFF804B387B044E0A94F4FEA930807EB32
:10280000C809013ED9F8042003F00803F6B2A2F18A
:10281000080003F0FF04002B40F0FE8057F838302A
:102820001B0C99B222F8081C002B00F0EC809D4B89
:1028300022F8064C42F8044C53F82620002A00F0F7
:102840002B82994D55F826305860984C45F8260053
:1028500034F81630194424F8161000F059FC0028FA
:1028600000F01382924A934B19F0080F00F1080010
:1028700018BF1346C9F8040047F8383008238AF80F
:1028800000309AF80040E4B260071AD58A4B1B78F2
:10289000A3B18A490A7802F0FF0322B1013BDBB2FF
:1028A0000B7003B900BE86490A7802F0FF032AB113
:1028B000013BDBB20B70002B00F0BD8104238AF8D2
:1028C000003004F0080303F0FF02002B00F0C88082
:1028D0009BF80030DBB21E098ED19C08704F57F870
:1028E000342007EBC401C2F38302013A49680C2A81
:1028F00000F28580DFE802F0797983838383838324
:1029000042838383070008686E4B6F4D0193684BC9
:102910004A686E4E47F8343081B240F28164694BA8
:102920006A60286000220120A1421A603A61BA61FF
:10293000307000F2E380B1F5D06F80F02782B1F5FE
:10294000817F00F0E08100F2C381802900F03682AF
:10295000822940F0DE81A9885D4B01F07F010429C6
:1029600000F2D8815B4C89000B44227062701A78A7
:10297000930740F122832070022023E2514B019300
:102980001A683AB3544B514E5449188834780D782C
:102990004028864645F0020828BF4FF0400E002C24
:1029A00084F001043470CEEB00000CBF8824C824EE
:1029B00007EBC80680B285F0010544EA0E44726058
:1029C000188047F8384072440D70002800F0B78036
:1029D000019B1A603C4B1A88B2F5A06F0FD1002101
:1029E0009A7859703E4B1A7009E0374A108842F2C3
:1029F0002102904200F0A8802D4A47F83420394A3D
:102A0000012313703AE72A4A2A4B19F0080F18BF1E
:102A1000134647F8383031E700F09AFB324A334921
:102A200052F82630002B00F03B8158688C5D42F84C
:102A3000260003F10802C9F80420032C05D8DFE8BA
:102A400004F02C02292602228A551A8819F0080F50
:102A50000CBF8823C82343EA024347F838300DE708
:102A6000E00700F1EB80210600F12881A20706D5DE
:102A70001F4A204913780220DBB213700870E30666
:102A800002D51C4B10221A7007B0BDE8F08F04224B
:102A90008A55DAE705228A55D7E703228A55D4E713
:102AA0000000FF1F302DFF1FDC2CFF1FFC46FF1F07
:102AB000C800400088004000B82DFF1F412DFF1FB7
:102AC000C02DFF1FD82CFF1FA42DFF1F402DFF1F5F
:102AD000C0200740B02DFF1FEC2CFF1FAC2DFF1FA7
:102AE0009820074094200740842DFF1FBC2DFF1F16
:102AF00088200740802007409020074042F22104B0
:102B0000A14200F0948043D8B1F5086F00F0A8818D
:102B1000B1F5106F40F0FD80B84AB94CA97811703A
:102B200004F1800503E00834AC4200F09E81236A82
:102B30001906F8D5606A083800F00AFBF3E7BEF121
:102B4000400F18BF002243E7AE4ACD1D11F8013BEC
:102B500002F8013FA942F9D1AB4A1268862A00F077
:102B60001181AA49AA4E0A78307882F0010500281E
:102B700042F002020D700CBF8821C82147F83210C4
:102B800007EBC20280F0010000213070516033E792
:102B900042F22124A14240F0FE81DFF8BCC29D4BED
:102BA0009D49AC78DCF800501D6081460C70002017
:102BB000029080468446044694490D7845F0020E02
:102BC00007EBCE03B9F1000F5C600CBF8824C8246A
:102BD00044EA080385F0010447F83E3032700C7077
:102BE000DFF81CE28A4BDFF82482002840F098804E
:102BF000BCF1400F1BD144F0020407EBC403029F59
:102C0000DFF8FCE15F60002A40F09F80020442F0A0
:102C1000880207444EF8342086F800900D703B4639
:102C2000402804D100207D4A019910800B607C4A25
:102C300001231370E3E600F0BFFA3FE6704B7848DB
:102C400072491A614FF0020E80F800E0754F0A7069
:102C5000754919609960754E754D764C9A610D21D4
:102C60003970FF213170DFF8F4E129702270724D64
:102C7000724A8EF800109F27012406F8047C5D60DC
:102C80000470DA6007B0BDE8F08F6D4A47F838008D
:102C9000137801331370F1E543F82600694DD4E54C
:102CA0008B5D032B67D801A252F823F07D2800002A
:102CB0007D280000012D0000FB2C000059495C4BD1
:102CC00080220D2008701A70A2077FF5D8AECFE6DB
:102CD00040F20232914240F05681A98801F07F0112
:102CE000042916D86A88A2B94E4C89000C44814642
:102CF000217841F00201217059E701238B55BDE590
:102D000000238B55BAE5A98801F07F01042940F220
:102D10004781444B0F221A70414A012313706EE61B
:102D200040287FF668AF44F002040EEBC401029E17
:102D30004E60AAB1444A83F800903346403888F880
:102D4000005040334EF834206DE70204029B86F8B1
:102D5000009042F0C8020D7003444EF834205FE743
:102D600083F80090029B304A88F800504038403386
:102D70004EF8342057E719F0080F0CBF0223032345
:102D80008B557BE5314A0F211170EAE6304A5468D1
:102D9000002CBED06888B5F804E003E00C3254681B
:102DA000002CB6D013888342F8D153887345F5D1EF
:102DB000000A03280CBF2078108903E0254C02206C
:102DC00022706270EA88824280F00C810F490D788F
:102DD000402A45F0020E944607EBCE0028BF4FF084
:102DE000400C04EB0C0344600293CCEB02004FEA6E
:102DF0000C484FF001090022C824E9E6B82DFF1F56
:102E00000000FF1F0747FF1F0847FF1FAC2DFF1FD4
:102E1000402DFF1F0447FF1FCC2DFF1FEC2CFF1F71
:102E200094200740C02007408800400088200740C9
:102E30008020074098200740F02CFF1F442DFF1FE3
:102E4000AD2DFF1FDC2CFF1FC8004000412DFF1FD0
:102E500084FA0300B02DFF1F582CFF1F8C20074061
:102E6000684A694C12782270ACE76849684B694A35
:102E700002916949694C6A4D039405964FF0000927
:102E800088461C4616460495206828B1456800F01F
:102E90005FF92846002DF9D100232360049B306898
:102EA0001A46002342F8293028B1456800F050F94D
:102EB0002846002DF9D100223260029A98F800309D
:102EC0001146002241F8042B039A0291023B4FF075
:102ED000000122F81910032B07D8DFE803F03402B1
:102EE00034024FF0010388F8003009F10109B9F10B
:102EF000040F04F1040406F1040608F10108C3D12B
:102F0000484B059EDFF83091DFF8308100211970C1
:102F1000012518F8013B09F8043B1A0718D4AC0046
:102F200044F0020244F00304002347F8323047F82B
:102F300034303D4B994505F10105EAD196F80090F2
:102F400089F0010233E64FF0000388F80030CCE747
:102F500000F0DEF8AC0007EB451300F10802002892
:102F600037D05A60314B47F8343000F0D1F844F094
:102F7000010307EBC30200F1080100B351602C4AC2
:102F800047F83320CCE7B1F5A06F7FF4C2AE002242
:102F90004FF001090BE642F221329142F7D0B8E638
:102FA0006A88002A7FF4B5AE224C89000C44814621
:102FB000217821F002012170F9E5022002E7194B86
:102FC00044F001021B7847F83200164A01331370AF
:102FD000A6E7144B134A1B78AC00013347F83400C2
:102FE0001370C2E74028844628BF4FF0400C04EB22
:102FF0000C03CCEB00004FEA0C48029300224FF088
:103000000109D9E5B82DFF1FB02DFF1F942DFF1F1B
:10301000302DFF1F842DFF1FBC2DFF1FFC46FF1FFF
:10302000DC2CFF1FAD2DFF1FD4200740880040007F
:10303000C8004000C0200740C420074080FA0300B9
:103040002DE9F041274C00F0F7FD002204F1880043
:1030500023461A605A60083383424FF00001F8D1CA
:103060002148224A0368DFF89CE0214E214D224F7F
:10307000DFF894C0DFF8948043F480230360136882
:1030800043F04073136003238EF80030A0233370A5
:1030900002F5C922C4F3072300F528302B708030D5
:1030A000C4F3074310323B70240EFF230470134D0A
:1030B0008CF80030124888F800301370012306F8AD
:1030C000AC3C4FF400140EF8441C7026102107F895
:1030D0002C3C2E70046082F8F810AEF1440EBDE86E
:1030E000F08100BF0000FF1F3480044000D8004082
:1030F000402107409C200740B020074035E400E015
:1031000004E100E044210740802007408820074078
:1031100072B60D480268B2FA82F30B2B10DC4FF046
:103120000041D94022EA0102026062B6074803EB7F
:10313000C303DB00C2180021C15010465160704724
:1031400062B60020704700BFA007FF1FD003FF1F1B
:103150000D4B0E4AC31AA2FB03231B090B2B0CD8E1
:103160000B4A127852B972B60A484FF00041026811
:1031700021FA03F31A43026062B67047064A1278D6
:10318000002AF0D0FFF7ACBAD003FF1F398EE33826
:10319000AD2DFF1FA007FF1FB82DFF1F044B054AD1
:1031A0001B6890881BB11A885B88D31A1844704733
:1031B000C82DFF1FFC46FF1F38B50E4B1B7873B997
:1031C0000D4C216861B103F0FF054B880B80042092
:1031D000FFF7C8FA256038BD084B01221A7038BDC8
:1031E000FFF796FF0028F7D00146BDE838400420DD
:1031F000FFF7B8BAC12DFF1FC42DFF1FC02DFF1F41
:1032000010B4EFF3108272B6437F33B9017F012906
:1032100008D0032910D00123437702B962B65DF8C4
:10322000044B7047114C2168A1B1114943610B68EF
:10323000836108605861EEE70E4C216881B10E4948
:1032400043610B688361086058610C4B4FF08051FB
:103250001960E0E7064B4161816120601860DAE7A0
:10326000054B4161816120601860EEE7E02DFF1F92
:10327000DC2DFF1FD02DFF1FD42DFF1F04ED00E01C
:1032800010B4047F4160022CC26003D05DF8044B8F
:10329000FFF7B6BF83685DF8044B184770B5EFF3CE
:1032A000108272B60C4C206880B10C4E0025436928
:1032B000236073B19D6102B962B645778368984710
:1032C000EFF3108272B620680028F0D102B962B61E
:1032D00070BD3360EFE700BFD02DFF1FD42DFF1F5F
:1032E000FFF7DCBF184A30B41468002C27D00368FD
:1032F00021688B420ED2CB1A00218460C16023600A
:10330000E06010600223037530BC704711688B4287
:10331000144608D3A2685B1A0360002AF6D18260C3
:10332000C460A060EEE7D268C2608460E060C568F7
:10333000CB1A0222A8602360027530BC70478460FB
:10334000C4601060DEE700BFD82DFF1FF8B5224E25
:1033500034682CB32368002B3AD1204F1D4604E07B
:103360003468ECB12368002B32D1A36803B1DD606F
:1033700020693360036825751B68BB4221D1037F38
:103380004560022BC46020D0FFF73AFF6368002B32
:10339000E6D023602046FFF7A5FF3468002CE1D17A
:1033A000EFF3108372B60E4A00211068116003B962
:1033B00062B628B18468FFF795FF20460028F9D14E
:1033C000F8BD224600219847E0E783689847DDE78B
:1033D000013B2360E4E700BFD82DFF1F81320000CE
:1033E000E82DFF1F024A136801331360FFF7AEBFD9
:1033F000582CFF1F08B5FEF717FBFEF7C1F800F0C9
:1034000009F8FAE72EF046BD2EF044BD2EF04ABD75
:103410002EF048BD38B52C4C237803B138BD0123BC
:103420002370FFF7BBFE002842D100F05FF90028AF
:103430003BD100F0F1F9002834D100F083FA70BBE1
:1034400000F0FCFA40BBFFF7CFF810BB00F072FBB6
:10345000E0B900232370EFF30583002BDED1EFF3F7
:10346000108172B6194B186828B3194C227812BB18
:1034700045691D60012323700DB3AA6101B962B6CD
:1034800000254577836898472570C7E700F020FC42
:10349000DFE700F01BFCD9E700F016FCD3E700F0F3
:1034A00011FCCDE700F00CFCC7E700F007FCC0E71B
:1034B00000F018FCB9E70029B0D162B638BD054B61
:1034C0001D600029DCD1DAE7EC2DFF1FE02DFF1F86
:1034D000E42DFF1FDC2DFF1F844641EA000313F09B
:1034E00003036DD1403A41D351F8043B40F8043B0B
:1034F00051F8043B40F8043B51F8043B40F8043BCE
:1035000051F8043B40F8043B51F8043B40F8043BBD
:1035100051F8043B40F8043B51F8043B40F8043BAD
:1035200051F8043B40F8043B51F8043B40F8043B9D
:1035300051F8043B40F8043B51F8043B40F8043B8D
:1035400051F8043B40F8043B51F8043B40F8043B7D
:1035500051F8043B40F8043B51F8043B40F8043B6D
:1035600051F8043B40F8043B403ABDD2303211D30D
:1035700051F8043B40F8043B51F8043B40F8043B4D
:1035800051F8043B40F8043B51F8043B40F8043B3D
:10359000103AEDD20C3205D351F8043B40F8043B0D
:1035A000043AF9D2043208D0D2071CBF11F8013B0B
:1035B00000F8013B01D30B8803806046704700BFD1
:1035C000082A13D38B078DD010F003038AD0C3F1E0
:1035D0000403D21ADB071CBF11F8013B00F8013BC2
:1035E00080D331F8023B20F8023B7BE7043AD9D381
:1035F000013A11F8013B00F8013BF9D20B78037056
:103600004B7843708B7883706046704730B429489C
:10361000294A2A4B2A4D6024E121047011701B783D
:10362000284C082B30D00A2B2748284937D00C2BA0
:103630000CBF35225D2212232A60236002600B60DA
:10364000234B24491B78244ABBB101230B60136030
:10365000224B23491B78234A012B26D9042B0FD94F
:10366000082B1ED9102B94BF862387230B60136071
:103670001D4B01221A7030BC70470B601360E7E7E6
:1036800084230B601360F3E700F58E200F490830A8
:10369000212213232A60236002600B60D0E73922C5
:1036A000F7E785230B601360E2E780230B6013606C
:1036B000DEE700BF0040074001400740A407FF1FAE
:1036C00008B003400CB0034008B00B400CB00B40F6
:1036D000EE2DFF1F20B0034020B00B40A507FF1FB9
:1036E00024B0034024B00B40ED2DFF1F054A064BCC
:1036F00010781B78C0B2DBB2984238BF4030C01A95
:10370000704700BFF42DFF1FF52DFF1FF0B4384B9D
:103710001A7912F0300F2CD072B6997D01F0FF02A9
:1037200000293DD062B6334F334938780D78334E97
:103730001C46C0B2EDB2431C402BE17928BF0023E8
:10374000AB4202F1FF32C9B21CBFF154184612F06D
:10375000FF02F0D12A4B1B68C2B23A704BB1A842AB
:1037600036BFC5F14005401B40192728C4BF0122C0
:103770001A701F49CA78D2B2150616D452060DD552
:103780001B4B1B795B0609D51E4B1F491B6800228A
:103790000A7003B11A70164B3C22DA70F0BC704705
:1037A0004022D9795A7462B6E3E70B791C06E5D555
:1037B000164B174E1C783378E4B2DBB29C420ED025
:1037C000144D01E0A3420AD00133402B28BF00234F
:1037D0000879E85CC0B2C871087D0728F2D9DBB26D
:1037E000034933700B79180644BF7C23CB70C5E7BF
:1037F00000A00640F42DFF1FF52DFF1F382EFF1FE0
:10380000F02DFF1F7C2EFF1F782EFF1F802EFF1F25
:10381000792EFF1FF82DFF1F054A064B10781B78E5
:10382000C0B2DBB2984238BF4030C01A704700BF08
:10383000F42EFF1F892EFF1FF0B4384B1A7912F0B7
:10384000300F2CD072B6997D01F0FF0200293DD0D7
:1038500062B6334F334938780D78334E1C46C0B2C8
:10386000EDB2431C402BE17928BF0023AB4202F1AB
:10387000FF32C9B21CBFF154184612F0FF02F0D15A
:103880002A4B1B68C2B23A704BB1A84236BFC5F191
:103890004005401B40192728C4BF01221A701F4948
:1038A000CA78D2B2150616D452060DD51B4B1B7919
:1038B0005B0609D51E4B1F491B6800220A7003B125
:1038C0001A70164B3C22DA70F0BC70474022D9794E
:1038D0005A7462B6E3E70B791C06E5D5164B174E12
:1038E0001C783378E4B2DBB29C420ED0144D01E078
:1038F000A3420AD00133282B28BF00230879E85CB3
:10390000C0B2C871087D0728F2D9DBB20349337011
:103910000B79180644BF7C23CB70C5E700B0064086
:10392000F42EFF1F892EFF1FB42EFF1F842EFF1FB2
:10393000F82EFF1F882EFF1FFC2EFF1FF52EFF1FE6
:103940008C2EFF1F054A064B10781B78C0B2DBB2E5
:10395000984238BF4030C01A704700BF042FFF1F85
:10396000052FFF1F30B42B4B1A7994061FD52A4818
:10397000DA790378294901333F2B0978C8BF00233E
:103980008B42D2B203D0264CD9B2E2540170254A00
:10399000116861B1244A1278D2B2934236BFC2F1A3
:1039A00040029B1A9B18272BC4BF01230B70194A96
:1039B000D378DBB2180611D45A060DD5154B1B79F6
:1039C0005B0609D5194B1A491B6800220A7003B11E
:1039D0001A70104B2C22DA7030BC7047117909062E
:1039E000EAD5144910480C780178C9B28C420DD040
:1039F0004A1C272A84BF00210A460F4D054C98BF58
:103A0000D1B2AA5CD2B2E2710170D5E76C21D1705B
:103A1000D2E700BF00C00640042FFF1F052FFF1F85
:103A2000302FFF1F002FFF1F712FFF1F742FFF1F4D
:103A3000702FFF1F782FFF1F082FFF1F054A064B0F
:103A400010781B78C0B2DBB2984238BF4030C01A41
:103A5000704700BF802FFF1F812FFF1F30B42B4BFB
:103A60001A7994061FD52A48DA790378294901334F
:103A70003F2B0978C8BF00238B42D2B203D0264C1B
:103A8000D9B2E2540170254A116861B1244A127812
:103A9000D2B2934236BFC2F140029B1A9B18272B29
:103AA000C4BF01230B70194AD378DBB2180611D4B6
:103AB0005A060DD5154B1B795B0609D5194B1A49CA
:103AC0001B6800220A7003B11A70104B2C22DA70A6
:103AD00030BC704711790906EAD5144910480C78B2
:103AE0000178C9B28C420DD04A1C272A84BF00211C
:103AF0000A460F4D054C98BFD1B2AA5CD2B2E27112
:103B00000170D5E76C21D170D2E700BF00D006402C
:103B1000802FFF1F812FFF1FAC2FFF1F7C2FFF1F48
:103B2000ED2FFF1FF02FFF1FEC2FFF1FF42FFF1FA4
:103B3000842FFF1F054A064B10781B78C0B2DBB2FA
:103B4000984238BF4030C01A704700BFFC2FFF1F9B
:103B5000FD2FFF1F30B42C4B5A6894021FD52B4801
:103B6000DA6803782A4901333F2B0978C8BF00235C
:103B70008B4204D0274CD2B2D9B2E2540170264A0B
:103B8000116861B1254A1278D2B2934236BFC2F1B0
:103B900040029B1A9B18272BC4BF01230B701A4AA3
:103BA0009368180202D55268110211D45A020DD539
:103BB000154B5B685B0209D5194B1A491B6800223B
:103BC0000A7003B11A70184B00221A6030BC70479B
:103BD000164A124910780A78D2B290420DD00132BA
:103BE000272A84BF00200246114D074C98BFD0B24F
:103BF000AA5CD2B2E2600870D8E70E480A4A0024F4
:103C0000012104601160D1E700400C40FC2FFF1F30
:103C1000FD2FFF1F2830FF1FF82FFF1F6930FF1FE8
:103C20006C30FF1F6830FF1F580188437030FF1F42
:103C30000030FF1F5C01884310B584B072B6FEF7F8
:103C4000F3FA184A184B19491160702280211A7032
:103C50001A46197013781B06FCD5154B1C68FEF725
:103C6000FDFA62B6134B9C429CBF04EB84046400D3
:103C70002046114C01A90A2200F036F801A920467D
:103C8000002311F8012B01333AB10A2B20F8022F3F
:103C9000F7D11623237004B010BD5B00DBB2237094
:103CA00004B010BD040002400000024000000741C3
:103CB0000C0002407F9698003408FF1F704700BF39
:103CC000704700BF704700BF704700BF704700BF1C
:103CD000704700BF10B5036814465B6898472046DC
:103CE00010BD00BF704700BFF0B44D1E2E4600242B
:103CF00000E00134B0FBF2F302FB1300092800F1ED
:103D000030078ABF3730F8B2C0B206F8010F184644
:103D1000002BEED10A1953704CB1107815F8016FD1
:103D200028700133E01A834202F80169F5DB084686
:103D3000F0BC70470B46014618462CF051BF00BF3F
:103D400070B5036884B000249E6900941023154662
:103D5000029312688DF804406B460394B0479DF8B7
:103D6000043003F00603062B03BF009B2B600120E9
:103D7000204604B070BD00BF009890420CBF0620E2
:103D80000120704710B5034B0360044621F02EFF5D
:103D9000204610BDE0FA030010B5054B0360044651
:103DA00021F024FF2046FFF731FB204610BD00BF65
:103DB000E0FA030038B515461C4621F01BFF20B180
:103DC000082206232560E260237138BDF0B583B078
:103DD0001746089D0A990B9C8D4206460BD0194642
:103DE000304621F007FF18B1012325602771A37128
:103DF000002003B0F0BD0999019321F0FBFE18B13A
:103E00000020677103B0F0BD019BE8E72DE9F041A8
:103E100017461C4606460D4621F0ECFE08B9032C59
:103E200001D9BDE8F0812B683A46314628465B69E6
:103E3000BDE8F041184700BF10B5034B03600446CE
:103E4000FFF7A0FF204610BD3CFB030010B5054B5B
:103E500003600446FFF796FF2046FFF7D7FA204697
:103E600010BD00BF3CFB03002DE9F04F81B00E46B2
:103E700019461F46914683460A9CDDF82CA0DDF8C2
:103E800030800D9D21F0B6FE70B1002E2C6085F8BB
:103E900004901FDB3444A0450CBF06240124AC7100
:103EA000002001B0BDE8F08F444518D0DBF80800D1
:103EB000D0F800E00D95CDF83080CDF82CA00A9414
:103EC000DEF81C403B464A463146A44601B0BDE8F8
:103ED000F04F60470236E3D10123AB71E0E7514672
:103EE000584621F087FE0028E0D0002085F8059094
:103EF00001B0BDE8F08F00BF70B582B00D46069CE2
:103F00009442064609D0B06806680694346A294689
:103F1000A44602B0BDE87040604719460192009384
:103F200021F068FE009B019A0028ECD0062002B028
:103F300070BD00BF2DE9F04107460C4615461E46F0
:103F4000FFF738FF08B1BDE8F081B868076821467F
:103F5000BC6933462A46A446BDE8F041604700BF2D
:103F60002DE9F04FDFF86C83CA4DD8F80020DFF858
:103F70006893C94BC5F80090002483B0D2F808A01C
:103F80006C60012205F11C00AC60EC602C616C617E
:103F9000AC61C24F1A7001F077FAD8F80030C7F858
:103FA00000905B68BE4AC5F820A007F11C004FF0E6
:103FB000FF3A7C60BC60FC603C617C61BC61019349
:103FC0002A600092C5F824A001F05EFA019BDFF898
:103FD0000CB3B44E009A3B62D8F800303A60C7F890
:103FE00024A0B14FC6F80090DB687460ABF10409FF
:103FF00006F11C00B460F46034617461B461019234
:10400000009301F041FA019A009BC6F824A058469B
:1040100007F1140A3260336202F01EFC294658464A
:10402000C9F8744089F8784089F87940C9F87C402B
:10403000C9F88040C9F88440C9F88840C9F804A08C
:104040004BF8047C11F094FF984D284602F004FCD4
:10405000974B45F8083CA5F1080403F1140200232E
:104060002846A2608D49A36784F87C3084F87D30AF
:10407000C4F88030C4F88430C4F88830C4F88C3078
:10408000636011F075FF8B4D2E1F284602F0E4FB94
:10409000002328468349C6F804A0736786F8783061
:1040A00086F87930F367C6F88030C6F88430C6F8F1
:1040B000883045F8047C11F05BFFDFF824B2ABF1E7
:1040C0000405584602F0C8FB002358467549C5F858
:1040D00004A06B6785F8783085F87930EB67C5F810
:1040E0008030C5F88430C5F888304BF8047C11F076
:1040F0003FFFD8F8003032696F4DC4F87890C6F8A9
:104100007490D3F808906D4B6D4FDFF8D8B1DFF89D
:10411000D8A1002442F40052326185E8180005F16C
:104120001C00AC60EC602C616C61AC6101F0ACF91E
:10413000D8F80030C5F820905968604BBC6087E81B
:10414000180007F11C00FC603C617C61BC614FF011
:10415000FF395C4E0091C5F800B0C5F8249001F01D
:1041600093F9D8F80020554BD2680099DFF87C818C
:10417000B46086E8180006F11C00F46034617461D4
:10418000B4613962C7F800B0C7F824900092AAF170
:10419000040701F079F9009A3262C6F800B0C6F857
:1041A0002490504608F1140602F056FB294650466A
:1041B0007C67BC6787F87C40C7F88040C7F88440BC
:1041C000C7F88840C7F88C407E604AF8048C11F02C
:1041D00027FF3D4C204602F03FFB3C4B44F8083C97
:1041E000A4F1080503F1140200233549AA60204612
:1041F000AB67EB6785F88030C5F88430C5F8883048
:10420000C5F88C30C5F890306B6011F009FFDFF80D
:10421000E090A9F10404484602F01EFB0023484642
:10422000284966606367A36784F87C30C4F88030EF
:10423000C4F88430C4F88830C4F88C3049F8048C51
:1042400011F0EEFEDFF8ACA0AAF10409504602F02E
:1042500003FB002350461B49C9F80460C9F87430B9
:10426000C9F8783089F87C30C9F88030C9F88430D2
:10427000C9F88830C9F88C304AF8048C11F0D0FEA7
:10428000134923690A68AF67013243F400530020E1
:1042900032E000BF2C44FF1FC808FF1F3042FF1F41
:1042A0002C2904007C41FF1F4C000400F042FF1F3A
:1042B000D40A0400183FFF1F5441FF1FC40B040021
:1042C000EC3EFF1F0444FF1F3840FF1F040B040097
:1042D0005C44FF1F080DFF1F840B0400A841FF1F53
:1042E0007C43FF1F6C290400A43FFF1F7C000400D7
:1042F0005C42FF1FC840FF1F67670A60236103B06D
:10430000BDE8F08F1C4BC9F804301C4802F0FAFAE3
:1043100021F0E2FA1A4BC9F804301A4802F0F2FA16
:1043200021F0DAFA164B6360174802F0EBFA21F03D
:10433000D3FA134BAB60154802F0E4FA21F0CCFA43
:104340000F4B7B60124802F0DDFA21F0C5FA0A4BF0
:104350006B60104802F0D6FA21F0BEFA064B73608B
:104360000D4802F0CFFA21F0B7FA034BA3600B48D7
:1043700002F0C8FA21F0B0FADC170400A841FF1FD0
:10438000EC170400C840FF1F5C42FF1F3840FF1FAE
:10439000A43FFF1F7C43FF1F183FFF1FF042FF1F7A
:1043A000054A1368591C10B5044611600BB9FFF794
:1043B000D7FD204610BD00BF5C44FF1F114A1368A3
:1043C000591E022B10B50446116001D0204610BDC5
:1043D0000D4801F0A3FE0D4801F0A0FE0C4801F0CD
:1043E0009DFE0C4801F0E0FE0B4801F0DDFE0B489D
:1043F00001F0DAFE204610BD22F058F922F09CF9B7
:10440000E4E700BF5C44FF1FA441FF1F143FFF1FF0
:104410007843FF1FA03FFF1F5842FF1FC440FF1FEC
:10442000704700BF0B6803601A6801321A6070475A
:1044300010B5054C206800B110BD02460349204666
:1044400000F0ACFB206810BD7830FF1FB0FB03000C
:1044500000487047B0FB0300426838B50546CAB152
:104460008368A3B1002403E0AB680134A3420DD9F3
:1044700052F824000028F8D04368591E012B4160EF
:10448000F2D103685B6898476A68EDE712B110469D
:10449000FEF7BEFFEA68CAB1AB68A3B1002403E02F
:1044A000AB680134A3420DD952F824000028F8D09B
:1044B0004368591E012B4160F2D103685B6898473D
:1044C000EA68EDE712B11046FEF7A2FF2B6963B16F
:1044D0000024185910B1FEF79BFF2B690434182CE7
:1044E000F7D113B11846FEF793FF284638BD22F0E6
:1044F000DDF822F021F9C7E722F0D8F822F01CF904
:10450000DEE7013102D021F0E7F9FAE721F02EFDD4
:104510000B681A6870B5013205681A602A680E4681
:10452000012A02F1FF310446296002D023602046AF
:1045300070BD2846FFF790FF2846FEF767FF3368F7
:104540002360204670BD00BF38B5046823685A1E3A
:10455000012B0546226001D0284638BD2046FFF7D2
:104560007BFF2046FEF752FF284638BD002A00F0A8
:1045700010812DE9F0470F682FB9A44C236801334F
:1045800023601F460B6083687D1E013BAB421646CD
:1045900004467BD36768736857F825E0013373607E
:1045A000BEF1000F50D09A4A1168002945D09748B3
:1045B00013E0D2F804C0DCF800303BB9036803F123
:1045C0000108C0F800804346CCF80080013B9D42C2
:1045D00000F0B98052F8081F79B30B683BB9036843
:1045E00003F1010CC0F800C06346C1F800C0013BF4
:1045F0009D42DED151680B682BB9844802680132B4
:10460000026013460A6003F1FF3857F82830A3B15F
:10461000304611F0B1F9814657F82800D9F8043036
:104620000133C9F8043043685A1E012B426000F080
:10463000B18047F8289057F825E0DEF804305A1E7C
:10464000012BCEF8042078D0A26847F82560CAB1C3
:1046500000252F4604E0A2681F600135AA4213D945
:10466000E36853F82500AE0033440028F5D04268D3
:10467000511E012A4160EED103685B689847E368E8
:104680003344E8E7BDE8F087BDE8F0870337B7F1CA
:10469000FE5FD0F804A094BFB8004FF0FF30FEF7E3
:1046A000B3FEA36880464BB16268011F02EB830E24
:1046B00052F8040B41F8040F9645F9D1BB4208D2D9
:1046C00008EB830308EB8701002243F8042B99428F
:1046D000FBD1B7F1FE5FD4F80C9058D94FF0FF3002
:1046E000FEF792FEA36886464BB1E268011F02EB1B
:1046F000830C52F8040B41F8040F9445F9D19F4202
:1047000008D90EEB83030EEB8701002243F8042B3C
:104710009942FBD1A760C4F80480C4F80CE0BAF158
:10472000000F02D05046FEF773FEB9F1000F3FF4C0
:1047300031AF4846FEF76CFE2CE7DEF800307046DD
:104740005B68984780E70B682BB9304802680132F4
:10475000026013460A6003F1FF3857F82830002B37
:104760003FF46BAF304613F0B1FE814657F8280096
:10477000D9F804300133C9F8043043685A1E012BBC
:1047800042607FF456AF03685B68984751E7B80012
:10479000A6E7704703685B6898474AE721F086FF01
:1047A00021F0CAFF45E721F081FF4046FEF730FEC9
:1047B00021F0E4F921F07AFF21F0BEFF5FE721F05C
:1047C00075FF21F0B9FF3FE721F070FF21F0B4FF42
:1047D0002FE7013115D021F07FF821F0ADFF21F056
:1047E0007BF8013105D021F077F8013103D021F0B9
:1047F00073F821F0BBFB21F0B9FB013103D021F0AC
:104800006BF821F0B3FB21F0B1FB00BF7C30FF1F40
:1048100034FC03002DE9F041394C23680F46D907D9
:104820000646904632D5374C2068002837D0DFF84E
:10483000D8E00DE033B9DEF800100131CEF80010F9
:104840000B461160013B984535D054F8080F30B342
:10485000036833B9DEF800500135CEF800502B461E
:104860000560013B626898451368E3D1002B40D096
:10487000F26852F82810013B69B32FB13B68384603
:104880005B68BDE8F0411847BDE8F0812046FDF7C0
:10489000BFFC0028C7D02046FDF7C0FCC3E7F36883
:1048A00053F82820002AE8D17A6801327A6043F868
:1048B0002870BDE8F08102682AB913490B680133FA
:1048C0000B601A460360434602F1FF38F26852F863
:1048D00028100029D1D17968481C786042F82870E6
:1048E0005A1CD1D0F2680231796042F82370BDE8D9
:1048F000F08105480168013101600B461160B7E79E
:104900008030FF1F34FC03007C30FF1F03682BB98D
:1049100003490A6801320A6013460260581E704754
:104920007C30FF1F2DE9F0430F46002183B0054680
:10493000084691462DF032FA80462FF041FD461C84
:104940003046FEF761FD324641460446FEF7C4FD9F
:10495000204900202DF022FA01A9284630F09AFDC6
:10496000019B87ED000A9D4201D01B7873B10022A4
:1049700004233A60C9F80030214600202DF00EFAD9
:104980002046FEF745FD03B0BDE8F083DFED127A67
:10499000B4EEE70AF1EE10FA06DCDFED107AB4EEC1
:1049A000E70AF1EE10FAE7D5B5EEC00AF1EE10FA1B
:1049B00005DD0B4B3B600423C9F80030DCE76FF4E6
:1049C00000033B60F7E7013101D020F085FF21F0C3
:1049D000CDFA00BFB4FB0300FFFF7F7FFFFF7FFF27
:1049E000FFFF7F7F2DE9F0432DED028B0F46002165
:1049F00083B00546084691462DF0D0F980462FF049
:104A0000DFFC461C3046FEF7FFFC324641460446BA
:104A1000FEF762FD2A4900202DF0C0F901A92846C1
:104A200030F026FD019BB0EE408AF0EE608A9D4298
:104A300087ED000B01D01B7893B1002000210423E7
:104A4000C7E90001C9F80030214600202DF0A6F981
:104A50002046FEF7DDFC03B0BDEC028BBDE8F08321
:104A60004FF0FF32174B51EC100B2AF003FF48B9FF
:104A70004FF0FF326FF4801351EC180B2AF0DCFE7C
:104A80000028E1D00022002351EC180B2AF0F2FE9E
:104A900040B10C4B4FF0FF32C7E900230423C9F8A3
:104AA0000030D1E74FF0FF326FF48013C7E90023E5
:104AB000F4E7013101D020F00FFF21F057FA00BFD9
:104AC000B4FB0300FFFFEF7F2DE9F8430C46002104
:104AD0000746084691462DF061F980462FF070FC9C
:104AE000461C3046FEF790FC324641460546FEF72E
:104AF000F3FC274900202DF051F92246384625497C
:104B00002EF086F90130012819D9D4E900674FF059
:104B1000FF32214B304639462AF0ACFEF8B1304620
:104B20003946002200232AF0A5FE18B31A4B4FF095
:104B3000FF32C4E900230423C9F8003006E0002056
:104B400000210423C4E90001C9F8003029460020EF
:104B50002DF024F92846BDE8F843FEF759BC4FF084
:104B6000FF326FF48013304639462AF065FE002884
:104B7000D5D1EBE74FF0FF326FF48013C4E9002387
:104B8000D9E7013101D020F0A7FE21F0EFF900BFF5
:104B9000B4FB0300B8FB0300FFFFEF7F08B503463B
:104BA000002208461A6004492EF0AEF900B908BD8B
:104BB000024820F073F800BFB4FB0300BCFB030005
:104BC00000230360704700BF08B50448FDF720FBD1
:104BD00010B10248FDF722FB08BD00BFE03EFF1FF9
:104BE0002DE9F04FBE4B01602E220646826089B04F
:104BF00003F1B800002143F8041B8342B84AFAD1FC
:104C0000B84B726003F1B800002143F8041B8342E3
:104C10004FF00004B34AF8D1B34BB44DF2605C607E
:104C20001C615C619C603361DC601D60FFF710FCFF
:104C300002882A800123AE482246214601F05EF90F
:104C4000AB4AAC493046FFF791FC0121AA4822F05B
:104C5000B7F9A94AA9493046FFF788FCA84ADFF806
:104C600040B3A84BA84D13602346012410461946B3
:104C70005460CBF80440C2F808B0CBF80050CBF831
:104C80000830CBF80C308BF81030CBF81430CBF860
:104C90001830CBF81C30CBF820308BF824308BF850
:104CA00025308BF8643000F019FC954A974930465E
:104CB000FFF75CFC964B974A1A60012496495C60AA
:104CC0001A463046FFF752FC944B954A1A609549B4
:104CD0005C601A463046FFF749FC934C934B2360C7
:104CE00001236360FFF7A4FBA06022469049304691
:104CF000FFF73CFC8F49DFF8ACA28F4B0B60012221
:104D000000238E4C4A600846CAF80420C1F808A067
:104D10001A461946CAF80040CAF80830CAF80C30DA
:104D20008AF810308AF811308AF81230CAF8143034
:104D3000CAF81830CAF81C30CAF82030CAF8243033
:104D4000CAF82830CAF82C30CAF83030CAF83430E3
:104D50008AF8433022F0ACF9764A79493046FFF7B9
:104D600005FC784ADFF84092774B136001237749BE
:104D70005360C9F8043000231046C2F80890C9F8FF
:104D800000101A461946C9F80830C9F80C3089F8DD
:104D9000103089F8113089F81230C9F81430C9F888
:104DA0001830C9F81C30C9F82030C9F82430C9F8C7
:104DB0002830C9F82C30C9F83030C9F8343089F8B7
:104DC000433022F02DF95F4A61493046FFF7CEFBB0
:104DD000604B614A1A600120586060491A463046AB
:104DE000FFF7C4FB5E4B5F4A1A60012058605E49C2
:104DF0001A463046FFF7BAFB5C4D5D4B2B60012134
:104E0000002369600A46AB60EB602B616B61AB61AC
:104E1000EB612B626B62AB62EB622B636B63AB6328
:104E2000EB632B646B64AB64EB642B656B65AB6508
:104E3000EB652B666B66AB66EB662B676B67AB67E8
:104E4000EB674C48C5F880302946C5F88430C5F872
:104E50008830C5F88C30C5F89030C5F89430C5F866
:104E60009830C5F89C30C5F8A030C5F8A430C5F816
:104E7000A830C5F8AC30C5F8B030C5F8B430C5F8C6
:104E8000B830C5F8BC30C5F8C03085F8C43018F06B
:104E90006BF9384A38493046FFF768FB374B384AD8
:104EA0001A600120586037491A463046FFF75EFB0A
:104EB000354B364A1A600120586035491A4630464B
:104EC000FFF754FB0121334815F060FC314A3249A9
:104ED0003046FFF74BFB0121304809F0E9FD65E062
:104EE000003DFF1F283EFF1F9831FF1FB030FF1FFE
:104EF000EC32FF1FC044FF1F0831FF1F8846FF1F11
:104F0000E430FF1F4C20040070250400F445FF1F0F
:104F1000E43EFF1FA82304005046FF1F0031FF1F7F
:104F2000E42304004C46FF1F9C30FF1F3020040088
:104F3000E845FF1F0C36FF1FA42004005025040085
:104F40000446FF1FF435FF1F702004006025040095
:104F50000046FF1F1435FF1FF4200400FC45FF1F0F
:104F6000F030FF1F0C210400F845FF1F2436FF1FFF
:104F7000142404008830FF1F4846FF1FA03CFF1F79
:104F800024210400F045FF1FEC35FF1F1425040009
:104F90004446FF1FD430FF1FEC45FF1FF436FF1FB0
:104FA000B83DFF1FE43BFF1FA83CFF1FB14AB249B9
:104FB0003046FFF7DBFA0121B04822F019F8AF4A7A
:104FC000AF493046FFF7D2FAAE4AAF4B1360AF4954
:104FD0009160012353601046AC4A4B60AC4C1460A6
:104FE000002319469360D360137453619361D361B6
:104FF00013625362936282F8243100F0E5FAA14A09
:10500000A4493046FFF7B2FAA34BA44A1A60012024
:105010005860A3491A463046FFF7A8FAA14BA24AA6
:105020001A6001205860A1491A463046FFF79EFADF
:105030009F4CA04B236001236360FFF7F9F9A06048
:1050400022469D493046FFF791FA9C4ADFF8FC82E0
:105050009B4B136001239B495360C8F80430002325
:105060001046C2F80880C8F800101A461946C8F859
:105070000830C8F80C3088F81030C8F81430C8F878
:105080001830C8F81C30C8F82030C8F82430C8F8E8
:105090002830C8F82C30C8F83030C8F83430C8F898
:1050A0003830C8F83C3088F86C3022F0D3F8834AA6
:1050B00085493046FFF75AFA844A854F854B13607D
:1050C0000123854953607B60002310469760396057
:1050D0001A461946BB60FB603B747B61BB61FB6198
:1050E0003B627B62BB62FB623B637B63BB63FB63D4
:1050F00087F86C3022F064F8744A78493046FFF73C
:1051000035FA774B774A1A600120586076491A467B
:105110003046FFF72BFA754B754A1A60012058602C
:1051200074491A463046FFF721FA734C734B2360DB
:105130000121002361600A46A360E360236163618B
:10514000A361E36123626362A362E3622363636337
:10515000A363E36323646364A364E3642365636517
:10516000A365E36523666366A366E36623676367F7
:10517000A367E3676248C4F880302146C4F88430EE
:10518000C4F88830C4F88C30C4F89030C4F8943037
:10519000C4F89830C4F89C30C4F8A030C4F8A430E7
:1051A000C4F8A830C4F8AC30C4F8B030C4F8B43097
:1051B000C4F8B830C4F8BC30C4F8C03084F8C43087
:1051C00001F0B2FF4E4A4F493046FFF7CFF94E4B40
:1051D0004E4A1A60012058604D491A463046FFF782
:1051E000C5F94C4B4C4A1A60012058604B491A468D
:1051F0003046FFF7BBF9012149480CF0B1FB484AA2
:1052000048493046FFF7B2F9474B484A1A60012037
:10521000586047491A463046FFF7A8F9454B464AB9
:105220001A600120586045491A463046FFF79EF93A
:10523000164BCDF808B002A93046CDF80CA0CDF839
:1052400010900593CDF81880079709F04FFCF3688C
:105250003B480193FFF75AFB019B43F820B03948C4
:10526000D6F80CB0FFF752FB4BF820A03648D6F822
:105270000CA06DE0F436FF1FC444FF1FC830FF1FB1
:105280008C46FF1FBC30FF1F880C0400C431FF1F79
:105290008C050400B445FF1F1C35FF1FC403040028
:1052A000A844FF1FF830FF1F00040400A444FF1FA0
:1052B0000036FF1F6C0C0400A845FF1FB831FF1F0C
:1052C000E00C04006C050400C445FF1F1836FF1FE6
:1052D000283CFF1FAC0C04007C050400C045FF1FE8
:1052E000A830FF1F300D0400BC45FF1F983CFF1F76
:1052F000480D0400B845FF1F2435FF1F300404008B
:105300001431FF1FA044FF1FB031FF1F600D0400C8
:10531000B045FF1FEC36FF1F300504009C44FF1F03
:10532000D43BFF1FAC45FF1F203EFF1FFC010400C4
:105330005844FF1F0C35FF1F280204005444FF1F70
:10534000F445FF1F0446FF1F0046FF1F2831FF1FC3
:10535000FFF7DCFA4AF820903448D6F80C90FFF7B3
:10536000D5FA49F820503248F568FFF7CFFA314BAB
:1053700045F820303048F568FFF7C8FA45F8208036
:105380002E48F568FFF7C2FA45F820702C48F568FA
:10539000FFF7BCFA45F82040304609B0BDE8F08F71
:1053A000013141D020F098FA04460D462548FFF718
:1053B00037F820462946F3E704460D462248FFF712
:1053C0002FF820462946EBE704460D461F48FFF715
:1053D00027F820462946E3E704460D461C48FFF718
:1053E0001FF820462946DBE704460D461948FFF71B
:1053F00017F820462946D3E704460D461648FFF71E
:105400000FF820462946CBE704460D461348FFF720
:1054100007F820462946C3E704460D461048FEF724
:10542000FFFF20462946BBE720F0A0FD4846FF1FAE
:10543000B445FF1FC431FF1FC445FF1FC045FF1FF8
:10544000A044FF1F1836FF1FF435FF1F0C36FF1F47
:105450009C30FF1FE430FF1F0036FF1FBC30FF1FD2
:10546000B831FF1F10B5054C02212046FFF7B8FBED
:10547000034A044B14601C6010BD00BFEC3CFF1FCE
:105480007430FF1F8430FF1F70B50023104D036080
:105490002B680446C3B10F4E336823602A689342D9
:1054A0000DD00D4B1B68DB0706D533681A68013237
:1054B0001A602046236070BDFFF786FBF5E71A6887
:1054C00001321A60204670BDFFF7CCFFE3E700BF52
:1054D0007430FF1F8430FF1FE03EFF1F38B5856822
:1054E0000446002D2ED02E22214B85F82420A268C0
:1054F0001968204BAB602C200023EB602B74013922
:1055000082F82500A26811F8010F1A440133242BF8
:1055100082F82600F6D1184B196800230139A268D9
:1055200011F8010F1A4401331A2B82F84A00F6D100
:10553000A368124A12495A61042005229861D96170
:105540001A6238BD6820FDF75DFF0E4B456085602F
:10555000C560057445618561C561056280F82450A8
:1055600080F8255080F86450A06003600546BAE7D3
:10557000C408FF1F4C3F0400BC08FF1FBCFC030015
:10558000C4FC03007025040010B504468068084B75
:10559000236010B103685B6898472046FEF740FF20
:1055A000204610BD2046FEF73BFF20F095F900BFD6
:1055B0004C20040010B50446FFF7E6FF2046FDF737
:1055C00025FF204610BD00BF38B584684CB3204A83
:1055D000204B1168A360224600232E252C20E36077
:1055E0002374656242F8280F013904F1B80311F8F9
:1055F000010F42F8040F9A42F9D1174A126804F5D4
:105600009070013A12F8011F43F8041F8342F9D148
:10561000124B134A636104210523A161E2612362F5
:1056200038BD05464FF49470FDF7ECFE0D4B446019
:105630008460C460047444618461C461046244622F
:10564000846280F82441A86003600446BFE700BF7D
:10565000C408FF1F4C3F0400BC08FF1FCCFC030024
:10566000E0FC03008C05040010B504468068084B7C
:10567000236010B103685B6898472046FEF7D0FEB0
:10568000204610BD2046FEF7CBFE20F025F900BFD6
:10569000880C040010B50446FFF7E6FF2046FDF72E
:1056A000B5FE204610BD00BFC36810B425201C0500
:1056B000087045BF2B20487001310231580502D5D2
:1056C0002320087001312A202E2448700C7003F426
:1056D000827092B9042801F1020113D0B0F5807FE5
:1056E00018D013F4804F14BF472367230B70013188
:1056F00000230B705DF8044B704704288A7001F199
:105700000301EBD166230B70013100230B705DF8B0
:10571000044B704713F4804F14BF452365230B706F
:10572000013100230B705DF8044B70470139F0B56F
:105730005C1EA14228BF21468446B9B313440546E6
:1057400000EB010E01E0B74229D115F8016B13F807
:10575000017D754504F1FF34F5D1B81BB0FA80F036
:105760004009F4B1B74226D113191CF80110541C9A
:1057700001E0884218D1A342187803F1FF33F8D131
:10578000401AB0FA80F040094BB2002B06DD1378C6
:105790008B428CBF002000F00100F0BDF0BD54B979
:1057A00020461CF80110EFE70020EDE7002CDBD1CC
:1057B00001780120E8E71CF801100020E4E700BFB1
:1057C000126852F80C3CFFF7B1BF00BF0868B0F197
:1057D000004F08B51BD290420ED9520090420BD216
:1057E000B2F1004F0DD36FF000430B604FF000405B
:1057F000BDE80840FDF706BE0130BDE80840FDF7F2
:1058000001BE0A60501CBDE80840FDF7FBBD014821
:105810001FF0FEF958FE030030B583B00F29019147
:10582000154604460FD800680B463BB1012B12D039
:105830001A4629462CF052FF019B20686360002223
:10584000C25403B030BD002201A9FFF7BFFF019B86
:105850002060A360E9E70570019B2068EEE700BFC8
:10586000884233D02DE9F04180464E6858F8083B15
:10587000984514BF82680F22B24282B00F46054697
:105880000ED3184636B1012E39681BD03246FDF7CB
:1058900023FE28686E600022825502B0BDE8F081C8
:1058A00002A941F8046DFFF791FF044628684045BE
:1058B00001D0FDF7ABFD019A2C602046AA60002EB6
:1058C000E8D0E0E70A7802702868E3E7704700BF95
:1058D0002DE9F04F83B00446DDF83080406827683A
:1058E000914604F1080A08EB0002C9EB0202BA452E
:1058F000A0EB010001920E46C9EB000514BFA2689F
:105900000F2201A920469B46FFF760FF07462EB1F4
:10591000012E21682AD03246FDF7DEFDBBF1000FD3
:105920000BD0B8F1000F08D0B8F1010F07EB06005B
:1059300022D059464246FDF7CFFD65B1226806EBFD
:105940000803012D4E4407EB030002EB060110D0C3
:105950002A46FDF7C1FD2068824501D0FDF756FDBE
:10596000019B2760A36003B0BDE8F08F0B78037044
:10597000D4E7925DFA54EEE79BF80030BB55DCE7C4
:10598000F8B5436814465A1A121B05460CD05CB190
:1059900003680E19012A03EB010003EB060709D087
:1059A00039462CF037FE6B681A1B2B686A600021A1
:1059B0009954F8BD9A5D5A546B68F5E770B5044682
:1059C0002546406855F8086B82B0814234BF0346D3
:1059D0000B46019138BF0190B54214BFA2680F2257
:1059E0009A420BD00CD30F2B0AD8B54206D0421CDA
:1059F000F0B122BB3046FDF709FD256002B070BD55
:105A000001A92046FFF7E2FE94E80A0006465A1C68
:105A100053B182B90846854201D0FDF7F7FC019BDE
:105A20002660A36002B070BD0B7803702068F2E7B7
:105A300033782372DEE7FDF74FFD2068EBE7314650
:105A40002846FDF749FDD5E70246F0B552F8083B78
:105A50004668934218BF826806F1010508BF0F220D
:105A6000954283B004460F4607D9002301220092D5
:105A700031461A46FFF72CFF23689F55236865605F
:105A800000225A5503B0F0BD2DE9F04105464068AB
:105A90006FF00044241A82B01444A3429DF8208081
:105AA00040D80F4629461C181E4651F8083B8B4229
:105AB00018BFA968A4EB020408BF0F21A14221D39B
:105AC000C01B801A0DD0B2420BD03B44012803EB1F
:105AD000060E03EB020121D0024670462CF09AFD1F
